{
  "_format": "hh-sol-artifact-1",
  "contractName": "AegisVault_v4",
  "sourceName": "contracts/v4/AegisVault_v4.sol",
  "abi": [
    {
      "inputs": [],
      "stateMutability": "nonpayable",
      "type": "constructor"
    },
    {
      "inputs": [],
      "name": "CrossChain_AlreadyFinalized",
      "type": "error"
    },
    {
      "inputs": [],
      "name": "CrossChain_AssetNotWhitelisted",
      "type": "error"
    },
    {
      "inputs": [],
      "name": "CrossChain_AutoExecOff",
      "type": "error"
    },
    {
      "inputs": [],
      "name": "CrossChain_BadSig",
      "type": "error"
    },
    {
      "inputs": [],
      "name": "CrossChain_BadVault",
      "type": "error"
    },
    {
      "inputs": [],
      "name": "CrossChain_Cooldown",
      "type": "error"
    },
    {
      "inputs": [],
      "name": "CrossChain_DailyActionsExceeded",
      "type": "error"
    },
    {
      "inputs": [],
      "name": "CrossChain_Expired",
      "type": "error"
    },
    {
      "inputs": [],
      "name": "CrossChain_FeeCapTooHigh",
      "type": "error"
    },
    {
      "inputs": [],
      "name": "CrossChain_FeeTooHigh",
      "type": "error"
    },
    {
      "inputs": [],
      "name": "CrossChain_FillReused",
      "type": "error"
    },
    {
      "inputs": [],
      "name": "CrossChain_LowConfidence",
      "type": "error"
    },
    {
      "inputs": [],
      "name": "CrossChain_MinOut",
      "type": "error"
    },
    {
      "inputs": [],
      "name": "CrossChain_MissingKhalaniId",
      "type": "error"
    },
    {
      "inputs": [],
      "name": "CrossChain_NotSettled",
      "type": "error"
    },
    {
      "inputs": [],
      "name": "CrossChain_Paused",
      "type": "error"
    },
    {
      "inputs": [],
      "name": "CrossChain_PositionTooLarge",
      "type": "error"
    },
    {
      "inputs": [],
      "name": "ManifestTimelockActive",
      "type": "error"
    },
    {
      "inputs": [],
      "name": "ManifestUpgradeNoChange",
      "type": "error"
    },
    {
      "inputs": [],
      "name": "NoPendingManifestUpgrade",
      "type": "error"
    },
    {
      "inputs": [],
      "name": "ReentrancyGuardReentrantCall",
      "type": "error"
    },
    {
      "inputs": [
        {
          "internalType": "address",
          "name": "token",
          "type": "address"
        }
      ],
      "name": "SafeERC20FailedOperation",
      "type": "error"
    },
    {
      "inputs": [],
      "name": "UnsupportedSchemaVersion",
      "type": "error"
    },
    {
      "inputs": [],
      "name": "WrongStrategyHash",
      "type": "error"
    },
    {
      "anonymous": false,
      "inputs": [
        {
          "indexed": true,
          "internalType": "address",
          "name": "vault",
          "type": "address"
        },
        {
          "indexed": true,
          "internalType": "address",
          "name": "oldSigner",
          "type": "address"
        },
        {
          "indexed": true,
          "internalType": "address",
          "name": "newSigner",
          "type": "address"
        }
      ],
      "name": "AttestedSignerUpdated",
      "type": "event"
    },
    {
      "anonymous": false,
      "inputs": [
        {
          "indexed": true,
          "internalType": "bytes32",
          "name": "intentHash",
          "type": "bytes32"
        },
        {
          "indexed": true,
          "internalType": "address",
          "name": "assetIn",
          "type": "address"
        },
        {
          "indexed": true,
          "internalType": "address",
          "name": "assetOut",
          "type": "address"
        },
        {
          "indexed": false,
          "internalType": "uint256",
          "name": "amountIn",
          "type": "uint256"
        },
        {
          "indexed": false,
          "internalType": "uint256",
          "name": "amountOut",
          "type": "uint256"
        },
        {
          "indexed": false,
          "internalType": "uint16",
          "name": "feeBps",
          "type": "uint16"
        }
      ],
      "name": "CrossChainFillAccepted",
      "type": "event"
    },
    {
      "anonymous": false,
      "inputs": [
        {
          "indexed": true,
          "internalType": "address",
          "name": "vault",
          "type": "address"
        },
        {
          "indexed": true,
          "internalType": "address",
          "name": "oldExecutor",
          "type": "address"
        },
        {
          "indexed": true,
          "internalType": "address",
          "name": "newExecutor",
          "type": "address"
        }
      ],
      "name": "ExecutorUpdated",
      "type": "event"
    },
    {
      "anonymous": false,
      "inputs": [
        {
          "indexed": true,
          "internalType": "address",
          "name": "vault",
          "type": "address"
        },
        {
          "indexed": true,
          "internalType": "bytes32",
          "name": "commitHash",
          "type": "bytes32"
        },
        {
          "indexed": false,
          "internalType": "uint256",
          "name": "commitBlock",
          "type": "uint256"
        }
      ],
      "name": "IntentCommitted",
      "type": "event"
    },
    {
      "anonymous": false,
      "inputs": [
        {
          "indexed": true,
          "internalType": "bytes32",
          "name": "cancelledHash",
          "type": "bytes32"
        }
      ],
      "name": "ManifestUpgradeCancelled",
      "type": "event"
    },
    {
      "anonymous": false,
      "inputs": [
        {
          "indexed": true,
          "internalType": "bytes32",
          "name": "newHash",
          "type": "bytes32"
        },
        {
          "indexed": false,
          "internalType": "uint256",
          "name": "readyAt",
          "type": "uint256"
        }
      ],
      "name": "ManifestUpgradeRequested",
      "type": "event"
    },
    {
      "anonymous": false,
      "inputs": [
        {
          "indexed": true,
          "internalType": "bytes32",
          "name": "oldHash",
          "type": "bytes32"
        },
        {
          "indexed": true,
          "internalType": "bytes32",
          "name": "newHash",
          "type": "bytes32"
        }
      ],
      "name": "ManifestUpgraded",
      "type": "event"
    },
    {
      "anonymous": false,
      "inputs": [
        {
          "indexed": false,
          "internalType": "uint16",
          "name": "oldFeeBps",
          "type": "uint16"
        },
        {
          "indexed": false,
          "internalType": "uint16",
          "name": "newFeeBps",
          "type": "uint16"
        }
      ],
      "name": "MaxCrossChainFeeBpsUpdated",
      "type": "event"
    },
    {
      "anonymous": false,
      "inputs": [
        {
          "indexed": true,
          "internalType": "address",
          "name": "vault",
          "type": "address"
        },
        {
          "indexed": true,
          "internalType": "bytes32",
          "name": "intentHash",
          "type": "bytes32"
        },
        {
          "indexed": true,
          "internalType": "address",
          "name": "attestedSigner",
          "type": "address"
        },
        {
          "indexed": false,
          "internalType": "bytes32",
          "name": "attestationReportHash",
          "type": "bytes32"
        }
      ],
      "name": "SealedIntentExecuted",
      "type": "event"
    },
    {
      "anonymous": false,
      "inputs": [
        {
          "indexed": true,
          "internalType": "bytes32",
          "name": "strategyHash",
          "type": "bytes32"
        },
        {
          "indexed": false,
          "internalType": "uint32",
          "name": "schemaVer",
          "type": "uint32"
        }
      ],
      "name": "StrategyApplied",
      "type": "event"
    },
    {
      "anonymous": false,
      "inputs": [
        {
          "indexed": true,
          "internalType": "address",
          "name": "vault",
          "type": "address"
        },
        {
          "indexed": true,
          "internalType": "address",
          "name": "token",
          "type": "address"
        },
        {
          "indexed": true,
          "internalType": "address",
          "name": "recipient",
          "type": "address"
        },
        {
          "indexed": false,
          "internalType": "uint256",
          "name": "amount",
          "type": "uint256"
        }
      ],
      "name": "TokenWithdrawn",
      "type": "event"
    },
    {
      "anonymous": false,
      "inputs": [
        {
          "indexed": true,
          "internalType": "address",
          "name": "vault",
          "type": "address"
        },
        {
          "indexed": true,
          "internalType": "address",
          "name": "owner",
          "type": "address"
        },
        {
          "indexed": false,
          "internalType": "address",
          "name": "baseAsset",
          "type": "address"
        }
      ],
      "name": "VaultCreated",
      "type": "event"
    },
    {
      "anonymous": false,
      "inputs": [
        {
          "indexed": true,
          "internalType": "address",
          "name": "vault",
          "type": "address"
        },
        {
          "indexed": true,
          "internalType": "address",
          "name": "triggeredBy",
          "type": "address"
        }
      ],
      "name": "VaultPaused",
      "type": "event"
    },
    {
      "anonymous": false,
      "inputs": [
        {
          "indexed": true,
          "internalType": "address",
          "name": "vault",
          "type": "address"
        },
        {
          "indexed": true,
          "internalType": "address",
          "name": "triggeredBy",
          "type": "address"
        }
      ],
      "name": "VaultUnpaused",
      "type": "event"
    },
    {
      "anonymous": false,
      "inputs": [
        {
          "indexed": true,
          "internalType": "address",
          "name": "vault",
          "type": "address"
        },
        {
          "indexed": true,
          "internalType": "address",
          "name": "oldVenue",
          "type": "address"
        },
        {
          "indexed": true,
          "internalType": "address",
          "name": "newVenue",
          "type": "address"
        }
      ],
      "name": "VenueUpdated",
      "type": "event"
    },
    {
      "inputs": [],
      "name": "DEFAULT_MAX_CROSS_CHAIN_FEE_BPS",
      "outputs": [
        {
          "internalType": "uint16",
          "name": "",
          "type": "uint16"
        }
      ],
      "stateMutability": "view",
      "type": "function"
    },
    {
      "inputs": [],
      "name": "MANIFEST_UPGRADE_TIMELOCK",
      "outputs": [
        {
          "internalType": "uint256",
          "name": "",
          "type": "uint256"
        }
      ],
      "stateMutability": "view",
      "type": "function"
    },
    {
      "inputs": [],
      "name": "MAX_ALLOWED_ASSETS",
      "outputs": [
        {
          "internalType": "uint256",
          "name": "",
          "type": "uint256"
        }
      ],
      "stateMutability": "view",
      "type": "function"
    },
    {
      "inputs": [],
      "name": "MAX_CROSS_CHAIN_FEE_BPS_CAP",
      "outputs": [
        {
          "internalType": "uint16",
          "name": "",
          "type": "uint16"
        }
      ],
      "stateMutability": "view",
      "type": "function"
    },
    {
      "inputs": [],
      "name": "MAX_SUPPORTED_SCHEMA_VER",
      "outputs": [
        {
          "internalType": "uint32",
          "name": "",
          "type": "uint32"
        }
      ],
      "stateMutability": "view",
      "type": "function"
    },
    {
      "inputs": [
        {
          "components": [
            {
              "internalType": "address",
              "name": "vault",
              "type": "address"
            },
            {
              "internalType": "address",
              "name": "assetIn",
              "type": "address"
            },
            {
              "internalType": "address",
              "name": "assetOut",
              "type": "address"
            },
            {
              "internalType": "uint256",
              "name": "amountIn",
              "type": "uint256"
            },
            {
              "internalType": "uint256",
              "name": "minAmountOut",
              "type": "uint256"
            },
            {
              "internalType": "uint256",
              "name": "createdAt",
              "type": "uint256"
            },
            {
              "internalType": "uint256",
              "name": "expiresAt",
              "type": "uint256"
            },
            {
              "internalType": "uint16",
              "name": "confidenceBps",
              "type": "uint16"
            },
            {
              "internalType": "uint16",
              "name": "riskScoreBps",
              "type": "uint16"
            },
            {
              "internalType": "bytes32",
              "name": "attestationReportHash",
              "type": "bytes32"
            },
            {
              "internalType": "uint64",
              "name": "routeChainId",
              "type": "uint64"
            },
            {
              "internalType": "uint16",
              "name": "maxFeeBps",
              "type": "uint16"
            },
            {
              "internalType": "bytes32",
              "name": "routePolicyHash",
              "type": "bytes32"
            },
            {
              "internalType": "bytes32",
              "name": "khalaniIntentId",
              "type": "bytes32"
            },
            {
              "internalType": "uint256",
              "name": "prevBalance",
              "type": "uint256"
            },
            {
              "internalType": "bytes32",
              "name": "strategyHash",
              "type": "bytes32"
            },
            {
              "internalType": "uint32",
              "name": "strategySchemaVer",
              "type": "uint32"
            }
          ],
          "internalType": "struct CrossChainLibV4.CrossChainIntent",
          "name": "intent",
          "type": "tuple"
        },
        {
          "internalType": "bytes",
          "name": "teeSignature",
          "type": "bytes"
        },
        {
          "internalType": "uint256",
          "name": "actualAmountOut",
          "type": "uint256"
        },
        {
          "internalType": "uint256",
          "name": "actualFeeBps",
          "type": "uint256"
        }
      ],
      "name": "acceptCrossChainFill",
      "outputs": [],
      "stateMutability": "nonpayable",
      "type": "function"
    },
    {
      "inputs": [],
      "name": "acceptedManifestHash",
      "outputs": [
        {
          "internalType": "bytes32",
          "name": "",
          "type": "bytes32"
        }
      ],
      "stateMutability": "view",
      "type": "function"
    },
    {
      "inputs": [],
      "name": "applyManifestUpgrade",
      "outputs": [],
      "stateMutability": "nonpayable",
      "type": "function"
    },
    {
      "inputs": [],
      "name": "baseAsset",
      "outputs": [
        {
          "internalType": "contract IERC20",
          "name": "",
          "type": "address"
        }
      ],
      "stateMutability": "view",
      "type": "function"
    },
    {
      "inputs": [],
      "name": "cancelManifestUpgrade",
      "outputs": [],
      "stateMutability": "nonpayable",
      "type": "function"
    },
    {
      "inputs": [
        {
          "internalType": "bytes32",
          "name": "commitHash",
          "type": "bytes32"
        }
      ],
      "name": "commitIntent",
      "outputs": [],
      "stateMutability": "nonpayable",
      "type": "function"
    },
    {
      "inputs": [
        {
          "internalType": "bytes32",
          "name": "",
          "type": "bytes32"
        }
      ],
      "name": "consumedKhalaniIds",
      "outputs": [
        {
          "internalType": "bool",
          "name": "",
          "type": "bool"
        }
      ],
      "stateMutability": "view",
      "type": "function"
    },
    {
      "inputs": [
        {
          "internalType": "uint256",
          "name": "amount",
          "type": "uint256"
        }
      ],
      "name": "deposit",
      "outputs": [],
      "stateMutability": "nonpayable",
      "type": "function"
    },
    {
      "inputs": [
        {
          "components": [
            {
              "internalType": "bytes32",
              "name": "intentHash",
              "type": "bytes32"
            },
            {
              "internalType": "address",
              "name": "vault",
              "type": "address"
            },
            {
              "internalType": "address",
              "name": "assetIn",
              "type": "address"
            },
            {
              "internalType": "address",
              "name": "assetOut",
              "type": "address"
            },
            {
              "internalType": "uint256",
              "name": "amountIn",
              "type": "uint256"
            },
            {
              "internalType": "uint256",
              "name": "minAmountOut",
              "type": "uint256"
            },
            {
              "internalType": "uint256",
              "name": "createdAt",
              "type": "uint256"
            },
            {
              "internalType": "uint256",
              "name": "expiresAt",
              "type": "uint256"
            },
            {
              "internalType": "uint256",
              "name": "confidenceBps",
              "type": "uint256"
            },
            {
              "internalType": "uint256",
              "name": "riskScoreBps",
              "type": "uint256"
            },
            {
              "internalType": "bytes32",
              "name": "attestationReportHash",
              "type": "bytes32"
            },
            {
              "internalType": "bytes32",
              "name": "strategyHash",
              "type": "bytes32"
            },
            {
              "internalType": "uint32",
              "name": "strategySchemaVer",
              "type": "uint32"
            },
            {
              "internalType": "string",
              "name": "reasonSummary",
              "type": "string"
            }
          ],
          "internalType": "struct ExecLibV4.ExecutionIntentV4",
          "name": "intent",
          "type": "tuple"
        },
        {
          "internalType": "bytes",
          "name": "sig",
          "type": "bytes"
        }
      ],
      "name": "executeIntent",
      "outputs": [],
      "stateMutability": "nonpayable",
      "type": "function"
    },
    {
      "inputs": [],
      "name": "executor",
      "outputs": [
        {
          "internalType": "address",
          "name": "",
          "type": "address"
        }
      ],
      "stateMutability": "view",
      "type": "function"
    },
    {
      "inputs": [],
      "name": "getAllowedAssets",
      "outputs": [
        {
          "internalType": "address[]",
          "name": "",
          "type": "address[]"
        }
      ],
      "stateMutability": "view",
      "type": "function"
    },
    {
      "inputs": [],
      "name": "getPolicy",
      "outputs": [
        {
          "components": [
            {
              "internalType": "uint256",
              "name": "maxPositionBps",
              "type": "uint256"
            },
            {
              "internalType": "uint256",
              "name": "maxDailyLossBps",
              "type": "uint256"
            },
            {
              "internalType": "uint256",
              "name": "stopLossBps",
              "type": "uint256"
            },
            {
              "internalType": "uint256",
              "name": "cooldownSeconds",
              "type": "uint256"
            },
            {
              "internalType": "uint256",
              "name": "confidenceThresholdBps",
              "type": "uint256"
            },
            {
              "internalType": "uint256",
              "name": "maxActionsPerDay",
              "type": "uint256"
            },
            {
              "internalType": "bool",
              "name": "autoExecution",
              "type": "bool"
            },
            {
              "internalType": "bool",
              "name": "paused",
              "type": "bool"
            },
            {
              "internalType": "uint256",
              "name": "performanceFeeBps",
              "type": "uint256"
            },
            {
              "internalType": "uint256",
              "name": "managementFeeBps",
              "type": "uint256"
            },
            {
              "internalType": "uint256",
              "name": "entryFeeBps",
              "type": "uint256"
            },
            {
              "internalType": "uint256",
              "name": "exitFeeBps",
              "type": "uint256"
            },
            {
              "internalType": "address",
              "name": "feeRecipient",
              "type": "address"
            },
            {
              "internalType": "bool",
              "name": "sealedMode",
              "type": "bool"
            },
            {
              "internalType": "address",
              "name": "attestedSigner",
              "type": "address"
            }
          ],
          "internalType": "struct VaultPolicy",
          "name": "",
          "type": "tuple"
        }
      ],
      "stateMutability": "view",
      "type": "function"
    },
    {
      "inputs": [],
      "name": "getVaultSummary",
      "outputs": [
        {
          "internalType": "address",
          "name": "",
          "type": "address"
        },
        {
          "internalType": "address",
          "name": "",
          "type": "address"
        },
        {
          "internalType": "address",
          "name": "",
          "type": "address"
        },
        {
          "internalType": "uint256",
          "name": "",
          "type": "uint256"
        },
        {
          "internalType": "uint256",
          "name": "",
          "type": "uint256"
        },
        {
          "internalType": "uint256",
          "name": "",
          "type": "uint256"
        },
        {
          "internalType": "uint256",
          "name": "",
          "type": "uint256"
        },
        {
          "internalType": "bool",
          "name": "",
          "type": "bool"
        },
        {
          "internalType": "bool",
          "name": "",
          "type": "bool"
        }
      ],
      "stateMutability": "view",
      "type": "function"
    },
    {
      "inputs": [
        {
          "internalType": "address",
          "name": "_owner",
          "type": "address"
        },
        {
          "internalType": "address",
          "name": "_baseAsset",
          "type": "address"
        },
        {
          "internalType": "address",
          "name": "_executor",
          "type": "address"
        },
        {
          "internalType": "address",
          "name": "_registry",
          "type": "address"
        },
        {
          "internalType": "address",
          "name": "_venue",
          "type": "address"
        },
        {
          "components": [
            {
              "internalType": "uint256",
              "name": "maxPositionBps",
              "type": "uint256"
            },
            {
              "internalType": "uint256",
              "name": "maxDailyLossBps",
              "type": "uint256"
            },
            {
              "internalType": "uint256",
              "name": "stopLossBps",
              "type": "uint256"
            },
            {
              "internalType": "uint256",
              "name": "cooldownSeconds",
              "type": "uint256"
            },
            {
              "internalType": "uint256",
              "name": "confidenceThresholdBps",
              "type": "uint256"
            },
            {
              "internalType": "uint256",
              "name": "maxActionsPerDay",
              "type": "uint256"
            },
            {
              "internalType": "bool",
              "name": "autoExecution",
              "type": "bool"
            },
            {
              "internalType": "bool",
              "name": "paused",
              "type": "bool"
            },
            {
              "internalType": "uint256",
              "name": "performanceFeeBps",
              "type": "uint256"
            },
            {
              "internalType": "uint256",
              "name": "managementFeeBps",
              "type": "uint256"
            },
            {
              "internalType": "uint256",
              "name": "entryFeeBps",
              "type": "uint256"
            },
            {
              "internalType": "uint256",
              "name": "exitFeeBps",
              "type": "uint256"
            },
            {
              "internalType": "address",
              "name": "feeRecipient",
              "type": "address"
            },
            {
              "internalType": "bool",
              "name": "sealedMode",
              "type": "bool"
            },
            {
              "internalType": "address",
              "name": "attestedSigner",
              "type": "address"
            }
          ],
          "internalType": "struct VaultPolicy",
          "name": "_policy",
          "type": "tuple"
        },
        {
          "internalType": "address[]",
          "name": "assets_",
          "type": "address[]"
        },
        {
          "internalType": "address",
          "name": "_protocolTreasury",
          "type": "address"
        },
        {
          "internalType": "uint16",
          "name": "_maxCrossChainFeeBps",
          "type": "uint16"
        },
        {
          "internalType": "bytes32",
          "name": "_acceptedManifestHash",
          "type": "bytes32"
        }
      ],
      "name": "initialize",
      "outputs": [],
      "stateMutability": "nonpayable",
      "type": "function"
    },
    {
      "inputs": [],
      "name": "lastExecutionTime",
      "outputs": [
        {
          "internalType": "uint256",
          "name": "",
          "type": "uint256"
        }
      ],
      "stateMutability": "view",
      "type": "function"
    },
    {
      "inputs": [],
      "name": "manifestUpgradeRequestedAt",
      "outputs": [
        {
          "internalType": "uint256",
          "name": "",
          "type": "uint256"
        }
      ],
      "stateMutability": "view",
      "type": "function"
    },
    {
      "inputs": [],
      "name": "maxCrossChainFeeBps",
      "outputs": [
        {
          "internalType": "uint16",
          "name": "",
          "type": "uint16"
        }
      ],
      "stateMutability": "view",
      "type": "function"
    },
    {
      "inputs": [],
      "name": "owner",
      "outputs": [
        {
          "internalType": "address",
          "name": "",
          "type": "address"
        }
      ],
      "stateMutability": "view",
      "type": "function"
    },
    {
      "inputs": [],
      "name": "pause",
      "outputs": [],
      "stateMutability": "nonpayable",
      "type": "function"
    },
    {
      "inputs": [],
      "name": "pendingManifestHash",
      "outputs": [
        {
          "internalType": "bytes32",
          "name": "",
          "type": "bytes32"
        }
      ],
      "stateMutability": "view",
      "type": "function"
    },
    {
      "inputs": [],
      "name": "protocolTreasury",
      "outputs": [
        {
          "internalType": "address",
          "name": "",
          "type": "address"
        }
      ],
      "stateMutability": "view",
      "type": "function"
    },
    {
      "inputs": [
        {
          "internalType": "bytes32",
          "name": "newHash",
          "type": "bytes32"
        }
      ],
      "name": "requestManifestUpgrade",
      "outputs": [],
      "stateMutability": "nonpayable",
      "type": "function"
    },
    {
      "inputs": [
        {
          "internalType": "address",
          "name": "newSigner",
          "type": "address"
        }
      ],
      "name": "setAttestedSigner",
      "outputs": [],
      "stateMutability": "nonpayable",
      "type": "function"
    },
    {
      "inputs": [
        {
          "internalType": "address",
          "name": "newExecutor",
          "type": "address"
        }
      ],
      "name": "setExecutor",
      "outputs": [],
      "stateMutability": "nonpayable",
      "type": "function"
    },
    {
      "inputs": [
        {
          "internalType": "uint16",
          "name": "newFeeBps",
          "type": "uint16"
        }
      ],
      "name": "setMaxCrossChainFeeBps",
      "outputs": [],
      "stateMutability": "nonpayable",
      "type": "function"
    },
    {
      "inputs": [
        {
          "internalType": "address",
          "name": "newVenue",
          "type": "address"
        }
      ],
      "name": "setVenue",
      "outputs": [],
      "stateMutability": "nonpayable",
      "type": "function"
    },
    {
      "inputs": [],
      "name": "totalDeposited",
      "outputs": [
        {
          "internalType": "uint256",
          "name": "",
          "type": "uint256"
        }
      ],
      "stateMutability": "view",
      "type": "function"
    },
    {
      "inputs": [],
      "name": "unpause",
      "outputs": [],
      "stateMutability": "nonpayable",
      "type": "function"
    },
    {
      "inputs": [],
      "name": "venue",
      "outputs": [
        {
          "internalType": "address",
          "name": "",
          "type": "address"
        }
      ],
      "stateMutability": "view",
      "type": "function"
    },
    {
      "inputs": [],
      "name": "version",
      "outputs": [
        {
          "internalType": "string",
          "name": "",
          "type": "string"
        }
      ],
      "stateMutability": "pure",
      "type": "function"
    },
    {
      "inputs": [
        {
          "internalType": "uint256",
          "name": "amount",
          "type": "uint256"
        }
      ],
      "name": "withdraw",
      "outputs": [],
      "stateMutability": "nonpayable",
      "type": "function"
    },
    {
      "inputs": [],
      "name": "withdrawAllNonBase",
      "outputs": [],
      "stateMutability": "nonpayable",
      "type": "function"
    },
    {
      "inputs": [
        {
          "internalType": "address",
          "name": "token",
          "type": "address"
        },
        {
          "internalType": "uint256",
          "name": "amount",
          "type": "uint256"
        }
      ],
      "name": "withdrawToken",
      "outputs": [],
      "stateMutability": "nonpayable",
      "type": "function"
    }
  ],
  "bytecode": "0x6080806040523461004d5760017f9b779b17422d0df92223018b32b4d1fa46e071723d6817e2486d003becc55f00555f80546001600160a01b03191661dead17905561297290816100528239f35b5f80fdfe60806040526004361015610011575f80fd5b5f803560e01c80630fc2c0ec146125695780630fe480a81461254e5780631577b0af146124b05780631844423d146124955780631c3c0ea81461241957806329cde6c1146123fc5780632e1a7d4d146122ee5780633f4ba83a14612286578063423dda781461226457806354fd4d50146121d85780635692effb146121ba5780635d4a78231461219e5780635d4c0f5a1461212f5780635f1939091461207e5780636d80487714611f3657806373b379bd14611f185780637c1f70f514611e94578063803db96d14611e6b57806384224f9814611e4d5780638456cb5914611de05780638da5cb5b14611db957806393ca03c214611d185780639e281a9814611bed578063a270a73714611bc4578063af8794fe14611b46578063b6b55f2514611a32578063c34c08e514611a09578063c55e4a0e14611922578063ca68cd5d146118f3578063cdf456e1146118ca578063ce1e4626146116ec578063d78f0d1314611026578063db2636261461100a578063eb12121a14610b19578063efb00bce14610afb578063f066eea014610a53578063fe107848146101dc5763ff50abdc146101bc575f80fd5b346101d957806003193601126101d9576020601354604051908152f35b80fd5b50346101d9573660031901610280811261070c57610220136101d957610224356001600160401b03811161070c5761021890369060040161263f565b6102206128cd565b61023560018060a01b036001541633146127a3565b600b5460ff8160081c16610a415760ff1615610a2f576004356001600160a01b038116908190036106e0573003610a1d5760c4354211610a0b57600163ffffffff61027e6127fd565b161080156109f4575b6109e257601b546101e435036109d05760115460405163187be3a360e31b8152926001600160a01b03918216916102bc6125e9565b1660048501526102ca6125ff565b6001600160a01b0390811660248601526102e2612615565b1660448501526064356064850152608435608485015260a43560a485015260c43560c485015261ffff60e4351660e435036106e05761ffff60e4351660e485015261010480359061ffff82168092036106e0578501526101248035908501526001600160401b0361014480359182169182900361097a578501526101649283359361ffff851685036106e05761ffff8516908601526101848035908601526101a4928335848701526101c4928335848801526101e4356101e488015261020480359163ffffffff83168093036106e057602094899485946103e89486015230610224860152466102448601526102648501526102a06102848501526102a4840191612822565b038173__$9f0f6a19bdfd4404bbe3ae9dfd2e39ec9a$__5af49384156109c5578594610991575b5060048054604051633fc6a14f60e11b81529182018690526001600160a01b03169390602081602481885afa908115610986578791610948575b50610936578235156109245782358652601960205260ff60408720541661091257610479601454600854906126a0565b42106109005760095461ffff60e43516106108ee576016544210156108c1575b601554600a5411156108af578586601254905b81811061086b575b505015610859576005548015158061084e575b610802575b5061ffff16610264351180156107f0575b6107de5760843561024435106107cc5760249060206001600160a01b036105026127d3565b16604051938480926370a0823160e01b82523060048301525afa9182156107c157869261078d575b5080358210918215610774575b5050610762576105456127d3565b6002546001600160a01b0391821691161461074b575b358352601960205260408320805460ff19166001179055803b156107475782604051638056616f60e01b8152836004820152306024820152818160448183875af1801561071057610733575b505060405160c08101916001600160401b0383118284101761071f57849260405283825260208201838152604083019260643584526060810190610244358252608081019142835260a082019460018652803b1561071b57879560c4948793604051998a988997631474be9560e01b895251600489015251602488015251604487015251606486015251608485015251151560a48401525af18015610710576106f8575b505042601455601554600181018091116106e4576015556024356001600160a01b038116908190036106e05761067f6127d3565b917f83e14375f2b9d888ee9e3f961fa395f706e89cbee2b157b85ccd312c9ad747fe606060405194606435865261024435602087015261ffff6102643516604087015260018060a01b031694a460015f805160206128fd8339815191525580f35b5f80fd5b634e487b7160e01b83526011600452602483fd5b610701906126ea565b61070c57815f61064b565b5080fd5b6040513d84823e3d90fd5b8780fd5b634e487b7160e01b5f52604160045260245ffd5b61073c906126ea565b61074757825f6105a7565b8280fd5b61075a610244356013546126a0565b60135561055b565b60405163fc2e0c2560e01b8152600490fd5b6102443592506107859135906126dd565b105f80610537565b9091506020813d6020116107b9575b816107a960209383612719565b810103126106e05751905f61052a565b3d915061079c565b6040513d88823e3d90fd5b60405163112c9cfb60e11b8152600490fd5b60405163230121ad60e21b8152600490fd5b5061ffff6018541661026435116104dd565b601354808281020482148115171561083a5761271091020460643511610828575f6104cc565b604051631679546760e21b8152600490fd5b634e487b7160e01b88526011600452602488fd5b5060135415156104c7565b6040516359149fe160e01b8152600490fd5b61087481612777565b9054906001600160a01b036108876127d3565b169160018060a01b039160031b1c16146108a3576001016104ac565b50505060015f806104b4565b604051630f5c83c760e31b8152600490fd5b856015556201518042018042116108da57601655610499565b634e487b7160e01b87526011600452602487fd5b604051630c155c9160e01b8152600490fd5b60405163730285e360e11b8152600490fd5b60405163855e291160e01b8152600490fd5b604051630211be4160e31b8152600490fd5b6040516319f1320360e11b8152600490fd5b90506020813d60201161097e575b8161096360209383612719565b8101031261097a5761097490612842565b5f610449565b8680fd5b3d9150610956565b6040513d89823e3d90fd5b9093506020813d6020116109bd575b816109ad60209383612719565b810103126106e05751925f61040f565b3d91506109a0565b6040513d87823e3d90fd5b604051633a42da7960e11b8152600490fd5b6040516335349a7f60e01b8152600490fd5b50600163ffffffff610a046127fd565b1611610287565b604051631b82de1960e01b8152600490fd5b6040516327768b7b60e11b8152600490fd5b604051636cf5944560e01b8152600490fd5b6040516303b11c1760e51b8152600490fd5b50346101d957806003193601126101d957604051809160125490818352602080930180926012835284832090835b818110610ade5750505084610a97910385612719565b60405193838594850191818652518092526040850193925b828110610abe57505050500390f35b83516001600160a01b031685528695509381019392810192600101610aaf565b82546001600160a01b031684529286019260019283019201610a81565b50346101d957806003193601126101d9576020601b54604051908152f35b50346101d9576103003660031901126101d957610b346125e9565b610b3c6125ff565b90610b45612615565b6064356001600160a01b03811681036106e057608435906001600160a01b03821682036106e0576101e03660a3190112611006576001600160401b0361028435811061097a573660236102843501121561097a5761028435600401351161100657366024610284356004013560051b61028435010111611006576102a435926001600160a01b03841684036106e0576102c4359261ffff841684036106e05787546001600160a01b038116610fdb576001600160a01b038716151580610fc9575b80610fb7575b80610fa5575b610c1b906126ad565b610bb86101a435111580610f96575b80610f88575b80610f7a575b15610f5157600a610284356004013511610f1a57612710806101243511159081610f0d575b5015610edc5760c861ffff861611610eca576001600160a01b03199081166001600160a01b03888116919091178a55600380548316938216939093179092556002805482168984161790556001805482169383169390931790925560048054909216921691909117905560a43560055560c43560065560e435600755610104356008556101243560095561014435600a5561016435801515908190036106e057600b54610184358015158091036106e05761ff0060ff9160081b1692169061ffff19161717600b556101a435600c556101c435600d556101e435600e5561020435600f556102243560018060a01b0381168091036106e05760105490610244358015158091036106e0576001600160a81b03199092161760a09190911b60ff60a01b1617601055610264356001600160a01b03811681036106e057601180546001600160a01b0319166001600160a01b0392909216919091179055845b61028435600401358110610e585750620151804201804211610e44576016556018805461ffff191661ffff909216919091179055601a80546001600160a01b0319166001600160a01b039283161790556102e435601b556040519281168352169030907f897c133dfbfe1f6239e98b4ffd7e4f6c86a62350a131a7a37790419f58af02f990602090a380f35b634e487b7160e01b86526011600452602486fd5b610e6c60248260051b6102843501016127e9565b6012805490600160401b821015610eb65781610e9091600180969594019055612777565b819291549060031b91858060a01b0316821b91858060a01b03901b191617905501610db8565b634e487b7160e01b89526041600452602489fd5b60405163e062961760e01b8152600490fd5b60405162461bcd60e51b8152602060048201526009602482015268706f6c69637942707360b81b6044820152606490fd5b905060a43511155f610c5b565b60405162461bcd60e51b815260206004820152600f60248201526e746f6f206d616e792061737365747360881b6044820152606490fd5b60405162461bcd60e51b81526020600482015260016024820152603360f91b6044820152606490fd5b5060c8610204351115610c36565b5060c86101e4351115610c30565b506101f46101c4351115610c2a565b506001600160a01b0384161515610c12565b506001600160a01b0383161515610c0c565b506001600160a01b0388161515610c06565b606460405162461bcd60e51b81526020600482015260046024820152631a5b9a5d60e21b6044820152fd5b8580fd5b50346101d957806003193601126101d9576020604051600a8152f35b50346101d95760403660031901126101d9576001600160401b03600435116101d9576101c0600435360360031901126101d9576024356001600160401b03811161070c5761107890369060040161263f565b6110806128cd565b6001546001600160a01b03163314806116dc575b806116d0575b6110a3906127a3565b6110b16024600435016127e9565b306001600160a01b03909116036116a757600163ffffffff6110d861018460043501612811565b16108015611689575b6109e257601b546101646004350135036109d0576011546001600160a01b031690811561163d5760209161114f6040519485938493637a6478eb60e11b8552600435600401356004860152610144600435013560248601526044850152608060648501526084840191612822565b038173__$a4a7e8d2af9db14b36ef6d5b96bc1b0d4a$__5af490811561071057829161160b575b5060ff60105460a01c16611555575b505b601654421015611523575b60145460155490426014556001820182116106e457600182016015556003546002546004805460135460405163362509ef60e11b81526102e0818501528335938401356102e4820152966001600160a01b039586169691959094919392811692918116916112029060240161262b565b166103048801526001600160a01b0361121f60043560440161262b565b166103248801526001600160a01b0361123c60043560640161262b565b1661034488015260846004359081013561036489015260a481013561038489015260c48101356103a489015260e48101356103c48901526101048101356103e4890152610124810135610404890152610144810135610424890152610164810135610444890152610184013563ffffffff8116908190036106e0576104648801526022196004353603016101a46004350135121561071b576004356101a460043501350160018060401b0360048201351161151f5760048101353603602482011361151f5790611329889697959493926101c06104848901526104a4880190602460048201359101612822565b60055460248801526006546044880152600754606488015260088054608489015260095460a4890152600a5460c4890152600b5460ff818116151560e48b0152911c81161515610104890152600c54610124890152600d54610144890152600e54610164890152600f546101848901526010546001600160a01b038082166101a48b015260a09190911c90911615156101c4890152601154166101e48801528681036003190161020488015260128054808352908b52602090910195907fbb8a6a4669ba250d26cd7a459eca9d215f8307e33aebe50379bc5a3617ec3444908b5b8181106114fd575050506102248701526102448601526102648501526102848401526102a48301526102c48201929092526040918190038173__$67cacf6c3ef56bdbb2bffc561b192ac79d$__5af48015610710576114c1575b5061147461018460043501612811565b63ffffffff604051911681527f805cb34ce0fc2a20d5423e1758e3c10a99425fa65e4fcaab536078156cb19e486020610164600435013592a260015f805160206128fd8339815191525580f35b6040813d6040116114f5575b816114da60409383612719565b8101031261070c5760206114ee9101612842565b505f611464565b3d91506114cd565b82546001600160a01b031689528b99506020909801976001928301920161140a565b8880fd5b80601555620151804201421161154157620151804201601655611192565b634e487b7160e01b81526011600452602490fd5b8082526017602052604082205480151590816115f5575b50156115cb578152601760205280604081205560018060a01b03601154166040516101446004350135815260043560040135907f1a6434e9b6653fb533348ebac4eb90b194369ca56f59817e8bf3dc9a7fa6026b60203092a45f611185565b60405162461bcd60e51b815260206004820152600260248201526131b960f11b6044820152606490fd5b9050600181018091116106e4574310155f61156c565b90506020813d602011611635575b8161162660209383612719565b810103126106e057515f611176565b3d9150611619565b50505060ff60105460a01c16156111875760405162461bcd60e51b815260206004820152601360248201527239b2b0b632b2103732b2b2399039b4b3b732b960691b6044820152606490fd5b50600163ffffffff6116a061018460043501612811565b16116110e1565b60405162461bcd60e51b81526020600482015260016024820152603b60f91b6044820152606490fd5b50600b5460ff1661109a565b5060ff600b5460081c1615611094565b50346101d957806003193601126101d9576101c060405161170c816126fd565b8281528260208201528260408201528260608201528260808201528260a08201528260c08201528260e08201528261010082015282610120820152826101408201528261016082015282610180820152826101a082015201526101e0604051611774816126fd565b600554908181526006546020820152600754604082015260085460608201526009546080820152600a5460a082015260ff600b54818116151560c084015260081c16151560e0820152600c54610100820152600d54610120820152600e54610140820152600f5461016082015260ff60105460018060a01b03811661018084015260a01c1615156101a082015260018060a01b03601154166101c08201526040519182526020810151602083015260408101516040830152606081015160608301526080810151608083015260a081015160a083015260c0810151151560c083015260e0810151151560e083015261010081015161010083015261012081015161012083015261014081015161014083015261016081015161016083015260018060a01b03610180820151166101808301526101a081015115156101a08301526101c060018060a01b03910151166101c0820152f35b50346101d957806003193601126101d9576002546040516001600160a01b039091168152602090f35b50346101d95760203660031901126101d95760ff60406020926004358152601984522054166040519015158152f35b50346101d957806003193601126101d95760018060a01b03808254169080600154169060025416926040516370a0823160e01b8152306004820152602081602481885afa9182156119fd57916119c7575b50906101209360ff926013546014549160155493600b5495604051988952602089015260408801526060870152608086015260a085015260c0840152818160081c16151560e0840152161515610100820152f35b9190506020823d6020116119f5575b816119e360209383612719565b810103126106e0579051610120611973565b3d91506119d6565b604051903d90823e3d90fd5b50346101d957806003193601126101d9576001546040516001600160a01b039091168152602090f35b50346101d95760208060031936011261070c5781546001600160a01b0391908216331480611b36575b15611b0e5780826002541692806010541690601a541693611a99600e54604051968794859463ed47484760e01b86526004359033906004880161273c565b038173__$b09c1b424bda5a32420411b5d4d25ea3ad$__5af4908115611b03578391611ad3575b83611acd836013546126a0565b60135580f35b905081813d8311611afc575b611ae98183612719565b810103126106e057611acd90515f611ac0565b503d611adf565b6040513d85823e3d90fd5b6064906040519062461bcd60e51b8252600482015260016024820152601960fa1b6044820152fd5b5060ff600b5460081c1615611a5b565b50346101d95760203660031901126101d957611b606125e9565b81546001600160a01b03918291611b7a908316331461266c565b1690611b878215156126ad565b600380546001600160a01b03198116841790915516307f90b15027ec4f6d941bf859fa7803c5aec5843863a492673762251ad8630cea658480a480f35b50346101d957806003193601126101d9576003546040516001600160a01b039091168152602090f35b50346101d95760403660031901126101d957611c076125e9565b815460243591906001600160a01b0390811633811480611d08575b15611cde578180600254169316928314611ca85782151580611c9f575b15611c6f5783611c4f918461284f565b835416916040519081525f8051602061291d83398151915260203092a480f35b60405162461bcd60e51b8152602060048201526008602482015267626164206172677360c01b6044820152606490fd5b50831515611c3f565b60405162461bcd60e51b815260206004820152600e60248201526d757365207769746864726177282960901b6044820152606490fd5b60405162461bcd60e51b81526020600482015260026024820152611ddd60f21b6044820152606490fd5b5060ff600b5460081c1615611c22565b50346101d95760203660031901126101d957611d326125e9565b81546001600160a01b0390611d4a908216331461266c565b601180546001600160a01b03198116938316938417909155821580611daa575b611d98575b16307f2ba043efd4b11fe877131cfa8d08b20b039b9516c07222f21ae3a269ae4d42788480a480f35b6010805460ff60a01b19169055611d6f565b5060ff60105460a01c16611d6a565b50346101d957806003193601126101d957546040516001600160a01b039091168152602090f35b50346101d957806003193601126101d957611e0560018060a01b03825416331461266c565b600b5460ff8160081c1615611e18575080f35b61ff00191661010017600b5533307f083420dc466907250e40526870710a8d5b092f48788139a5cdd663d591492df38380a380f35b50346101d957806003193601126101d9576020601c54604051908152f35b50346101d957806003193601126101d957601a546040516001600160a01b039091168152602090f35b50346101d95760203660031901126101d957600435611ebd60018060a01b03835416331461266c565b8015611f065780601c5542601d556201518042018042116106e45760207ff95761e177e65155556100d77d9c9af8e2e60a57b8cb1dbb8a4d55479eab2c5591604051908152a280f35b604051636db3628960e01b8152600490fd5b50346101d957806003193601126101d9576020601454604051908152f35b50346101d957806003193601126101d95780546001600160a01b0390811633148061206e575b1561204457601254825b818110611f71578380f35b82611f7b82612777565b90549060031b1c169083600254168214801561203c575b612033576040516370a0823160e01b8152306004820152916020908184602481845afa8015610986578790612005575b600194508015611ffd57611fda81888a54168461284f565b5f8051602061291d83398151915287895416936040519283523092a45b01611f66565b505050611ff7565b508184813d831161202c575b61201b8183612719565b810103126106e05760019351611fc2565b503d612011565b60019150611ff7565b508115611f92565b60405162461bcd60e51b8152602060048201526002602482015261776160f01b6044820152606490fd5b5060ff600b5460081c1615611f5c565b50346101d95760203660031901126101d95760043560018060a01b0360015416331480612120575b80612117575b156120ee5780825260176020524360408320556040514381527f79f65209505bfa18bbdbbc24ec90b61c11f058d54917d6d50c1be3735b807cc460203092a380f35b60405162461bcd60e51b81526020600482015260016024820152606360f81b6044820152606490fd5b508015156120ac565b5060ff60105460a01c166120a6565b50346101d957806003193601126101d95761215460018060a01b03825416331461266c565b601c54801561218c5781601c5581601d557fc1f670db3f6e294ef61b38fc9789e9e9d2c966ed0432c1bb0b6ae7ccea3ff5cc8280a280f35b6040516394d0a4f360e01b8152600490fd5b50346101d957806003193601126101d957602060405160c88152f35b50346101d957806003193601126101d9576020601d54604051908152f35b50346101d957806003193601126101d957604080519081016001600160401b0381118282101761071f5760405260028152602091611d8d60f21b602083015260405192839160208352835191826020850152815b83811061224d57505060408094508284010152601f80199101168101030190f35b80860182015187820160400152869450810161222c565b50346101d957806003193601126101d957602061ffff60185416604051908152f35b50346101d957806003193601126101d9576122ab60018060a01b03825416331461266c565b600b5460ff8160081c166122bd575080f35b61ff001916600b5533307ff2b28d738c890756648fec1132730916a2d3a6c0710dd78eee1f6cc7d2b4176b8380a380f35b50346106e05760203660031901126106e0575f546001600160a01b03906004359082163314806123ec575b156123c357601354818181106123b25750505f6013555b73__$b09c1b424bda5a32420411b5d4d25ea3ad$__90826002541691835f5416846010541694601a541693600f5494833b156106e0575f956123899160405198899788968796634e79799f60e11b88526004880161273c565b03915af480156123a75761239b575080f35b6123a591506126ea565b005b6040513d5f823e3d90fd5b6123bb916126dd565b601355612330565b60405162461bcd60e51b81526020600482015260016024820152607760f81b6044820152606490fd5b5060ff600b5460081c1615612319565b346106e0575f3660031901126106e0576020604051620151808152f35b346106e05760203660031901126106e0576124326125e9565b5f546001600160a01b0391829161244c908316331461266c565b16906124598215156126ad565b600180546001600160a01b03198116841790915516307ffb6e3b9089f982ec94f9efcf6f8358010c0aab7a69d739165d542659552c22c55f80a4005b346106e0575f3660031901126106e057602060405160018152f35b346106e0575f3660031901126106e0576124d460018060a01b035f5416331461266c565b601c54801561218c57601d5462015180810180911161253a57421061252857601b5481601b555f601c555f601d557f626e1d6887451ea3b6efe07c91b0afebc3f038e4593949126a8b2834291162785f80a3005b6040516309ef1e7f60e01b8152600490fd5b634e487b7160e01b5f52601160045260245ffd5b346106e0575f3660031901126106e057602060405160328152f35b346106e05760203660031901126106e05760043561ffff908181168091036106e05761259f60018060a01b035f5416331461266c565b60c88111610eca577f9491ea42c1465e36df0d2bc06e3923a649c7247d291883bbef1fbb6581280c6391604091601854918161ffff198416176018558351921682526020820152a1005b600435906001600160a01b03821682036106e057565b602435906001600160a01b03821682036106e057565b604435906001600160a01b03821682036106e057565b35906001600160a01b03821682036106e057565b9181601f840112156106e0578235916001600160401b0383116106e057602083818601950101116106e057565b1561267357565b60405162461bcd60e51b815260206004820152600560248201526437bbb732b960d91b6044820152606490fd5b9190820180921161253a57565b156126b457565b60405162461bcd60e51b81526020600482015260016024820152600360fc1b6044820152606490fd5b9190820391821161253a57565b6001600160401b03811161071f57604052565b6101e081019081106001600160401b0382111761071f57604052565b601f909101601f19168101906001600160401b0382119082101761071f57604052565b6001600160a01b039182168152918116602083015260408201929092529181166060830152909116608082015260a081019190915260c00190565b60125481101561278f5760125f5260205f2001905f90565b634e487b7160e01b5f52603260045260245ffd5b156127aa57565b60405162461bcd60e51b81526020600482015260016024820152600f60fb1b6044820152606490fd5b6044356001600160a01b03811681036106e05790565b356001600160a01b03811681036106e05790565b6102043563ffffffff811681036106e05790565b3563ffffffff811681036106e05790565b908060209392818452848401375f828201840152601f01601f1916010190565b519081151582036106e057565b60405163a9059cbb60e01b5f9081526001600160a01b039384166004526024949094529260209060448180855af160015f51148116156128ae575b836040521561289857505050565b635274afe760e01b835216600482015260249150fd5b60018115166128c457813b15153d15161661288a565b833d5f823e3d90fd5b5f805160206128fd83398151915260028154146128ea5760029055565b604051633ee5aeb560e01b8152600490fdfe9b779b17422d0df92223018b32b4d1fa46e071723d6817e2486d003becc55f00f398d9df386b57ebd82915250392590009e26ddacbed7a8c50a6016cc83d785ca2646970667358221220b0c125b23110096f42fc963c4c5dc11cb8d9fc81397655bd12719ec9c4e452fc64736f6c63430008180033",
  "linkReferences": {
    "contracts/libraries/IOLib.sol": {
      "IOLib": [
        {
          "length": 20,
          "start": 6895
        },
        {
          "length": 20,
          "start": 9092
        }
      ]
    },
    "contracts/libraries/SealedLib.sol": {
      "SealedLib": [
        {
          "length": 20,
          "start": 4517
        }
      ]
    },
    "contracts/v4/CrossChainLibV4.sol": {
      "CrossChainLibV4": [
        {
          "length": 20,
          "start": 1086
        }
      ]
    },
    "contracts/v4/ExecLibV4.sol": {
      "ExecLibV4": [
        {
          "length": 20,
          "start": 5270
        }
      ]
    }
  },
  "deployedLinkReferences": {
    "contracts/libraries/IOLib.sol": {
      "IOLib": [
        {
          "length": 20,
          "start": 6813
        },
        {
          "length": 20,
          "start": 9010
        }
      ]
    },
    "contracts/libraries/SealedLib.sol": {
      "SealedLib": [
        {
          "length": 20,
          "start": 4435
        }
      ]
    },
    "contracts/v4/CrossChainLibV4.sol": {
      "CrossChainLibV4": [
        {
          "length": 20,
          "start": 1004
        }
      ]
    },
    "contracts/v4/ExecLibV4.sol": {
      "ExecLibV4": [
        {
          "length": 20,
          "start": 5188
        }
      ]
    }
  }
}