{
  "_format": "hh-sol-artifact-1",
  "contractName": "AegisVaultFactoryV4",
  "sourceName": "contracts/v4/AegisVaultFactoryV4.sol",
  "abi": [
    {
      "inputs": [
        {
          "internalType": "address",
          "name": "_vaultImplementation",
          "type": "address"
        },
        {
          "internalType": "address",
          "name": "_executionRegistry",
          "type": "address"
        },
        {
          "internalType": "address",
          "name": "_protocolTreasury",
          "type": "address"
        }
      ],
      "stateMutability": "nonpayable",
      "type": "constructor"
    },
    {
      "inputs": [],
      "name": "CrossChainFeeCapTooHigh",
      "type": "error"
    },
    {
      "inputs": [],
      "name": "FactoryNotRegistryAdmin",
      "type": "error"
    },
    {
      "inputs": [],
      "name": "FailedDeployment",
      "type": "error"
    },
    {
      "inputs": [
        {
          "internalType": "uint256",
          "name": "balance",
          "type": "uint256"
        },
        {
          "internalType": "uint256",
          "name": "needed",
          "type": "uint256"
        }
      ],
      "name": "InsufficientBalance",
      "type": "error"
    },
    {
      "inputs": [],
      "name": "OnlyAdmin",
      "type": "error"
    },
    {
      "inputs": [],
      "name": "OnlyPendingAdmin",
      "type": "error"
    },
    {
      "inputs": [],
      "name": "ZeroAddress",
      "type": "error"
    },
    {
      "anonymous": false,
      "inputs": [
        {
          "indexed": true,
          "internalType": "address",
          "name": "currentAdmin",
          "type": "address"
        },
        {
          "indexed": true,
          "internalType": "address",
          "name": "pendingAdmin",
          "type": "address"
        }
      ],
      "name": "AdminTransferStarted",
      "type": "event"
    },
    {
      "anonymous": false,
      "inputs": [
        {
          "indexed": true,
          "internalType": "address",
          "name": "oldAdmin",
          "type": "address"
        },
        {
          "indexed": true,
          "internalType": "address",
          "name": "newAdmin",
          "type": "address"
        }
      ],
      "name": "AdminTransferred",
      "type": "event"
    },
    {
      "anonymous": false,
      "inputs": [
        {
          "indexed": true,
          "internalType": "address",
          "name": "oldTreasury",
          "type": "address"
        },
        {
          "indexed": true,
          "internalType": "address",
          "name": "newTreasury",
          "type": "address"
        }
      ],
      "name": "ProtocolTreasuryUpdated",
      "type": "event"
    },
    {
      "anonymous": false,
      "inputs": [
        {
          "indexed": true,
          "internalType": "address",
          "name": "vault",
          "type": "address"
        },
        {
          "indexed": true,
          "internalType": "address",
          "name": "owner",
          "type": "address"
        },
        {
          "indexed": true,
          "internalType": "address",
          "name": "operator",
          "type": "address"
        },
        {
          "indexed": false,
          "internalType": "address",
          "name": "baseAsset",
          "type": "address"
        },
        {
          "indexed": false,
          "internalType": "address",
          "name": "venue",
          "type": "address"
        },
        {
          "indexed": false,
          "internalType": "uint16",
          "name": "requestedMaxCrossChainFeeBps",
          "type": "uint16"
        },
        {
          "indexed": false,
          "internalType": "uint256",
          "name": "timestamp",
          "type": "uint256"
        },
        {
          "indexed": false,
          "internalType": "bytes32",
          "name": "acceptedManifestHash",
          "type": "bytes32"
        }
      ],
      "name": "VaultDeployed",
      "type": "event"
    },
    {
      "inputs": [],
      "name": "MAX_CROSS_CHAIN_FEE_BPS_CAP",
      "outputs": [
        {
          "internalType": "uint16",
          "name": "",
          "type": "uint16"
        }
      ],
      "stateMutability": "view",
      "type": "function"
    },
    {
      "inputs": [],
      "name": "acceptAdmin",
      "outputs": [],
      "stateMutability": "nonpayable",
      "type": "function"
    },
    {
      "inputs": [],
      "name": "admin",
      "outputs": [
        {
          "internalType": "address",
          "name": "",
          "type": "address"
        }
      ],
      "stateMutability": "view",
      "type": "function"
    },
    {
      "inputs": [
        {
          "internalType": "uint256",
          "name": "",
          "type": "uint256"
        }
      ],
      "name": "allVaults",
      "outputs": [
        {
          "internalType": "address",
          "name": "",
          "type": "address"
        }
      ],
      "stateMutability": "view",
      "type": "function"
    },
    {
      "inputs": [],
      "name": "cancelAdminTransfer",
      "outputs": [],
      "stateMutability": "nonpayable",
      "type": "function"
    },
    {
      "inputs": [
        {
          "internalType": "address",
          "name": "_operator",
          "type": "address"
        },
        {
          "internalType": "address",
          "name": "_baseAsset",
          "type": "address"
        },
        {
          "internalType": "address",
          "name": "_venue",
          "type": "address"
        },
        {
          "components": [
            {
              "internalType": "uint256",
              "name": "maxPositionBps",
              "type": "uint256"
            },
            {
              "internalType": "uint256",
              "name": "maxDailyLossBps",
              "type": "uint256"
            },
            {
              "internalType": "uint256",
              "name": "stopLossBps",
              "type": "uint256"
            },
            {
              "internalType": "uint256",
              "name": "cooldownSeconds",
              "type": "uint256"
            },
            {
              "internalType": "uint256",
              "name": "confidenceThresholdBps",
              "type": "uint256"
            },
            {
              "internalType": "uint256",
              "name": "maxActionsPerDay",
              "type": "uint256"
            },
            {
              "internalType": "bool",
              "name": "autoExecution",
              "type": "bool"
            },
            {
              "internalType": "bool",
              "name": "paused",
              "type": "bool"
            },
            {
              "internalType": "uint256",
              "name": "performanceFeeBps",
              "type": "uint256"
            },
            {
              "internalType": "uint256",
              "name": "managementFeeBps",
              "type": "uint256"
            },
            {
              "internalType": "uint256",
              "name": "entryFeeBps",
              "type": "uint256"
            },
            {
              "internalType": "uint256",
              "name": "exitFeeBps",
              "type": "uint256"
            },
            {
              "internalType": "address",
              "name": "feeRecipient",
              "type": "address"
            },
            {
              "internalType": "bool",
              "name": "sealedMode",
              "type": "bool"
            },
            {
              "internalType": "address",
              "name": "attestedSigner",
              "type": "address"
            }
          ],
          "internalType": "struct VaultPolicy",
          "name": "_policy",
          "type": "tuple"
        },
        {
          "internalType": "address[]",
          "name": "_allowedAssets",
          "type": "address[]"
        },
        {
          "internalType": "uint16",
          "name": "_maxCrossChainFeeBps",
          "type": "uint16"
        },
        {
          "internalType": "bytes32",
          "name": "_acceptedManifestHash",
          "type": "bytes32"
        }
      ],
      "name": "createVault",
      "outputs": [
        {
          "internalType": "address",
          "name": "vault",
          "type": "address"
        }
      ],
      "stateMutability": "nonpayable",
      "type": "function"
    },
    {
      "inputs": [],
      "name": "executionRegistry",
      "outputs": [
        {
          "internalType": "address",
          "name": "",
          "type": "address"
        }
      ],
      "stateMutability": "view",
      "type": "function"
    },
    {
      "inputs": [
        {
          "internalType": "address",
          "name": "_owner",
          "type": "address"
        }
      ],
      "name": "getOwnerVaults",
      "outputs": [
        {
          "internalType": "address[]",
          "name": "",
          "type": "address[]"
        }
      ],
      "stateMutability": "view",
      "type": "function"
    },
    {
      "inputs": [
        {
          "internalType": "uint256",
          "name": "index",
          "type": "uint256"
        }
      ],
      "name": "getVaultAt",
      "outputs": [
        {
          "internalType": "address",
          "name": "",
          "type": "address"
        }
      ],
      "stateMutability": "view",
      "type": "function"
    },
    {
      "inputs": [
        {
          "internalType": "address",
          "name": "",
          "type": "address"
        }
      ],
      "name": "isVault",
      "outputs": [
        {
          "internalType": "bool",
          "name": "",
          "type": "bool"
        }
      ],
      "stateMutability": "view",
      "type": "function"
    },
    {
      "inputs": [
        {
          "internalType": "address",
          "name": "",
          "type": "address"
        },
        {
          "internalType": "uint256",
          "name": "",
          "type": "uint256"
        }
      ],
      "name": "ownerVaults",
      "outputs": [
        {
          "internalType": "address",
          "name": "",
          "type": "address"
        }
      ],
      "stateMutability": "view",
      "type": "function"
    },
    {
      "inputs": [],
      "name": "pendingAdmin",
      "outputs": [
        {
          "internalType": "address",
          "name": "",
          "type": "address"
        }
      ],
      "stateMutability": "view",
      "type": "function"
    },
    {
      "inputs": [],
      "name": "protocolTreasury",
      "outputs": [
        {
          "internalType": "address",
          "name": "",
          "type": "address"
        }
      ],
      "stateMutability": "view",
      "type": "function"
    },
    {
      "inputs": [
        {
          "internalType": "address",
          "name": "",
          "type": "address"
        }
      ],
      "name": "requestedMaxCrossChainFeeBps",
      "outputs": [
        {
          "internalType": "uint16",
          "name": "",
          "type": "uint16"
        }
      ],
      "stateMutability": "view",
      "type": "function"
    },
    {
      "inputs": [
        {
          "internalType": "address",
          "name": "newTreasury",
          "type": "address"
        }
      ],
      "name": "setProtocolTreasury",
      "outputs": [],
      "stateMutability": "nonpayable",
      "type": "function"
    },
    {
      "inputs": [],
      "name": "totalVaults",
      "outputs": [
        {
          "internalType": "uint256",
          "name": "",
          "type": "uint256"
        }
      ],
      "stateMutability": "view",
      "type": "function"
    },
    {
      "inputs": [
        {
          "internalType": "address",
          "name": "newAdmin",
          "type": "address"
        }
      ],
      "name": "transferAdmin",
      "outputs": [],
      "stateMutability": "nonpayable",
      "type": "function"
    },
    {
      "inputs": [],
      "name": "vaultImplementation",
      "outputs": [
        {
          "internalType": "address",
          "name": "",
          "type": "address"
        }
      ],
      "stateMutability": "view",
      "type": "function"
    },
    {
      "inputs": [
        {
          "internalType": "address",
          "name": "",
          "type": "address"
        }
      ],
      "name": "vaultManifestHash",
      "outputs": [
        {
          "internalType": "bytes32",
          "name": "",
          "type": "bytes32"
        }
      ],
      "stateMutability": "view",
      "type": "function"
    },
    {
      "inputs": [],
      "name": "version",
      "outputs": [
        {
          "internalType": "string",
          "name": "",
          "type": "string"
        }
      ],
      "stateMutability": "pure",
      "type": "function"
    }
  ],
  "bytecode": "0x60c0346100f757601f610f1538819003918201601f19168301916001600160401b038311848410176100fb578084926060946040528339810103126100f7576100478161010f565b61005f60406100586020850161010f565b930161010f565b916001600160a01b0391808316156100e557828216156100e55760805260a05260018060a01b03199116815f5416175f5533906001541617600155604051610df19081610124823960805181818161013b0152610563015260a05181818161020c015281816105020152818161060d01528181610774015281816107c001526109c70152f35b60405163d92e233d60e01b8152600490fd5b5f80fd5b634e487b7160e01b5f52604160045260245ffd5b51906001600160a01b03821682036100f75756fe6080806040526004361015610012575f80fd5b5f905f3560e01c9081630c5a61f814610caf575080630c90d7b514610c585780630e18b68114610bde578063202a864b14610ba65780632678224714610b7e5780632e074ef014610b425780633a0f555d14610a955780635224b72a1461041e57806354fd4d501461037e5780635d4a782314610362578063652b9b411461032357806375829def1461029f5780637a98742d14610280578063803db96d146102595780638d6540231461023b5780638ee23d1f146101f65780639094a91e146101b25780639a387e701461016a578063bba48a90146101255763f851a440146100fa575f80fd5b346101225780600319360112610122576001546040516001600160a01b039091168152602090f35b80fd5b50346101225780600319360112610122576040517f00000000000000000000000000000000000000000000000000000000000000006001600160a01b03168152602090f35b50346101225780600319360112610122576001546001600160a01b031633036101a057600280546001600160a01b031916905580f35b604051634755657960e01b8152600490fd5b503461012257602036600319011261012257600435906003548210156101225760206101dd83610d44565b905460405160039290921b1c6001600160a01b03168152f35b50346101225780600319360112610122576040517f00000000000000000000000000000000000000000000000000000000000000006001600160a01b03168152602090f35b50346101225780600319360112610122576020600354604051908152f35b5034610122578060031936011261012257546040516001600160a01b039091168152602090f35b50346101225760203660031901126101225760206101dd600435610d44565b5034610122576020366003190112610122576102b9610d2e565b6001546001600160a01b0390811691338390036101a0571690811561031157600280546001600160a01b031916831790557fe5cd1c804f1c9cc6d7009e4c0fb532f0e2d8863524c3323a6b3790c3f80bf25c8380a380f35b60405163d92e233d60e01b8152600490fd5b50346101225760203660031901126101225760209060ff906040906001600160a01b0361034e610d2e565b168152600584522054166040519015158152f35b5034610122578060031936011261012257602060405160c88152f35b5034610122578060031936011261012257604080519081016001600160401b0381118282101761040a5760405260028152602091611d8d60f21b602083015260405192839160208352835191826020850152815b8381106103f357505060408094508284010152601f80199101168101030190f35b8086018201518782016040015286945081016103d2565b634e487b7160e01b5f52604160045260245ffd5b5034610983576102a036600319011261098357610439610d2e565b6024356001600160a01b038116810361098357604435916001600160a01b0383168303610983576101e0366063190112610983576001600160401b0361024435811061098357366023610244350112156109835761024435600401351161098357366024610244356004013560051b6102443501011161098357610264359261ffff84168403610983576001600160a01b03831615610311576001600160a01b038216156103115760c861ffff851611610a83576040516303e1469160e61b81526020816004817f00000000000000000000000000000000000000000000000000000000000000006001600160a01b03165afa90811561094a575f91610a41575b506001600160a01b0316301415806109ab575b610999576e5af43d82803e903d91602b57fd5bf37f0000000000000000000000000000000000000000000000000000000000000000763d602d80600a3d3981f3363d3d373d3d3d363d7300000062ffffff8260881c16175f5260781b1760205260018060a01b03603760095ff016938415610987575f546001600160a01b0316853b156109835760405190637589090d60e11b825233600483015260018060a01b038616602483015260018060a01b038516604483015260018060a01b037f000000000000000000000000000000000000000000000000000000000000000016606483015260018060a01b038416608483015260643560a483015260843560c483015260a43560e483015261010460c4358184015261012460e43581850152610144913582850152359081151580920361098357610164918285015235908115158092036109835761018491828501526101a49035818501526101c49135828501526101e4903581850152610204913582850152359060018060a01b0382168092036109835761022491828501523580151580910361098357610244840152356001600160a01b0381168103610983576001600160a01b031661026483015261030061028483015261024435600481013561030484015261032483019183916024015f5b610244356004013581106109555750505f9282916102a483015261ffff86166102c4830152610284356102e48301520381838a5af1801561094a57610937575b507f00000000000000000000000000000000000000000000000000000000000000006001600160a01b03163b15610928576040516312e4d14360e31b81526004810186905286908181602481837f00000000000000000000000000000000000000000000000000000000000000006001600160a01b03165af1801561092c57610914575b5050600354600160401b92908381101561040a578060016108199201600355610d44565b81549060031b9088821b9160018060a01b03901b19161790553387526004602052604087209687549384101561040a5761085e84602099600161ffff97018155610d70565b81549060031b9089821b9160018060a01b03901b19161790558681526005885260408120600160ff1982541617905560068852604081208484168519825416179055600788526040610284359120556040519460018060a01b0316855260018060a01b03168685015216604083015242606083015261028435608083015260018060a01b031690827fe1fc126137e226e5c8e2d921eb5861a1ab4b73d6b0b666ebf70ce610a633e85f60a03393a4604051908152f35b61091d90610d85565b61092857855f6107f5565b8580fd5b6040513d84823e3d90fd5b610942919650610d85565b5f945f610771565b6040513d5f823e3d90fd5b9192509283359060018060a01b03821680920361098357602081600193829352019401910190849291610731565b5f80fd5b60405163b06ebf3d60e01b8152600490fd5b604051635435e54d60e11b8152600490fd5b50604051637669254160e11b81523060048201526020816024817f00000000000000000000000000000000000000000000000000000000000000006001600160a01b03165afa90811561094a575f91610a06575b501561054d565b90506020813d602011610a39575b81610a2160209383610d98565b8101031261098357518015158103610983575f6109ff565b3d9150610a14565b90506020813d602011610a7b575b81610a5c60209383610d98565b8101031261098357516001600160a01b0381168103610983575f61053a565b3d9150610a4f565b6040516301eb6ebd60e01b8152600490fd5b3461098357602080600319360112610983576001600160a01b039081610ab9610d2e565b165f526004815260405f20604051918281835491828152019081935f52825f20905f5b818110610b2c5750505083610af2910384610d98565b6040519281840190828552518091526040840192915f5b828110610b165785850386f35b8351871685529381019392810192600101610b09565b8254881684529284019260019283019201610adc565b34610983576020366003190112610983576001600160a01b03610b63610d2e565b165f526006602052602061ffff60405f205416604051908152f35b34610983575f366003190112610983576002546040516001600160a01b039091168152602090f35b34610983576020366003190112610983576001600160a01b03610bc7610d2e565b165f526007602052602060405f2054604051908152f35b34610983575f366003190112610983576002546001600160a01b038082169133839003610c4657600180546001600160a01b031980821686179092559116600255167ff8ccb027dfcd135e000e9d45e6cc2d662578a8825d4c45b5e32e0adf67e79ec65f80a3005b60405163d1ec4b2360e01b8152600490fd5b3461098357604036600319011261098357610c71610d2e565b6024359060018060a01b038091165f52600460205260405f20805483101561098357602092610c9f91610d70565b9190546040519260031b1c168152f35b3461098357602036600319011261098357610cc8610d2e565b60015490916001600160a01b039182163303610d1f57505f80546001600160a01b031981169383169384178255909116907f0c5d18caa145415182f8ad3d2563da586609cec04ac8505274d87bc43f00b4a49080a3005b634755657960e01b8152600490fd5b600435906001600160a01b038216820361098357565b600354811015610d5c5760035f5260205f2001905f90565b634e487b7160e01b5f52603260045260245ffd5b8054821015610d5c575f5260205f2001905f90565b6001600160401b03811161040a57604052565b601f909101601f19168101906001600160401b0382119082101761040a5760405256fea26469706673582212208148429cc6b53748cccec89ec0b93d52619809726e11fb216afac52d71f0d29c64736f6c63430008180033",
  "linkReferences": {},
  "deployedLinkReferences": {}
}