{
  "_format": "hh-sol-artifact-1",
  "contractName": "AegisGovernor",
  "sourceName": "contracts/AegisGovernor.sol",
  "abi": [
    {
      "inputs": [
        {
          "internalType": "address[]",
          "name": "_owners",
          "type": "address[]"
        },
        {
          "internalType": "uint256",
          "name": "_threshold",
          "type": "uint256"
        }
      ],
      "stateMutability": "nonpayable",
      "type": "constructor"
    },
    {
      "inputs": [],
      "name": "AlreadyCanceled",
      "type": "error"
    },
    {
      "inputs": [],
      "name": "AlreadyConfirmed",
      "type": "error"
    },
    {
      "inputs": [],
      "name": "AlreadyExecuted",
      "type": "error"
    },
    {
      "inputs": [],
      "name": "AlreadyOwner",
      "type": "error"
    },
    {
      "inputs": [],
      "name": "CallFailed",
      "type": "error"
    },
    {
      "inputs": [],
      "name": "EmptyOwners",
      "type": "error"
    },
    {
      "inputs": [],
      "name": "InvalidOwner",
      "type": "error"
    },
    {
      "inputs": [],
      "name": "InvalidThreshold",
      "type": "error"
    },
    {
      "inputs": [],
      "name": "NotConfirmed",
      "type": "error"
    },
    {
      "inputs": [],
      "name": "NotEnoughConfirmations",
      "type": "error"
    },
    {
      "inputs": [],
      "name": "NotGovernor",
      "type": "error"
    },
    {
      "inputs": [],
      "name": "NotOwner",
      "type": "error"
    },
    {
      "inputs": [],
      "name": "NotProposer",
      "type": "error"
    },
    {
      "inputs": [],
      "name": "ProposalNotFound",
      "type": "error"
    },
    {
      "inputs": [],
      "name": "ProposalStale",
      "type": "error"
    },
    {
      "inputs": [],
      "name": "ReentrancyGuardReentrantCall",
      "type": "error"
    },
    {
      "anonymous": false,
      "inputs": [
        {
          "indexed": true,
          "internalType": "address",
          "name": "owner",
          "type": "address"
        }
      ],
      "name": "OwnerAdded",
      "type": "event"
    },
    {
      "anonymous": false,
      "inputs": [
        {
          "indexed": true,
          "internalType": "address",
          "name": "owner",
          "type": "address"
        }
      ],
      "name": "OwnerRemoved",
      "type": "event"
    },
    {
      "anonymous": false,
      "inputs": [
        {
          "indexed": true,
          "internalType": "uint256",
          "name": "id",
          "type": "uint256"
        },
        {
          "indexed": true,
          "internalType": "address",
          "name": "canceler",
          "type": "address"
        }
      ],
      "name": "ProposalCanceled",
      "type": "event"
    },
    {
      "anonymous": false,
      "inputs": [
        {
          "indexed": true,
          "internalType": "uint256",
          "name": "id",
          "type": "uint256"
        },
        {
          "indexed": true,
          "internalType": "address",
          "name": "owner",
          "type": "address"
        },
        {
          "indexed": false,
          "internalType": "uint256",
          "name": "confirmations",
          "type": "uint256"
        }
      ],
      "name": "ProposalConfirmed",
      "type": "event"
    },
    {
      "anonymous": false,
      "inputs": [
        {
          "indexed": true,
          "internalType": "uint256",
          "name": "id",
          "type": "uint256"
        },
        {
          "indexed": true,
          "internalType": "address",
          "name": "executor",
          "type": "address"
        },
        {
          "indexed": false,
          "internalType": "bool",
          "name": "success",
          "type": "bool"
        },
        {
          "indexed": false,
          "internalType": "bytes",
          "name": "returnData",
          "type": "bytes"
        }
      ],
      "name": "ProposalExecuted",
      "type": "event"
    },
    {
      "anonymous": false,
      "inputs": [
        {
          "indexed": true,
          "internalType": "uint256",
          "name": "id",
          "type": "uint256"
        },
        {
          "indexed": true,
          "internalType": "address",
          "name": "owner",
          "type": "address"
        },
        {
          "indexed": false,
          "internalType": "uint256",
          "name": "confirmations",
          "type": "uint256"
        }
      ],
      "name": "ProposalRevoked",
      "type": "event"
    },
    {
      "anonymous": false,
      "inputs": [
        {
          "indexed": true,
          "internalType": "uint256",
          "name": "id",
          "type": "uint256"
        },
        {
          "indexed": true,
          "internalType": "address",
          "name": "proposer",
          "type": "address"
        },
        {
          "indexed": true,
          "internalType": "address",
          "name": "target",
          "type": "address"
        },
        {
          "indexed": false,
          "internalType": "uint256",
          "name": "value",
          "type": "uint256"
        },
        {
          "indexed": false,
          "internalType": "string",
          "name": "description",
          "type": "string"
        }
      ],
      "name": "ProposalSubmitted",
      "type": "event"
    },
    {
      "anonymous": false,
      "inputs": [
        {
          "indexed": false,
          "internalType": "uint256",
          "name": "previous",
          "type": "uint256"
        },
        {
          "indexed": false,
          "internalType": "uint256",
          "name": "next",
          "type": "uint256"
        }
      ],
      "name": "ThresholdChanged",
      "type": "event"
    },
    {
      "inputs": [
        {
          "internalType": "address",
          "name": "newOwner",
          "type": "address"
        }
      ],
      "name": "addOwner",
      "outputs": [],
      "stateMutability": "nonpayable",
      "type": "function"
    },
    {
      "inputs": [
        {
          "internalType": "uint256",
          "name": "id",
          "type": "uint256"
        }
      ],
      "name": "cancel",
      "outputs": [],
      "stateMutability": "nonpayable",
      "type": "function"
    },
    {
      "inputs": [
        {
          "internalType": "uint256",
          "name": "newThreshold",
          "type": "uint256"
        }
      ],
      "name": "changeThreshold",
      "outputs": [],
      "stateMutability": "nonpayable",
      "type": "function"
    },
    {
      "inputs": [
        {
          "internalType": "uint256",
          "name": "id",
          "type": "uint256"
        }
      ],
      "name": "confirm",
      "outputs": [],
      "stateMutability": "nonpayable",
      "type": "function"
    },
    {
      "inputs": [
        {
          "internalType": "uint256",
          "name": "id",
          "type": "uint256"
        }
      ],
      "name": "execute",
      "outputs": [],
      "stateMutability": "nonpayable",
      "type": "function"
    },
    {
      "inputs": [],
      "name": "getOwners",
      "outputs": [
        {
          "internalType": "address[]",
          "name": "",
          "type": "address[]"
        }
      ],
      "stateMutability": "view",
      "type": "function"
    },
    {
      "inputs": [
        {
          "internalType": "uint256",
          "name": "id",
          "type": "uint256"
        }
      ],
      "name": "getProposal",
      "outputs": [
        {
          "components": [
            {
              "internalType": "address",
              "name": "target",
              "type": "address"
            },
            {
              "internalType": "uint256",
              "name": "value",
              "type": "uint256"
            },
            {
              "internalType": "bytes",
              "name": "data",
              "type": "bytes"
            },
            {
              "internalType": "string",
              "name": "description",
              "type": "string"
            },
            {
              "internalType": "address",
              "name": "proposer",
              "type": "address"
            },
            {
              "internalType": "uint256",
              "name": "confirmations",
              "type": "uint256"
            },
            {
              "internalType": "bool",
              "name": "executed",
              "type": "bool"
            },
            {
              "internalType": "bool",
              "name": "canceled",
              "type": "bool"
            },
            {
              "internalType": "uint256",
              "name": "createdAt",
              "type": "uint256"
            },
            {
              "internalType": "uint256",
              "name": "executedAt",
              "type": "uint256"
            },
            {
              "internalType": "uint256",
              "name": "generation",
              "type": "uint256"
            }
          ],
          "internalType": "struct AegisGovernor.Proposal",
          "name": "",
          "type": "tuple"
        }
      ],
      "stateMutability": "view",
      "type": "function"
    },
    {
      "inputs": [
        {
          "internalType": "uint256",
          "name": "",
          "type": "uint256"
        },
        {
          "internalType": "address",
          "name": "",
          "type": "address"
        }
      ],
      "name": "hasConfirmed",
      "outputs": [
        {
          "internalType": "bool",
          "name": "",
          "type": "bool"
        }
      ],
      "stateMutability": "view",
      "type": "function"
    },
    {
      "inputs": [
        {
          "internalType": "address",
          "name": "",
          "type": "address"
        }
      ],
      "name": "isOwner",
      "outputs": [
        {
          "internalType": "bool",
          "name": "",
          "type": "bool"
        }
      ],
      "stateMutability": "view",
      "type": "function"
    },
    {
      "inputs": [],
      "name": "ownerCount",
      "outputs": [
        {
          "internalType": "uint256",
          "name": "",
          "type": "uint256"
        }
      ],
      "stateMutability": "view",
      "type": "function"
    },
    {
      "inputs": [],
      "name": "ownerGeneration",
      "outputs": [
        {
          "internalType": "uint256",
          "name": "",
          "type": "uint256"
        }
      ],
      "stateMutability": "view",
      "type": "function"
    },
    {
      "inputs": [
        {
          "internalType": "uint256",
          "name": "",
          "type": "uint256"
        }
      ],
      "name": "owners",
      "outputs": [
        {
          "internalType": "address",
          "name": "",
          "type": "address"
        }
      ],
      "stateMutability": "view",
      "type": "function"
    },
    {
      "inputs": [
        {
          "internalType": "uint256",
          "name": "",
          "type": "uint256"
        }
      ],
      "name": "proposals",
      "outputs": [
        {
          "internalType": "address",
          "name": "target",
          "type": "address"
        },
        {
          "internalType": "uint256",
          "name": "value",
          "type": "uint256"
        },
        {
          "internalType": "bytes",
          "name": "data",
          "type": "bytes"
        },
        {
          "internalType": "string",
          "name": "description",
          "type": "string"
        },
        {
          "internalType": "address",
          "name": "proposer",
          "type": "address"
        },
        {
          "internalType": "uint256",
          "name": "confirmations",
          "type": "uint256"
        },
        {
          "internalType": "bool",
          "name": "executed",
          "type": "bool"
        },
        {
          "internalType": "bool",
          "name": "canceled",
          "type": "bool"
        },
        {
          "internalType": "uint256",
          "name": "createdAt",
          "type": "uint256"
        },
        {
          "internalType": "uint256",
          "name": "executedAt",
          "type": "uint256"
        },
        {
          "internalType": "uint256",
          "name": "generation",
          "type": "uint256"
        }
      ],
      "stateMutability": "view",
      "type": "function"
    },
    {
      "inputs": [
        {
          "internalType": "address",
          "name": "oldOwner",
          "type": "address"
        }
      ],
      "name": "removeOwner",
      "outputs": [],
      "stateMutability": "nonpayable",
      "type": "function"
    },
    {
      "inputs": [
        {
          "internalType": "uint256",
          "name": "id",
          "type": "uint256"
        }
      ],
      "name": "revokeConfirmation",
      "outputs": [],
      "stateMutability": "nonpayable",
      "type": "function"
    },
    {
      "inputs": [
        {
          "internalType": "address",
          "name": "target",
          "type": "address"
        },
        {
          "internalType": "uint256",
          "name": "value",
          "type": "uint256"
        },
        {
          "internalType": "bytes",
          "name": "data",
          "type": "bytes"
        },
        {
          "internalType": "string",
          "name": "description",
          "type": "string"
        }
      ],
      "name": "submit",
      "outputs": [
        {
          "internalType": "uint256",
          "name": "id",
          "type": "uint256"
        }
      ],
      "stateMutability": "nonpayable",
      "type": "function"
    },
    {
      "inputs": [],
      "name": "threshold",
      "outputs": [
        {
          "internalType": "uint256",
          "name": "",
          "type": "uint256"
        }
      ],
      "stateMutability": "view",
      "type": "function"
    },
    {
      "inputs": [],
      "name": "totalProposals",
      "outputs": [
        {
          "internalType": "uint256",
          "name": "",
          "type": "uint256"
        }
      ],
      "stateMutability": "view",
      "type": "function"
    },
    {
      "stateMutability": "payable",
      "type": "receive"
    }
  ],
  "bytecode": "0x604060808152346200028c576200175d803803806200001e8162000290565b92833981019082818303126200028c5780516001600160401b0392908381116200028c5782019181601f840112156200028c578251916020948311620001f2576005938360051b9086806200007581850162000290565b8097815201928201019283116200028c5790868094939201905b8282106200026057505050015191600191827f9b779b17422d0df92223018b32b4d1fa46e071723d6817e2486d003becc55f00558051156200024f578315801562000244575b6200023357859392915f91835b62000129575b857f3164947cf0f49f08dd0cd80e671535b1e11590d347c55dcaa97ba3c24a96b33a818988806002558251915f8352820152a1516114a69081620002b78239f35b909192939481518410156200022b575082821b81018601516001600160a01b0316928315801562000217575b62000206575f848152858852888120805460ff191687179055549068010000000000000000821015620001f257858201805f55821015620001de575f80805288812090920180546001600160a01b03191686179055859485927f994a936646fe87ffe4f1e469d3d6aa417d6b855598397f323de5b449f765f0c39080a2019190879594620000e2565b634e487b7160e01b5f52603260045260245ffd5b634e487b7160e01b5f52604160045260245ffd5b87516349e27cff60e01b8152600490fd5b50835f5284875260ff885f20541662000155565b9493620000e8565b855163aabd5a0960e01b8152600490fd5b5080518411620000d5565b855163bc47e37b60e01b8152600490fd5b815193945091929091906001600160a01b03811681036200028c5781528693929184019084016200008f565b5f80fd5b6040519190601f01601f191682016001600160401b03811183821017620001f25760405256fe6080604052600436101561001a575b3615610018575f80fd5b005b5f3560e01c8063013cf08b14610fa8578063025e7c2714610f6757806308aff93314610f195780630db0262214610efd578063173825d914610d9057806320ea8d8614610cbc5780632f54bf6e14610c7f5780633448f98e1461089957806340e58ee5146107e957806342cde4e8146107cc578063694e80c3146107505780637065cb4814610620578063a0e67e2b1461057c578063a78d80fc1461055f578063b657ccda14610542578063ba0179b5146104fe578063c7f758a8146103225763fe0d94c10361000e573461031e5760208060031936011261031e576004357f9b779b17422d0df92223018b32b4d1fa46e071723d6817e2486d003becc55f0091600283541461030c57600283556004548210156102fa5761013b8261109e565b50600681019081549260ff84166102e85760ff8460081c166102d6576009820154600354036102c4576005820154600254116102b257600192600160ff1980961617905542600883015560018060a01b038254169360026001840154930191604051945f9380546101ab816110ce565b946001821691821561029a575050600114610263575b50505050915f939181859403925af1903d1561025b573d906101e28261126d565b916101f060405193846111b3565b82523d5f602084013e5b7f5b95c0f5e6d519d900ab77a57984b69ce49a86f1aa8f07aee90312fccbdc0a3960405193159384158152604060208201528061023c339560408301906111d6565b0390a36102495760019055005b604051633204506f60e01b8152600490fd5b6060906101fa565b5f9081526020812093945091925b84831061028957505050908301905081835f806101c1565b805487840152918301918101610271565b16885250505050801515028301905081835f806101c1565b604051635c9885ab60e11b8152600490fd5b6040516345a749df60e01b8152600490fd5b604051632583715b60e11b8152600490fd5b604051630dc1019760e01b8152600490fd5b60405163635e873760e01b8152600490fd5b604051633ee5aeb560e01b8152600490fd5b5f80fd5b3461031e57602036600319011261031e576004355f61014060405161034681611197565b828152826020820152606060408201526060808201528260808201528260a08201528260c08201528260e0820152826101008201528261012082015201526004548110156102fa576103979061109e565b506009604051916103a783611197565b80546001600160a01b03168352600181015460208401526040516103d9816103d28160028601611106565b03826111b3565b60408401526040516103f2816103d28160038601611106565b606084015260018060a01b036004820154166080840152600581015460a084015260ff6006820154818116151560c086015260081c16151560e084015260078101546101008401526008810154610120840152015461014082015260405180916020825260018060a01b0381511660208301526020810151604083015260408101516101406104a8610492610160938460608801526101808701906111d6565b6060850151868203601f190160808801526111d6565b9260018060a01b0360808201511660a086015260a081015160c086015260c0810151151560e086015260e08101511515610100860152610100810151610120860152610120810151828601520151908301520390f35b3461031e57602036600319011261031e57335f52600160205260ff60405f20541615610530576100183360043561130d565b6040516330cd747160e01b8152600490fd5b3461031e575f36600319011261031e576020600354604051908152f35b3461031e575f36600319011261031e576020600454604051908152f35b3461031e575f36600319011261031e57604051805f54808352602080930180915f8052845f20905f5b868282106106035786866105bb828803836111b3565b60405192839281840190828552518091526040840192915f5b8281106105e357505050500390f35b83516001600160a01b0316855286955093810193928101926001016105d4565b83546001600160a01b0316855290930192600192830192016105a5565b3461031e57602036600319011261031e5761063961122a565b30330361073e576001600160a01b03811690811561072c57815f52600160205260ff60405f20541661071a57815f52600160205260405f20600160ff198254161790555f5490600160401b8210156107065761069d8260016106bb94015f55611214565b90919060018060a01b038084549260031b9316831b921b1916179055565b600354600181018091116106f2576003557f994a936646fe87ffe4f1e469d3d6aa417d6b855598397f323de5b449f765f0c35f80a2005b634e487b7160e01b5f52601160045260245ffd5b634e487b7160e01b5f52604160045260245ffd5b60405163600acf0760e11b8152600490fd5b6040516349e27cff60e01b8152600490fd5b604051633b8d9d7560e21b8152600490fd5b3461031e57602036600319011261031e5760043530330361073e57801580156107c2575b6107b0576002548160025560035490600182018092116106f2575f805160206114518339815191529260409260035582519182526020820152a1005b60405163aabd5a0960e01b8152600490fd5b505f548111610774565b3461031e575f36600319011261031e576020600254604051908152f35b3461031e57602036600319011261031e57600435335f52600160205260ff60405f20541615610530576004548110156102fa576108258161109e565b50600681019081549060ff82166102e85760ff8260081c166102d657600401546001600160a01b031633036108875761ff00191661010017905533907f253042c67143aeb6d431bb762d75e5905f18fa7850b7b9edb31fedb7c362d7e85f80a3005b604051637d1b73b960e01b8152600490fd5b3461031e57608036600319011261031e576108b261122a565b6044356001600160401b03811161031e576108d1903690600401611240565b916064356001600160401b03811161031e576108f1903690600401611240565b9091335f52600160205260ff60405f20541615610530576004549361093b600354916040519761092089611197565b6001600160a01b038516895260243560208a01523691611288565b604087015261094b368486611288565b60608701523360808701525f60a08701525f60c08701525f60e0870152426101008701525f610120870152610140860152600160401b84101561070657600184016004556109988461109e565b919091610c6c57855182546001600160a01b0319166001600160a01b03919091161782556020860151600183015560408601518051906001600160401b038211610706576109f6826109ed60028701546110ce565b600287016112be565b602090601f8311600114610c0257610a2592915f9183610bf7575b50508160011b915f199060031b1c19161790565b60028301555b60608601518051929091906001600160401b038411610706576020978793610a6386610a5a60038601546110ce565b600386016112be565b8990601f8711600114610b745791610aa6875f805160206114318339815191529798610140946009965f92610b695750508160011b915f199060031b1c19161790565b60038501555b6004840160018060a01b0360808301511660018060a01b031982541617905560a081015160058501556006840160c08201511515815460ff61ff0060e0860151151560081b1692169061ffff1916171790556101008101516007850155610120810151600885015501519101558360405195602435875260408988015281604088015260608701375f6060858701015260018060a01b0316936060813395601f80199101168101030190a4610b61338261130d565b604051908152f35b015190508e80610a11565b9590600384015f528a5f20965f5b601f1984168110610bdd5750825f8051602061143183398151915297986009959360019361014096601f19811610610bc5575b505050811b016003850155610aac565b01515f1960f88460031b161c191690558d8080610bb5565b8282015189556001909801978b9750918c01918c01610b82565b015190508980610a11565b90601f19831691600286015f5260205f20925f5b818110610c545750908460019594939210610c3c575b505050811b016002830155610a2b565b01515f1960f88460031b161c19169055888080610c2c565b92936020600181928786015181550195019301610c16565b634e487b7160e01b5f525f60045260245ffd5b3461031e57602036600319011261031e576001600160a01b03610ca061122a565b165f526001602052602060ff60405f2054166040519015158152f35b3461031e5760208060031936011261031e57600435335f526001825260ff60405f20541615610530576004548110156102fa57610cf88161109e565b5060ff6006820154166102e857815f526005835260405f20335f52835260ff60405f20541615610d7e575f828152600580855260408083203384528652909120805460ff191690550180545f198101939084116106f257837f3f832f6080f5cb7ee67ef7bc40d0d1c18ca7dab8f1efc93534e154dc71dc602c92556040519384523393a3005b604051637238834d60e11b8152600490fd5b3461031e57602036600319011261031e57610da961122a565b30330361073e5760018060a01b0380911690815f52600190600160205260ff60405f205416156105305760015f54111561072c57825f52600160205260405f2060ff1981541690555f54905f5b828110610e70575b505050506002545f54808211610e48575b5050600354600181018091116106f2576003557f58619076adf5bb0943d100ef88d52d7c3fd691b19d3a9071b555b651fbf418da5f80a2005b5f80516020611451833981519152918160409260025582519182526020820152a18180610e0f565b8185610e7b83611214565b929054600393841b1c1614610e9257508301610df6565b935090915f19918282019182116106f25761069d84610eb3610ec094611214565b905490881b1c1691611214565b5f548015610ee9570191610ed383611214565b81939154921b1b191690555f5581808080610dfe565b634e487b7160e01b5f52603160045260245ffd5b3461031e575f36600319011261031e5760205f54604051908152f35b3461031e57604036600319011261031e576024356001600160a01b0381169081900361031e576004355f52600560205260405f20905f52602052602060ff60405f2054166040519015158152f35b3461031e57602036600319011261031e576004355f5481101561031e57610f8f602091611214565b905460405160039290921b1c6001600160a01b03168152f35b3461031e57602036600319011261031e5760043560045481101561031e57610fcf9061109e565b50604060018060a01b0380835416926001810154908351610ff7816103d28160028601611106565b60ff8551946110148661100d8160038801611106565b03876111b3565b60048401541694600584015461106860068601549261105a600788015496600960088a0154990154998c519d8e9d8e6101609384938252602082015201528c01906111d6565b908a820360608c01526111d6565b96608089015260a0880152818116151560c088015260081c16151560e08601526101008501526101208401526101408301520390f35b6004548110156110ba5760045f52600a60205f20910201905f90565b634e487b7160e01b5f52603260045260245ffd5b90600182811c921680156110fc575b60208310146110e857565b634e487b7160e01b5f52602260045260245ffd5b91607f16916110dd565b80545f9392611114826110ce565b918282526020936001916001811690815f14611178575060011461113a575b5050505050565b90939495505f92919252835f2092845f945b83861061116457505050500101905f80808080611133565b80548587018301529401938590820161114c565b60ff19168685015250505090151560051b010191505f80808080611133565b61016081019081106001600160401b0382111761070657604052565b601f909101601f19168101906001600160401b0382119082101761070657604052565b91908251928382525f5b848110611200575050825f602080949584010152601f8019910116010190565b6020818301810151848301820152016111e0565b5f548110156110ba575f805260205f2001905f90565b600435906001600160a01b038216820361031e57565b9181601f8401121561031e578235916001600160401b03831161031e576020838186019501011161031e57565b6001600160401b03811161070657601f01601f191660200190565b9291926112948261126d565b916112a260405193846111b3565b82948184528183011161031e578281602093845f960137010152565b601f82116112cb57505050565b5f5260205f20906020601f840160051c83019310611303575b601f0160051c01905b8181106112f8575050565b5f81556001016112ed565b90915081906112e4565b60048054821015611421576113218261109e565b50600681015460ff81166114105760081c60ff16611400576009810154600354036113f057825f526005602052604090815f209460018060a01b031694855f5260205260ff825f2054166113e257600590845f5281602052825f20865f52602052825f20600160ff1982541617905501805492600184018094116113cf575091602091817f308ad906964cedf35891b97b13030426ac5ba813e4878b350d116ec7981c20cd945551908152a3565b601190634e487b7160e01b5f525260245ffd5b5051635f8a9c0b60e01b8152fd5b506040516345a749df60e01b8152fd5b50604051632583715b60e11b8152fd5b604051630dc1019760e01b81528390fd5b60405163635e873760e01b8152fdfee3f003e87812768a3dd5f0d5e70ecbfacabc9d5cc0f8176e9eb426fdfd94d33d3164947cf0f49f08dd0cd80e671535b1e11590d347c55dcaa97ba3c24a96b33aa26469706673582212205c6fb9cc22461b4acd264316761743247194199ebf5b01e4089d4e8e8db0c03164736f6c63430008180033",
  "linkReferences": {},
  "deployedLinkReferences": {}
}