{
  "_format": "hh-sol-artifact-1",
  "contractName": "AegisVault_v3",
  "sourceName": "contracts/AegisVault_v3.sol",
  "abi": [
    {
      "inputs": [],
      "name": "CrossChain_AlreadyFinalized",
      "type": "error"
    },
    {
      "inputs": [],
      "name": "CrossChain_AssetNotWhitelisted",
      "type": "error"
    },
    {
      "inputs": [],
      "name": "CrossChain_AutoExecOff",
      "type": "error"
    },
    {
      "inputs": [],
      "name": "CrossChain_BadSig",
      "type": "error"
    },
    {
      "inputs": [],
      "name": "CrossChain_BadVault",
      "type": "error"
    },
    {
      "inputs": [],
      "name": "CrossChain_Cooldown",
      "type": "error"
    },
    {
      "inputs": [],
      "name": "CrossChain_DailyActionsExceeded",
      "type": "error"
    },
    {
      "inputs": [],
      "name": "CrossChain_Expired",
      "type": "error"
    },
    {
      "inputs": [],
      "name": "CrossChain_FeeCapTooHigh",
      "type": "error"
    },
    {
      "inputs": [],
      "name": "CrossChain_FeeTooHigh",
      "type": "error"
    },
    {
      "inputs": [],
      "name": "CrossChain_FillReused",
      "type": "error"
    },
    {
      "inputs": [],
      "name": "CrossChain_LowConfidence",
      "type": "error"
    },
    {
      "inputs": [],
      "name": "CrossChain_MinOut",
      "type": "error"
    },
    {
      "inputs": [],
      "name": "CrossChain_MissingKhalaniId",
      "type": "error"
    },
    {
      "inputs": [],
      "name": "CrossChain_NotSettled",
      "type": "error"
    },
    {
      "inputs": [],
      "name": "CrossChain_Paused",
      "type": "error"
    },
    {
      "inputs": [],
      "name": "CrossChain_PositionTooLarge",
      "type": "error"
    },
    {
      "inputs": [],
      "name": "ReentrancyGuardReentrantCall",
      "type": "error"
    },
    {
      "inputs": [
        {
          "internalType": "address",
          "name": "token",
          "type": "address"
        }
      ],
      "name": "SafeERC20FailedOperation",
      "type": "error"
    },
    {
      "anonymous": false,
      "inputs": [
        {
          "indexed": true,
          "internalType": "address",
          "name": "vault",
          "type": "address"
        },
        {
          "indexed": true,
          "internalType": "address",
          "name": "oldSigner",
          "type": "address"
        },
        {
          "indexed": true,
          "internalType": "address",
          "name": "newSigner",
          "type": "address"
        }
      ],
      "name": "AttestedSignerUpdated",
      "type": "event"
    },
    {
      "anonymous": false,
      "inputs": [
        {
          "indexed": true,
          "internalType": "bytes32",
          "name": "intentHash",
          "type": "bytes32"
        },
        {
          "indexed": true,
          "internalType": "address",
          "name": "assetIn",
          "type": "address"
        },
        {
          "indexed": true,
          "internalType": "address",
          "name": "assetOut",
          "type": "address"
        },
        {
          "indexed": false,
          "internalType": "uint256",
          "name": "amountIn",
          "type": "uint256"
        },
        {
          "indexed": false,
          "internalType": "uint256",
          "name": "amountOut",
          "type": "uint256"
        },
        {
          "indexed": false,
          "internalType": "uint16",
          "name": "feeBps",
          "type": "uint16"
        }
      ],
      "name": "CrossChainFillAccepted",
      "type": "event"
    },
    {
      "anonymous": false,
      "inputs": [
        {
          "indexed": true,
          "internalType": "address",
          "name": "vault",
          "type": "address"
        },
        {
          "indexed": true,
          "internalType": "address",
          "name": "oldExecutor",
          "type": "address"
        },
        {
          "indexed": true,
          "internalType": "address",
          "name": "newExecutor",
          "type": "address"
        }
      ],
      "name": "ExecutorUpdated",
      "type": "event"
    },
    {
      "anonymous": false,
      "inputs": [
        {
          "indexed": true,
          "internalType": "address",
          "name": "vault",
          "type": "address"
        },
        {
          "indexed": true,
          "internalType": "bytes32",
          "name": "commitHash",
          "type": "bytes32"
        },
        {
          "indexed": false,
          "internalType": "uint256",
          "name": "commitBlock",
          "type": "uint256"
        }
      ],
      "name": "IntentCommitted",
      "type": "event"
    },
    {
      "anonymous": false,
      "inputs": [
        {
          "indexed": false,
          "internalType": "uint16",
          "name": "oldFeeBps",
          "type": "uint16"
        },
        {
          "indexed": false,
          "internalType": "uint16",
          "name": "newFeeBps",
          "type": "uint16"
        }
      ],
      "name": "MaxCrossChainFeeBpsUpdated",
      "type": "event"
    },
    {
      "anonymous": false,
      "inputs": [
        {
          "indexed": true,
          "internalType": "address",
          "name": "vault",
          "type": "address"
        },
        {
          "indexed": true,
          "internalType": "bytes32",
          "name": "intentHash",
          "type": "bytes32"
        },
        {
          "indexed": true,
          "internalType": "address",
          "name": "attestedSigner",
          "type": "address"
        },
        {
          "indexed": false,
          "internalType": "bytes32",
          "name": "attestationReportHash",
          "type": "bytes32"
        }
      ],
      "name": "SealedIntentExecuted",
      "type": "event"
    },
    {
      "anonymous": false,
      "inputs": [
        {
          "indexed": true,
          "internalType": "address",
          "name": "vault",
          "type": "address"
        },
        {
          "indexed": true,
          "internalType": "address",
          "name": "token",
          "type": "address"
        },
        {
          "indexed": true,
          "internalType": "address",
          "name": "recipient",
          "type": "address"
        },
        {
          "indexed": false,
          "internalType": "uint256",
          "name": "amount",
          "type": "uint256"
        }
      ],
      "name": "TokenWithdrawn",
      "type": "event"
    },
    {
      "anonymous": false,
      "inputs": [
        {
          "indexed": true,
          "internalType": "address",
          "name": "vault",
          "type": "address"
        },
        {
          "indexed": true,
          "internalType": "address",
          "name": "owner",
          "type": "address"
        },
        {
          "indexed": false,
          "internalType": "address",
          "name": "baseAsset",
          "type": "address"
        }
      ],
      "name": "VaultCreated",
      "type": "event"
    },
    {
      "anonymous": false,
      "inputs": [
        {
          "indexed": true,
          "internalType": "address",
          "name": "vault",
          "type": "address"
        },
        {
          "indexed": true,
          "internalType": "address",
          "name": "triggeredBy",
          "type": "address"
        }
      ],
      "name": "VaultPaused",
      "type": "event"
    },
    {
      "anonymous": false,
      "inputs": [
        {
          "indexed": true,
          "internalType": "address",
          "name": "vault",
          "type": "address"
        },
        {
          "indexed": true,
          "internalType": "address",
          "name": "triggeredBy",
          "type": "address"
        }
      ],
      "name": "VaultUnpaused",
      "type": "event"
    },
    {
      "anonymous": false,
      "inputs": [
        {
          "indexed": true,
          "internalType": "address",
          "name": "vault",
          "type": "address"
        },
        {
          "indexed": true,
          "internalType": "address",
          "name": "oldVenue",
          "type": "address"
        },
        {
          "indexed": true,
          "internalType": "address",
          "name": "newVenue",
          "type": "address"
        }
      ],
      "name": "VenueUpdated",
      "type": "event"
    },
    {
      "inputs": [],
      "name": "DEFAULT_MAX_CROSS_CHAIN_FEE_BPS",
      "outputs": [
        {
          "internalType": "uint16",
          "name": "",
          "type": "uint16"
        }
      ],
      "stateMutability": "view",
      "type": "function"
    },
    {
      "inputs": [],
      "name": "MAX_ALLOWED_ASSETS",
      "outputs": [
        {
          "internalType": "uint256",
          "name": "",
          "type": "uint256"
        }
      ],
      "stateMutability": "view",
      "type": "function"
    },
    {
      "inputs": [],
      "name": "MAX_CROSS_CHAIN_FEE_BPS_CAP",
      "outputs": [
        {
          "internalType": "uint16",
          "name": "",
          "type": "uint16"
        }
      ],
      "stateMutability": "view",
      "type": "function"
    },
    {
      "inputs": [
        {
          "components": [
            {
              "internalType": "address",
              "name": "vault",
              "type": "address"
            },
            {
              "internalType": "address",
              "name": "assetIn",
              "type": "address"
            },
            {
              "internalType": "address",
              "name": "assetOut",
              "type": "address"
            },
            {
              "internalType": "uint256",
              "name": "amountIn",
              "type": "uint256"
            },
            {
              "internalType": "uint256",
              "name": "minAmountOut",
              "type": "uint256"
            },
            {
              "internalType": "uint256",
              "name": "createdAt",
              "type": "uint256"
            },
            {
              "internalType": "uint256",
              "name": "expiresAt",
              "type": "uint256"
            },
            {
              "internalType": "uint16",
              "name": "confidenceBps",
              "type": "uint16"
            },
            {
              "internalType": "uint16",
              "name": "riskScoreBps",
              "type": "uint16"
            },
            {
              "internalType": "bytes32",
              "name": "attestationReportHash",
              "type": "bytes32"
            },
            {
              "internalType": "uint64",
              "name": "routeChainId",
              "type": "uint64"
            },
            {
              "internalType": "uint16",
              "name": "maxFeeBps",
              "type": "uint16"
            },
            {
              "internalType": "bytes32",
              "name": "routePolicyHash",
              "type": "bytes32"
            },
            {
              "internalType": "bytes32",
              "name": "khalaniIntentId",
              "type": "bytes32"
            },
            {
              "internalType": "uint256",
              "name": "prevBalance",
              "type": "uint256"
            }
          ],
          "internalType": "struct CrossChainLib.CrossChainIntent",
          "name": "intent",
          "type": "tuple"
        },
        {
          "internalType": "bytes",
          "name": "teeSignature",
          "type": "bytes"
        },
        {
          "internalType": "uint256",
          "name": "actualAmountOut",
          "type": "uint256"
        },
        {
          "internalType": "uint256",
          "name": "actualFeeBps",
          "type": "uint256"
        }
      ],
      "name": "acceptCrossChainFill",
      "outputs": [],
      "stateMutability": "nonpayable",
      "type": "function"
    },
    {
      "inputs": [],
      "name": "baseAsset",
      "outputs": [
        {
          "internalType": "contract IERC20",
          "name": "",
          "type": "address"
        }
      ],
      "stateMutability": "view",
      "type": "function"
    },
    {
      "inputs": [
        {
          "internalType": "bytes32",
          "name": "commitHash",
          "type": "bytes32"
        }
      ],
      "name": "commitIntent",
      "outputs": [],
      "stateMutability": "nonpayable",
      "type": "function"
    },
    {
      "inputs": [
        {
          "internalType": "bytes32",
          "name": "",
          "type": "bytes32"
        }
      ],
      "name": "consumedKhalaniIds",
      "outputs": [
        {
          "internalType": "bool",
          "name": "",
          "type": "bool"
        }
      ],
      "stateMutability": "view",
      "type": "function"
    },
    {
      "inputs": [
        {
          "internalType": "uint256",
          "name": "amount",
          "type": "uint256"
        }
      ],
      "name": "deposit",
      "outputs": [],
      "stateMutability": "nonpayable",
      "type": "function"
    },
    {
      "inputs": [
        {
          "components": [
            {
              "internalType": "bytes32",
              "name": "intentHash",
              "type": "bytes32"
            },
            {
              "internalType": "address",
              "name": "vault",
              "type": "address"
            },
            {
              "internalType": "address",
              "name": "assetIn",
              "type": "address"
            },
            {
              "internalType": "address",
              "name": "assetOut",
              "type": "address"
            },
            {
              "internalType": "uint256",
              "name": "amountIn",
              "type": "uint256"
            },
            {
              "internalType": "uint256",
              "name": "minAmountOut",
              "type": "uint256"
            },
            {
              "internalType": "uint256",
              "name": "createdAt",
              "type": "uint256"
            },
            {
              "internalType": "uint256",
              "name": "expiresAt",
              "type": "uint256"
            },
            {
              "internalType": "uint256",
              "name": "confidenceBps",
              "type": "uint256"
            },
            {
              "internalType": "uint256",
              "name": "riskScoreBps",
              "type": "uint256"
            },
            {
              "internalType": "bytes32",
              "name": "attestationReportHash",
              "type": "bytes32"
            },
            {
              "internalType": "string",
              "name": "reasonSummary",
              "type": "string"
            }
          ],
          "internalType": "struct ExecutionIntent",
          "name": "intent",
          "type": "tuple"
        },
        {
          "internalType": "bytes",
          "name": "sig",
          "type": "bytes"
        }
      ],
      "name": "executeIntent",
      "outputs": [],
      "stateMutability": "nonpayable",
      "type": "function"
    },
    {
      "inputs": [],
      "name": "executor",
      "outputs": [
        {
          "internalType": "address",
          "name": "",
          "type": "address"
        }
      ],
      "stateMutability": "view",
      "type": "function"
    },
    {
      "inputs": [],
      "name": "getAllowedAssets",
      "outputs": [
        {
          "internalType": "address[]",
          "name": "",
          "type": "address[]"
        }
      ],
      "stateMutability": "view",
      "type": "function"
    },
    {
      "inputs": [],
      "name": "getPolicy",
      "outputs": [
        {
          "components": [
            {
              "internalType": "uint256",
              "name": "maxPositionBps",
              "type": "uint256"
            },
            {
              "internalType": "uint256",
              "name": "maxDailyLossBps",
              "type": "uint256"
            },
            {
              "internalType": "uint256",
              "name": "stopLossBps",
              "type": "uint256"
            },
            {
              "internalType": "uint256",
              "name": "cooldownSeconds",
              "type": "uint256"
            },
            {
              "internalType": "uint256",
              "name": "confidenceThresholdBps",
              "type": "uint256"
            },
            {
              "internalType": "uint256",
              "name": "maxActionsPerDay",
              "type": "uint256"
            },
            {
              "internalType": "bool",
              "name": "autoExecution",
              "type": "bool"
            },
            {
              "internalType": "bool",
              "name": "paused",
              "type": "bool"
            },
            {
              "internalType": "uint256",
              "name": "performanceFeeBps",
              "type": "uint256"
            },
            {
              "internalType": "uint256",
              "name": "managementFeeBps",
              "type": "uint256"
            },
            {
              "internalType": "uint256",
              "name": "entryFeeBps",
              "type": "uint256"
            },
            {
              "internalType": "uint256",
              "name": "exitFeeBps",
              "type": "uint256"
            },
            {
              "internalType": "address",
              "name": "feeRecipient",
              "type": "address"
            },
            {
              "internalType": "bool",
              "name": "sealedMode",
              "type": "bool"
            },
            {
              "internalType": "address",
              "name": "attestedSigner",
              "type": "address"
            }
          ],
          "internalType": "struct VaultPolicy",
          "name": "",
          "type": "tuple"
        }
      ],
      "stateMutability": "view",
      "type": "function"
    },
    {
      "inputs": [],
      "name": "getVaultSummary",
      "outputs": [
        {
          "internalType": "address",
          "name": "",
          "type": "address"
        },
        {
          "internalType": "address",
          "name": "",
          "type": "address"
        },
        {
          "internalType": "address",
          "name": "",
          "type": "address"
        },
        {
          "internalType": "uint256",
          "name": "",
          "type": "uint256"
        },
        {
          "internalType": "uint256",
          "name": "",
          "type": "uint256"
        },
        {
          "internalType": "uint256",
          "name": "",
          "type": "uint256"
        },
        {
          "internalType": "uint256",
          "name": "",
          "type": "uint256"
        },
        {
          "internalType": "bool",
          "name": "",
          "type": "bool"
        },
        {
          "internalType": "bool",
          "name": "",
          "type": "bool"
        }
      ],
      "stateMutability": "view",
      "type": "function"
    },
    {
      "inputs": [
        {
          "internalType": "address",
          "name": "_owner",
          "type": "address"
        },
        {
          "internalType": "address",
          "name": "_baseAsset",
          "type": "address"
        },
        {
          "internalType": "address",
          "name": "_executor",
          "type": "address"
        },
        {
          "internalType": "address",
          "name": "_registry",
          "type": "address"
        },
        {
          "internalType": "address",
          "name": "_venue",
          "type": "address"
        },
        {
          "components": [
            {
              "internalType": "uint256",
              "name": "maxPositionBps",
              "type": "uint256"
            },
            {
              "internalType": "uint256",
              "name": "maxDailyLossBps",
              "type": "uint256"
            },
            {
              "internalType": "uint256",
              "name": "stopLossBps",
              "type": "uint256"
            },
            {
              "internalType": "uint256",
              "name": "cooldownSeconds",
              "type": "uint256"
            },
            {
              "internalType": "uint256",
              "name": "confidenceThresholdBps",
              "type": "uint256"
            },
            {
              "internalType": "uint256",
              "name": "maxActionsPerDay",
              "type": "uint256"
            },
            {
              "internalType": "bool",
              "name": "autoExecution",
              "type": "bool"
            },
            {
              "internalType": "bool",
              "name": "paused",
              "type": "bool"
            },
            {
              "internalType": "uint256",
              "name": "performanceFeeBps",
              "type": "uint256"
            },
            {
              "internalType": "uint256",
              "name": "managementFeeBps",
              "type": "uint256"
            },
            {
              "internalType": "uint256",
              "name": "entryFeeBps",
              "type": "uint256"
            },
            {
              "internalType": "uint256",
              "name": "exitFeeBps",
              "type": "uint256"
            },
            {
              "internalType": "address",
              "name": "feeRecipient",
              "type": "address"
            },
            {
              "internalType": "bool",
              "name": "sealedMode",
              "type": "bool"
            },
            {
              "internalType": "address",
              "name": "attestedSigner",
              "type": "address"
            }
          ],
          "internalType": "struct VaultPolicy",
          "name": "_policy",
          "type": "tuple"
        },
        {
          "internalType": "address[]",
          "name": "assets_",
          "type": "address[]"
        },
        {
          "internalType": "address",
          "name": "_protocolTreasury",
          "type": "address"
        },
        {
          "internalType": "uint16",
          "name": "_maxCrossChainFeeBps",
          "type": "uint16"
        }
      ],
      "name": "initialize",
      "outputs": [],
      "stateMutability": "nonpayable",
      "type": "function"
    },
    {
      "inputs": [],
      "name": "lastExecutionTime",
      "outputs": [
        {
          "internalType": "uint256",
          "name": "",
          "type": "uint256"
        }
      ],
      "stateMutability": "view",
      "type": "function"
    },
    {
      "inputs": [],
      "name": "maxCrossChainFeeBps",
      "outputs": [
        {
          "internalType": "uint16",
          "name": "",
          "type": "uint16"
        }
      ],
      "stateMutability": "view",
      "type": "function"
    },
    {
      "inputs": [],
      "name": "owner",
      "outputs": [
        {
          "internalType": "address",
          "name": "",
          "type": "address"
        }
      ],
      "stateMutability": "view",
      "type": "function"
    },
    {
      "inputs": [],
      "name": "pause",
      "outputs": [],
      "stateMutability": "nonpayable",
      "type": "function"
    },
    {
      "inputs": [],
      "name": "protocolTreasury",
      "outputs": [
        {
          "internalType": "address",
          "name": "",
          "type": "address"
        }
      ],
      "stateMutability": "view",
      "type": "function"
    },
    {
      "inputs": [
        {
          "internalType": "address",
          "name": "newSigner",
          "type": "address"
        }
      ],
      "name": "setAttestedSigner",
      "outputs": [],
      "stateMutability": "nonpayable",
      "type": "function"
    },
    {
      "inputs": [
        {
          "internalType": "address",
          "name": "newExecutor",
          "type": "address"
        }
      ],
      "name": "setExecutor",
      "outputs": [],
      "stateMutability": "nonpayable",
      "type": "function"
    },
    {
      "inputs": [
        {
          "internalType": "uint16",
          "name": "newFeeBps",
          "type": "uint16"
        }
      ],
      "name": "setMaxCrossChainFeeBps",
      "outputs": [],
      "stateMutability": "nonpayable",
      "type": "function"
    },
    {
      "inputs": [
        {
          "internalType": "address",
          "name": "newVenue",
          "type": "address"
        }
      ],
      "name": "setVenue",
      "outputs": [],
      "stateMutability": "nonpayable",
      "type": "function"
    },
    {
      "inputs": [],
      "name": "totalDeposited",
      "outputs": [
        {
          "internalType": "uint256",
          "name": "",
          "type": "uint256"
        }
      ],
      "stateMutability": "view",
      "type": "function"
    },
    {
      "inputs": [],
      "name": "unpause",
      "outputs": [],
      "stateMutability": "nonpayable",
      "type": "function"
    },
    {
      "inputs": [],
      "name": "venue",
      "outputs": [
        {
          "internalType": "address",
          "name": "",
          "type": "address"
        }
      ],
      "stateMutability": "view",
      "type": "function"
    },
    {
      "inputs": [],
      "name": "version",
      "outputs": [
        {
          "internalType": "string",
          "name": "",
          "type": "string"
        }
      ],
      "stateMutability": "pure",
      "type": "function"
    },
    {
      "inputs": [
        {
          "internalType": "uint256",
          "name": "amount",
          "type": "uint256"
        }
      ],
      "name": "withdraw",
      "outputs": [],
      "stateMutability": "nonpayable",
      "type": "function"
    },
    {
      "inputs": [],
      "name": "withdrawAllNonBase",
      "outputs": [],
      "stateMutability": "nonpayable",
      "type": "function"
    },
    {
      "inputs": [
        {
          "internalType": "address",
          "name": "token",
          "type": "address"
        },
        {
          "internalType": "uint256",
          "name": "amount",
          "type": "uint256"
        }
      ],
      "name": "withdrawToken",
      "outputs": [],
      "stateMutability": "nonpayable",
      "type": "function"
    }
  ],
  "bytecode": "0x6080806040523461003a5760017f9b779b17422d0df92223018b32b4d1fa46e071723d6817e2486d003becc55f0055612547908161003f8239f35b5f80fdfe60806040526004361015610011575f80fd5b5f803560e01c80630fc2c0ec1461214f5780630fe480a8146121345780631c3c0ea8146120b85780632e1a7d4d14611faa5780633f4ba83a14611f42578063423dda7814611f2057806354fd4d5014611e945780635d4a782314611e785780635f19390914611dc75780636d80487714611c7f57806373b379bd14611c61578063803db96d14611c385780638456cb5914611bcb5780638da5cb5b14611ba457806393ca03c214611b035780639e281a98146119d8578063a1ae1b7a14611210578063a270a737146111e7578063af8794fe14611169578063b6b55f2514611055578063c34c08e51461102c578063c55e4a0e14610f45578063ca68cd5d14610f16578063cc186f7c146108ec578063cdf456e1146108c3578063ce1e4626146106e5578063d7fdd6ff14610248578063db2636261461022c578063f066eea0146101845763ff50abdc14610164575f80fd5b346101815780600319360112610181576020601354604051908152f35b80fd5b5034610181578060031936011261018157604051809160125490818352602080930180926012835284832090835b81811061020f57505050846101c8910385612306565b60405193838594850191818652518092526040850193925b8281106101ef57505050500390f35b83516001600160a01b0316855286955093810193928101926001016101e0565b82546001600160a01b0316845292860192600192830192016101b2565b50346101815780600319360112610181576020604051600a8152f35b5034610181576102e0366003190112610181576102636121cf565b61026b6121e5565b906102746121fb565b6064356001600160a01b03811681036105db57608435906001600160a01b03821682036105db576101e03660a31901126106dd576001600160401b036102843581106106e157366023610284350112156106e1576102843560040135116106dd57366024610284356004013560051b610284350101116106dd576102a435926001600160a01b03841684036105db576102c4359261ffff841684036105db5787546001600160a01b0381166106b2576001600160a01b0387161515806106a0575b8061068e575b8061067c575b61034a90612286565b610bb86101a43511158061066d575b8061065f575b80610651575b1561062857600a6102843560040135116105f15760c861ffff8616116105df576001600160a01b03199081166001600160a01b03888116919091178a55600380548316938216939093179092556002805482168984161790556001805482169383169390931790925560048054909216921691909117905560a43560055560c43560065560e435600755610104356008556101243560095561014435600a5561016435801515908190036105db57600b54610184358015158091036105db5761ff0060ff9160081b1692169061ffff19161717600b556101a435600c556101c435600d556101e435600e5561020435600f556102243560018060a01b0381168091036105db5760105490610244358015158091036105db576001600160a81b03199092161760a09190911b60ff60a01b1617601055610264356001600160a01b03811681036105db57601180546001600160a01b0319166001600160a01b0392909216919091179055845b610284356004013581106105695750620151804201804211610555576016556018805461ffff191661ffff909216919091179055601a80546001600160a01b0319166001600160a01b039283161790556040519281168352169030907f897c133dfbfe1f6239e98b4ffd7e4f6c86a62350a131a7a37790419f58af02f990602090a380f35b634e487b7160e01b86526011600452602486fd5b61057d60248260051b6102843501016123d6565b6012805490600160401b8210156105c757816105a191600180969594019055612364565b819291549060031b91858060a01b0316821b91858060a01b03901b1916179055016104d0565b634e487b7160e01b89526041600452602489fd5b5f80fd5b60405163e062961760e01b8152600490fd5b60405162461bcd60e51b815260206004820152600f60248201526e746f6f206d616e792061737365747360881b6044820152606490fd5b60405162461bcd60e51b81526020600482015260016024820152603360f91b6044820152606490fd5b5060c8610204351115610365565b5060c86101e435111561035f565b506101f46101c4351115610359565b506001600160a01b0384161515610341565b506001600160a01b038316151561033b565b506001600160a01b0388161515610335565b606460405162461bcd60e51b81526020600482015260046024820152631a5b9a5d60e21b6044820152fd5b8580fd5b8680fd5b50346101815780600319360112610181576101c0604051610705816122ea565b8281528260208201528260408201528260608201528260808201528260a08201528260c08201528260e08201528261010082015282610120820152826101408201528261016082015282610180820152826101a082015201526101e060405161076d816122ea565b600554908181526006546020820152600754604082015260085460608201526009546080820152600a5460a082015260ff600b54818116151560c084015260081c16151560e0820152600c54610100820152600d54610120820152600e54610140820152600f5461016082015260ff60105460018060a01b03811661018084015260a01c1615156101a082015260018060a01b03601154166101c08201526040519182526020810151602083015260408101516040830152606081015160608301526080810151608083015260a081015160a083015260c0810151151560c083015260e0810151151560e083015261010081015161010083015261012081015161012083015261014081015161014083015261016081015161016083015260018060a01b03610180820151166101808301526101a081015115156101a08301526101c060018060a01b03910151166101c0820152f35b50346101815780600319360112610181576002546040516001600160a01b039091168152602090f35b5034610181576040366003190112610181576001600160401b03600435116101815761018060043536036003190112610181576024356001600160401b038111610d0a5761093e903690600401612225565b6109466124a2565b6001546001600160a01b0316331480610f06575b80610efa575b61096990612390565b6109776024600435016123d6565b306001600160a01b0390911603610ed1576011546001600160a01b0316908115610e85576020916109e26040519485938493637a6478eb60e11b85526004356004013560048601526101446004350135602486015260448501526080606485015260848401916123ea565b038173__$a4a7e8d2af9db14b36ef6d5b96bc1b0d4a$__5af4908115610d16578291610e53575b5060ff60105460a01c16610d89575b505b601654421015610d5c575b601454601554904260145560018201808311610d485760155560035460025460048054601354604051635109f1ef60e01b81526102e0818501528335938401356102e4820152966001600160a01b03958616969195909491939281169291811691610a9290602401612211565b166103048801526001600160a01b03610aaf600435604401612211565b166103248801526001600160a01b03610acc600435606401612211565b16610344880152600435608481013561036489015260a481013561038489015260c48101356103a489015260e48101356103c48901526101048101356103e489015261012481013561040489015261014481013561042489015261016481013590360360221901811215610d44576004350160018060401b03600482013511610d4457600481013536036024820113610d445790610b868896959493926101806104448901526104648801906024600482013591016123ea565b60055460248801526006546044880152600754606488015260088054608489015260095460a4890152600a5460c4890152600b5460ff818116151560e48b0152911c81161515610104890152600c54610124890152600d54610144890152600e54610164890152600f546101848901526010546001600160a01b038082166101a48b015260a09190911c90911615156101c4890152601154166101e48801528681036003190161020488015260128054808352908b52602091820198917fbb8a6a4669ba250d26cd7a459eca9d215f8307e33aebe50379bc5a3617ec344491908c905b828210610d2157505050506102248701526102448601526102648501526102848401526102a48301526102c48201526040918190038173__$728c7de47dfc5f98523f70dd303df54e76$__5af48015610d1657610cd6575b5060015f805160206124d28339815191525580f35b6040813d604011610d0e575b81610cef60409383612306565b81010312610d0a576020610d03910161240a565b505f610cc1565b5080fd5b3d9150610ce2565b6040513d84823e3d90fd5b83546001600160a01b03168c529a8b019a8c9a5060019384019390910190610c69565b8880fd5b634e487b7160e01b84526011600452602484fd5b80601555620151804201804211610d7557601655610a25565b634e487b7160e01b82526011600452602482fd5b808252601760205260408220548015159081610e29575b5015610dff578152601760205280604081205560018060a01b03601154166040516101446004350135815260043560040135907f1a6434e9b6653fb533348ebac4eb90b194369ca56f59817e8bf3dc9a7fa6026b60203092a45f610a18565b60405162461bcd60e51b815260206004820152600260248201526131b960f11b6044820152606490fd5b905060018101809111610e3f574310155f610da0565b634e487b7160e01b83526011600452602483fd5b90506020813d602011610e7d575b81610e6e60209383612306565b810103126105db57515f610a09565b3d9150610e61565b50505060ff60105460a01c1615610a1a5760405162461bcd60e51b815260206004820152601360248201527239b2b0b632b2103732b2b2399039b4b3b732b960691b6044820152606490fd5b60405162461bcd60e51b81526020600482015260016024820152603b60f91b6044820152606490fd5b50600b5460ff16610960565b5060ff600b5460081c161561095a565b50346101815760203660031901126101815760ff60406020926004358152601984522054166040519015158152f35b503461018157806003193601126101815760018060a01b03808254169080600154169060025416926040516370a0823160e01b8152306004820152602081602481885afa9182156110205791610fea575b50906101209360ff926013546014549160155493600b5495604051988952602089015260408801526060870152608086015260a085015260c0840152818160081c16151560e0840152161515610100820152f35b9190506020823d602011611018575b8161100660209383612306565b810103126105db579051610120610f96565b3d9150610ff9565b604051903d90823e3d90fd5b50346101815780600319360112610181576001546040516001600160a01b039091168152602090f35b503461018157602080600319360112610d0a5781546001600160a01b0391908216331480611159575b156111315780826002541692806010541690601a5416936110bc600e54604051968794859463ed47484760e01b865260043590339060048801612329565b038173__$b09c1b424bda5a32420411b5d4d25ea3ad$__5af49081156111265783916110f6575b836110f083601354612417565b60135580f35b905081813d831161111f575b61110c8183612306565b810103126105db576110f090515f6110e3565b503d611102565b6040513d85823e3d90fd5b6064906040519062461bcd60e51b8252600482015260016024820152601960fa1b6044820152fd5b5060ff600b5460081c161561107e565b5034610181576020366003190112610181576111836121cf565b81546001600160a01b0391829161119d9083163314612252565b16906111aa821515612286565b600380546001600160a01b03198116841790915516307f90b15027ec4f6d941bf859fa7803c5aec5843863a492673762251ad8630cea658480a480f35b50346101815780600319360112610181576003546040516001600160a01b039091168152602090f35b50346101815736600319016102408112610d0a576101e013610181576101e4356001600160401b038111610d0a5761124c903690600401612225565b906112556124a2565b61126a60018060a01b03600154163314612390565b600b5460ff8160081c166119c65760ff16156119b4576004356001600160a01b038116908190036105db5730036119a25760c43542116119905760115460405163dd750cf360e01b815292906001600160a01b03908116906112ca6121cf565b1660048501526112d86121e5565b6001600160a01b0390811660248601526112f06121fb565b1660448501526064356064850152608435608485015260a43560a485015260c43560c485015261ffff60e4351660e435036105db5761ffff60e4351660e485015261010480359061ffff82168092036105db578501526101248035908501526001600160401b036101448035918216918290036106e1578501526101649283359361ffff851685036105db57856113d3602093829361ffff8916908401526101848035908401526101a4968735888501526101c496873588860152306101e4860152466102048601526102248501526102606102448501526102648401916123ea565b038173__$a59e0cec324f4f167ee947d495b2fed63c$__5af4938415611985578594611951575b5060048054604051633fc6a14f60e11b81529182018690526001600160a01b03169390602081602481885afa90811561194657879161190c575b506118fa578235156118e85782358652601960205260ff6040872054166118d65761146460145460085490612417565b42106118c45760095461ffff60e43516106118b257601654421015611885575b601554600a541115611873578586601254905b81811061182f575b50501561181d5760055480151580611812575b6117c6575b5061ffff16610224351180156117b4575b6117a25760843561020435106117905760249060206001600160a01b036114ed6123c0565b16604051938480926370a0823160e01b82523060048301525afa918215611785578692611751575b5080358210918215611738575b5050611726576115306123c0565b6002546001600160a01b0391821691161461170f575b358352601960205260408320805460ff19166001179055803b1561170b5782604051638056616f60e01b8152836004820152306024820152818160448183875af18015610d16576116f7575b505060405160c08101916001600160401b038311828410176116e357849260405283825260208201838152604083019260643584526060810190610204358252608081019142835260a082019460018652803b156116df57879560c4948793604051998a988997631474be9560e01b895251600489015251602488015251604487015251606486015251608485015251151560a48401525af18015610d16576116cb575b50504260145560155460018101809111610e3f576015556024356001600160a01b038116908190036105db5761166a6123c0565b917f83e14375f2b9d888ee9e3f961fa395f706e89cbee2b157b85ccd312c9ad747fe606060405194606435865261020435602087015261ffff6102243516604087015260018060a01b031694a460015f805160206124d28339815191525580f35b6116d4906122d7565b610d0a57815f611636565b8780fd5b634e487b7160e01b5f52604160045260245ffd5b611700906122d7565b61170b57825f611592565b8280fd5b61171e61020435601354612417565b601355611546565b60405163fc2e0c2560e01b8152600490fd5b6102043592506117499135906122b6565b105f80611522565b9091506020813d60201161177d575b8161176d60209383612306565b810103126105db5751905f611515565b3d9150611760565b6040513d88823e3d90fd5b60405163112c9cfb60e11b8152600490fd5b60405163230121ad60e21b8152600490fd5b5061ffff6018541661022435116114c8565b60135480828102048214811517156117fe57612710910204606435116117ec575f6114b7565b604051631679546760e21b8152600490fd5b634e487b7160e01b88526011600452602488fd5b5060135415156114b2565b6040516359149fe160e01b8152600490fd5b61183881612364565b9054906001600160a01b0361184b6123c0565b169160018060a01b039160031b1c161461186757600101611497565b50505060015f8061149f565b604051630f5c83c760e31b8152600490fd5b8560155562015180420180421161189e57601655611484565b634e487b7160e01b87526011600452602487fd5b604051630c155c9160e01b8152600490fd5b60405163730285e360e11b8152600490fd5b60405163855e291160e01b8152600490fd5b604051630211be4160e31b8152600490fd5b6040516319f1320360e11b8152600490fd5b90506020813d60201161193e575b8161192760209383612306565b810103126106e1576119389061240a565b5f611434565b3d915061191a565b6040513d89823e3d90fd5b9093506020813d60201161197d575b8161196d60209383612306565b810103126105db5751925f6113fa565b3d9150611960565b6040513d87823e3d90fd5b604051631b82de1960e01b8152600490fd5b6040516327768b7b60e11b8152600490fd5b604051636cf5944560e01b8152600490fd5b6040516303b11c1760e51b8152600490fd5b5034610181576040366003190112610181576119f26121cf565b815460243591906001600160a01b0390811633811480611af3575b15611ac9578180600254169316928314611a935782151580611a8a575b15611a5a5783611a3a9184612424565b835416916040519081525f805160206124f283398151915260203092a480f35b60405162461bcd60e51b8152602060048201526008602482015267626164206172677360c01b6044820152606490fd5b50831515611a2a565b60405162461bcd60e51b815260206004820152600e60248201526d757365207769746864726177282960901b6044820152606490fd5b60405162461bcd60e51b81526020600482015260026024820152611ddd60f21b6044820152606490fd5b5060ff600b5460081c1615611a0d565b503461018157602036600319011261018157611b1d6121cf565b81546001600160a01b0390611b359082163314612252565b601180546001600160a01b03198116938316938417909155821580611b95575b611b83575b16307f2ba043efd4b11fe877131cfa8d08b20b039b9516c07222f21ae3a269ae4d42788480a480f35b6010805460ff60a01b19169055611b5a565b5060ff60105460a01c16611b55565b5034610181578060031936011261018157546040516001600160a01b039091168152602090f35b5034610181578060031936011261018157611bf060018060a01b038254163314612252565b600b5460ff8160081c1615611c03575080f35b61ff00191661010017600b5533307f083420dc466907250e40526870710a8d5b092f48788139a5cdd663d591492df38380a380f35b5034610181578060031936011261018157601a546040516001600160a01b039091168152602090f35b50346101815780600319360112610181576020601454604051908152f35b503461018157806003193601126101815780546001600160a01b03908116331480611db7575b15611d8d57601254825b818110611cba578380f35b82611cc482612364565b90549060031b1c1690836002541682148015611d85575b611d7c576040516370a0823160e01b8152306004820152916020908184602481845afa8015611946578790611d4e575b600194508015611d4657611d2381888a541684612424565b5f805160206124f283398151915287895416936040519283523092a45b01611caf565b505050611d40565b508184813d8311611d75575b611d648183612306565b810103126105db5760019351611d0b565b503d611d5a565b60019150611d40565b508115611cdb565b60405162461bcd60e51b8152602060048201526002602482015261776160f01b6044820152606490fd5b5060ff600b5460081c1615611ca5565b50346101815760203660031901126101815760043560018060a01b0360015416331480611e69575b80611e60575b15611e375780825260176020524360408320556040514381527f79f65209505bfa18bbdbbc24ec90b61c11f058d54917d6d50c1be3735b807cc460203092a380f35b60405162461bcd60e51b81526020600482015260016024820152606360f81b6044820152606490fd5b50801515611df5565b5060ff60105460a01c16611def565b5034610181578060031936011261018157602060405160c88152f35b5034610181578060031936011261018157604080519081016001600160401b038111828210176116e3576040526002815260209161763360f01b602083015260405192839160208352835191826020850152815b838110611f0957505060408094508284010152601f80199101168101030190f35b808601820151878201604001528694508101611ee8565b5034610181578060031936011261018157602061ffff60185416604051908152f35b5034610181578060031936011261018157611f6760018060a01b038254163314612252565b600b5460ff8160081c16611f79575080f35b61ff001916600b5533307ff2b28d738c890756648fec1132730916a2d3a6c0710dd78eee1f6cc7d2b4176b8380a380f35b50346105db5760203660031901126105db575f546001600160a01b03906004359082163314806120a8575b1561207f576013548181811061206e5750505f6013555b73__$b09c1b424bda5a32420411b5d4d25ea3ad$__90826002541691835f5416846010541694601a541693600f5494833b156105db575f956120459160405198899788968796634e79799f60e11b885260048801612329565b03915af4801561206357612057575080f35b61206191506122d7565b005b6040513d5f823e3d90fd5b612077916122b6565b601355611fec565b60405162461bcd60e51b81526020600482015260016024820152607760f81b6044820152606490fd5b5060ff600b5460081c1615611fd5565b346105db5760203660031901126105db576120d16121cf565b5f546001600160a01b039182916120eb9083163314612252565b16906120f8821515612286565b600180546001600160a01b03198116841790915516307ffb6e3b9089f982ec94f9efcf6f8358010c0aab7a69d739165d542659552c22c55f80a4005b346105db575f3660031901126105db57602060405160328152f35b346105db5760203660031901126105db5760043561ffff908181168091036105db5761218560018060a01b035f54163314612252565b60c881116105df577f9491ea42c1465e36df0d2bc06e3923a649c7247d291883bbef1fbb6581280c6391604091601854918161ffff198416176018558351921682526020820152a1005b600435906001600160a01b03821682036105db57565b602435906001600160a01b03821682036105db57565b604435906001600160a01b03821682036105db57565b35906001600160a01b03821682036105db57565b9181601f840112156105db578235916001600160401b0383116105db57602083818601950101116105db57565b1561225957565b60405162461bcd60e51b815260206004820152600560248201526437bbb732b960d91b6044820152606490fd5b1561228d57565b60405162461bcd60e51b81526020600482015260016024820152600360fc1b6044820152606490fd5b919082039182116122c357565b634e487b7160e01b5f52601160045260245ffd5b6001600160401b0381116116e357604052565b6101e081019081106001600160401b038211176116e357604052565b601f909101601f19168101906001600160401b038211908210176116e357604052565b6001600160a01b039182168152918116602083015260408201929092529181166060830152909116608082015260a081019190915260c00190565b60125481101561237c5760125f5260205f2001905f90565b634e487b7160e01b5f52603260045260245ffd5b1561239757565b60405162461bcd60e51b81526020600482015260016024820152600f60fb1b6044820152606490fd5b6044356001600160a01b03811681036105db5790565b356001600160a01b03811681036105db5790565b908060209392818452848401375f828201840152601f01601f1916010190565b519081151582036105db57565b919082018092116122c357565b60405163a9059cbb60e01b5f9081526001600160a01b039384166004526024949094529260209060448180855af160015f5114811615612483575b836040521561246d57505050565b635274afe760e01b835216600482015260249150fd5b600181151661249957813b15153d15161661245f565b833d5f823e3d90fd5b5f805160206124d283398151915260028154146124bf5760029055565b604051633ee5aeb560e01b8152600490fdfe9b779b17422d0df92223018b32b4d1fa46e071723d6817e2486d003becc55f00f398d9df386b57ebd82915250392590009e26ddacbed7a8c50a6016cc83d785ca2646970667358221220ffdbb9d8ad3055ced6fc67e7bbd3aa39e5b7885ece8eb24f231fab55fa9366cf64736f6c63430008180033",
  "linkReferences": {
    "contracts/libraries/CrossChainLib.sol": {
      "CrossChainLib": [
        {
          "length": 20,
          "start": 5142
        }
      ]
    },
    "contracts/libraries/ExecLib.sol": {
      "ExecLib": [
        {
          "length": 20,
          "start": 3296
        }
      ]
    },
    "contracts/libraries/IOLib.sol": {
      "IOLib": [
        {
          "length": 20,
          "start": 4351
        },
        {
          "length": 20,
          "start": 8237
        }
      ]
    },
    "contracts/libraries/SealedLib.sol": {
      "SealedLib": [
        {
          "length": 20,
          "start": 2597
        }
      ]
    }
  },
  "deployedLinkReferences": {
    "contracts/libraries/CrossChainLib.sol": {
      "CrossChainLib": [
        {
          "length": 20,
          "start": 5079
        }
      ]
    },
    "contracts/libraries/ExecLib.sol": {
      "ExecLib": [
        {
          "length": 20,
          "start": 3233
        }
      ]
    },
    "contracts/libraries/IOLib.sol": {
      "IOLib": [
        {
          "length": 20,
          "start": 4288
        },
        {
          "length": 20,
          "start": 8174
        }
      ]
    },
    "contracts/libraries/SealedLib.sol": {
      "SealedLib": [
        {
          "length": 20,
          "start": 2534
        }
      ]
    }
  }
}