{
  "_format": "hh-sol-artifact-1",
  "contractName": "InsurancePool",
  "sourceName": "contracts/InsurancePool.sol",
  "abi": [
    {
      "inputs": [
        {
          "internalType": "address",
          "name": "_payoutToken",
          "type": "address"
        },
        {
          "internalType": "address",
          "name": "_arbitrator",
          "type": "address"
        }
      ],
      "stateMutability": "nonpayable",
      "type": "constructor"
    },
    {
      "inputs": [],
      "name": "AlreadyHasOpenClaim",
      "type": "error"
    },
    {
      "inputs": [],
      "name": "AlreadyPaid",
      "type": "error"
    },
    {
      "inputs": [],
      "name": "ClaimNotFound",
      "type": "error"
    },
    {
      "inputs": [],
      "name": "InsufficientFunds",
      "type": "error"
    },
    {
      "inputs": [],
      "name": "NotArbitrator",
      "type": "error"
    },
    {
      "inputs": [],
      "name": "NotAuthorized",
      "type": "error"
    },
    {
      "inputs": [],
      "name": "ReasonTooLong",
      "type": "error"
    },
    {
      "inputs": [],
      "name": "ReentrancyGuardReentrantCall",
      "type": "error"
    },
    {
      "inputs": [
        {
          "internalType": "address",
          "name": "token",
          "type": "address"
        }
      ],
      "name": "SafeERC20FailedOperation",
      "type": "error"
    },
    {
      "inputs": [],
      "name": "ZeroAddress",
      "type": "error"
    },
    {
      "inputs": [],
      "name": "ZeroAmount",
      "type": "error"
    },
    {
      "anonymous": false,
      "inputs": [
        {
          "indexed": true,
          "internalType": "address",
          "name": "previous",
          "type": "address"
        },
        {
          "indexed": true,
          "internalType": "address",
          "name": "next",
          "type": "address"
        }
      ],
      "name": "ArbitratorChanged",
      "type": "event"
    },
    {
      "anonymous": false,
      "inputs": [
        {
          "indexed": true,
          "internalType": "uint256",
          "name": "claimId",
          "type": "uint256"
        },
        {
          "indexed": true,
          "internalType": "address",
          "name": "claimant",
          "type": "address"
        },
        {
          "indexed": false,
          "internalType": "uint256",
          "name": "amount",
          "type": "uint256"
        }
      ],
      "name": "ClaimPaid",
      "type": "event"
    },
    {
      "anonymous": false,
      "inputs": [
        {
          "indexed": true,
          "internalType": "uint256",
          "name": "claimId",
          "type": "uint256"
        },
        {
          "indexed": true,
          "internalType": "address",
          "name": "claimant",
          "type": "address"
        },
        {
          "indexed": false,
          "internalType": "uint256",
          "name": "amount",
          "type": "uint256"
        },
        {
          "indexed": false,
          "internalType": "string",
          "name": "reason",
          "type": "string"
        }
      ],
      "name": "ClaimSubmitted",
      "type": "event"
    },
    {
      "anonymous": false,
      "inputs": [
        {
          "indexed": true,
          "internalType": "address",
          "name": "from",
          "type": "address"
        },
        {
          "indexed": false,
          "internalType": "uint256",
          "name": "amount",
          "type": "uint256"
        },
        {
          "indexed": false,
          "internalType": "string",
          "name": "source",
          "type": "string"
        }
      ],
      "name": "Deposited",
      "type": "event"
    },
    {
      "anonymous": false,
      "inputs": [
        {
          "indexed": true,
          "internalType": "address",
          "name": "notifier",
          "type": "address"
        },
        {
          "indexed": false,
          "internalType": "bool",
          "name": "allowed",
          "type": "bool"
        }
      ],
      "name": "NotifierAuthorized",
      "type": "event"
    },
    {
      "anonymous": false,
      "inputs": [
        {
          "indexed": true,
          "internalType": "address",
          "name": "from",
          "type": "address"
        },
        {
          "indexed": false,
          "internalType": "uint256",
          "name": "amount",
          "type": "uint256"
        }
      ],
      "name": "SlashReceived",
      "type": "event"
    },
    {
      "inputs": [],
      "name": "MAX_REASON_LENGTH",
      "outputs": [
        {
          "internalType": "uint256",
          "name": "",
          "type": "uint256"
        }
      ],
      "stateMutability": "view",
      "type": "function"
    },
    {
      "inputs": [],
      "name": "arbitrator",
      "outputs": [
        {
          "internalType": "address",
          "name": "",
          "type": "address"
        }
      ],
      "stateMutability": "view",
      "type": "function"
    },
    {
      "inputs": [
        {
          "internalType": "address",
          "name": "",
          "type": "address"
        }
      ],
      "name": "authorizedNotifiers",
      "outputs": [
        {
          "internalType": "bool",
          "name": "",
          "type": "bool"
        }
      ],
      "stateMutability": "view",
      "type": "function"
    },
    {
      "inputs": [],
      "name": "balance",
      "outputs": [
        {
          "internalType": "uint256",
          "name": "",
          "type": "uint256"
        }
      ],
      "stateMutability": "view",
      "type": "function"
    },
    {
      "inputs": [],
      "name": "claimCount",
      "outputs": [
        {
          "internalType": "uint256",
          "name": "",
          "type": "uint256"
        }
      ],
      "stateMutability": "view",
      "type": "function"
    },
    {
      "inputs": [
        {
          "internalType": "uint256",
          "name": "",
          "type": "uint256"
        }
      ],
      "name": "claims",
      "outputs": [
        {
          "internalType": "address",
          "name": "claimant",
          "type": "address"
        },
        {
          "internalType": "uint256",
          "name": "amount",
          "type": "uint256"
        },
        {
          "internalType": "string",
          "name": "reason",
          "type": "string"
        },
        {
          "internalType": "uint256",
          "name": "submittedAt",
          "type": "uint256"
        },
        {
          "internalType": "bool",
          "name": "paid",
          "type": "bool"
        },
        {
          "internalType": "uint256",
          "name": "paidAt",
          "type": "uint256"
        }
      ],
      "stateMutability": "view",
      "type": "function"
    },
    {
      "inputs": [
        {
          "internalType": "uint256",
          "name": "amount",
          "type": "uint256"
        },
        {
          "internalType": "string",
          "name": "source",
          "type": "string"
        }
      ],
      "name": "deposit",
      "outputs": [],
      "stateMutability": "nonpayable",
      "type": "function"
    },
    {
      "inputs": [
        {
          "internalType": "uint256",
          "name": "amount",
          "type": "uint256"
        }
      ],
      "name": "notifySlashReceived",
      "outputs": [],
      "stateMutability": "nonpayable",
      "type": "function"
    },
    {
      "inputs": [
        {
          "internalType": "address",
          "name": "",
          "type": "address"
        }
      ],
      "name": "openClaimId",
      "outputs": [
        {
          "internalType": "uint256",
          "name": "",
          "type": "uint256"
        }
      ],
      "stateMutability": "view",
      "type": "function"
    },
    {
      "inputs": [
        {
          "internalType": "uint256",
          "name": "claimId",
          "type": "uint256"
        },
        {
          "internalType": "uint256",
          "name": "actualAmount",
          "type": "uint256"
        }
      ],
      "name": "payoutClaim",
      "outputs": [],
      "stateMutability": "nonpayable",
      "type": "function"
    },
    {
      "inputs": [],
      "name": "payoutToken",
      "outputs": [
        {
          "internalType": "contract IERC20",
          "name": "",
          "type": "address"
        }
      ],
      "stateMutability": "view",
      "type": "function"
    },
    {
      "inputs": [
        {
          "internalType": "uint256",
          "name": "claimId",
          "type": "uint256"
        }
      ],
      "name": "rejectClaim",
      "outputs": [],
      "stateMutability": "nonpayable",
      "type": "function"
    },
    {
      "inputs": [
        {
          "internalType": "address",
          "name": "newArbitrator",
          "type": "address"
        }
      ],
      "name": "setArbitrator",
      "outputs": [],
      "stateMutability": "nonpayable",
      "type": "function"
    },
    {
      "inputs": [
        {
          "internalType": "address",
          "name": "notifier",
          "type": "address"
        },
        {
          "internalType": "bool",
          "name": "allowed",
          "type": "bool"
        }
      ],
      "name": "setNotifier",
      "outputs": [],
      "stateMutability": "nonpayable",
      "type": "function"
    },
    {
      "inputs": [
        {
          "internalType": "uint256",
          "name": "amount",
          "type": "uint256"
        },
        {
          "internalType": "string",
          "name": "reason",
          "type": "string"
        }
      ],
      "name": "submitClaim",
      "outputs": [
        {
          "internalType": "uint256",
          "name": "claimId",
          "type": "uint256"
        }
      ],
      "stateMutability": "nonpayable",
      "type": "function"
    },
    {
      "inputs": [],
      "name": "totalDeposited",
      "outputs": [
        {
          "internalType": "uint256",
          "name": "",
          "type": "uint256"
        }
      ],
      "stateMutability": "view",
      "type": "function"
    },
    {
      "inputs": [],
      "name": "totalPaidOut",
      "outputs": [
        {
          "internalType": "uint256",
          "name": "",
          "type": "uint256"
        }
      ],
      "stateMutability": "view",
      "type": "function"
    },
    {
      "inputs": [],
      "name": "totalSlashReceived",
      "outputs": [
        {
          "internalType": "uint256",
          "name": "",
          "type": "uint256"
        }
      ],
      "stateMutability": "view",
      "type": "function"
    }
  ],
  "bytecode": "0x60a0346100e957601f610f4138819003918201601f19168301916001600160401b038311848410176100ed5780849260409485528339810103126100e957610052602061004b83610101565b9201610101565b60017f9b779b17422d0df92223018b32b4d1fa46e071723d6817e2486d003becc55f00556001600160a01b03918216801580156100df575b6100cd576080521660018060a01b03195f5416175f55604051610e2b90816101168239608051818181610127015281816102900152818161061201526107ab0152f35b60405163d92e233d60e01b8152600490fd5b508282161561008a565b5f80fd5b634e487b7160e01b5f52604160045260245ffd5b51906001600160a01b03821682036100e95756fe6080806040526004361015610012575f80fd5b60e05f3560e01c91826309c5782e14610bf1575081631357e1dc14610bd45781632034110114610b4f5781632e47fe8314610abe57816345b46525146107da5781634efa82b6146107965781636448beeb146105af5781636cc6cde1146105885781638da4d3c91461056b578163a2b0a5401461054e578163a2f628e414610532578163a71efa35146104f5578163a888c2cd146103a257508063b0eefabe14610310578063b69ef8a814610265578063e1e2401d1461022d578063f1215d25146101065763ff50abdc146100e5575f80fd5b34610102575f366003190112610102576020600154604051908152f35b5f80fd5b346101025761011436610c84565b61011f929192610d66565b811561021b577f0000000000000000000000000000000000000000000000000000000000000000926040516323b872dd60e01b5f5233600452306024528360445260205f60648180895af160015f51148116156101fc575b816040525f606052156101de5750907f6f85d9948d6ca3dd6ce6ce7d175da22b4e865827ae6fcd530ec7edac1240f928916101b484600154610d2c565b6001556101c8604051928392339684610d39565b0390a260015f80516020610db683398151915255005b635274afe760e01b81526001600160a01b0385166004820152602490fd5b600181151661021257853b15153d151616610177565b503d5f823e3d90fd5b604051631f2a200560e01b8152600490fd5b34610102576020366003190112610102576001600160a01b0361024e610c6e565b165f526007602052602060405f2054604051908152f35b34610102575f366003190112610102576040516370a0823160e01b81523060048201526020816024817f00000000000000000000000000000000000000000000000000000000000000006001600160a01b03165afa8015610305575f906102d2575b602090604051908152f35b506020813d6020116102fd575b816102ec60209383610d09565b8101031261010257602090516102c7565b3d91506102df565b6040513d5f823e3d90fd5b3461010257602036600319011261010257610329610c6e565b5f54906001600160a01b038083169133839003610390571691821561037e576001600160a01b03191682175f9081557f8ce068c83de690fa0eb3e0a741583f396336d7cb49661d2d3d5e4d30e57590299080a3005b60405163d92e233d60e01b8152600490fd5b60405163667f86ef60e01b8152600490fd5b346101025760209081600319360112610102576004355f526006825260405f209160018060a01b0383541692600180820154926002830160405180935f908354936103ec85610cd1565b94858552866001821691825f146104d3575050600114610497575b505061041c9250979597969492960383610d09565b6003810154600560ff6004840154169201549260405197889687528787015260c060408701528051948560c08801525f5b8681106104815750505060e095505f86858701015260608501521515608084015260a0830152601f80199101168101030190f35b8083018901518a8201830152899750880161044d565b8592505f52815f20905f915b8583106104bb57505061041c93508201018980610407565b805483890185015287945086939092019181016104a3565b925093505061041c94915060ff191682840152151560051b8201018980610407565b34610102576020366003190112610102576001600160a01b03610516610c6e565b165f526005602052602060ff60405f2054166040519015158152f35b34610102575f3660031901126101025760206040516102008152f35b34610102575f366003190112610102576020600254604051908152f35b34610102575f366003190112610102576020600454604051908152f35b34610102575f366003190112610102575f546040516001600160a01b039091168152602090f35b34610102576040366003190112610102575f546001600160a01b0390602435906004359083163303610390576105e3610d66565b805f5260206006815260405f2093808554161561078457600485019485549560ff871661077257851561021b577f000000000000000000000000000000000000000000000000000000000000000090838216976040516370a0823160e01b815230600482015286816024818d5afa908115610305575f91610745575b5088116107335760019060ff191617905542600583015561068286600354610d2c565b600355828254165f52600784525f604081205582825416906040519163a9059cbb60e01b5f5260045286602452845f60448180855af19060015f5114821615610714575b5081604052156106fe57505460405194855216925f80516020610d968339815191529190a360015f80516020610db683398151915255005b635274afe760e01b815260048101879052602490fd5b600182151661072a573b15153d151616886106c6565b823d5f823e3d90fd5b60405163356680b760e01b8152600490fd5b90508681813d831161076b575b61075c8183610d09565b8101031261010257518a61065f565b503d610752565b604051630d70a0e360e41b8152600490fd5b60405163022af77760e11b8152600490fd5b34610102575f366003190112610102576040517f00000000000000000000000000000000000000000000000000000000000000006001600160a01b03168152602090f35b34610102576107e836610c84565b9190811561021b576102008311610aac57335f52600760205260405f2054610a9a57600454915f198314610a8657600183016004556040519360c085016001600160401b03811186821017610a7257604052338552602085018281526001600160401b038211610a7257604051610869601f8401601f191660200182610d09565b828152368386011161010257828560208301375f60208483010152604087019081524260608801525f60808801525f60a0880152600186015f52600660205260405f209160018060a01b0388511660018060a01b03198454161783555160018301555195865160018060401b038111610a72576108e96002840154610cd1565b97601f8911610a2a575b602098508890601f83116001146109a8575f80516020610dd683398151915295938361098f969460059460a0945f9261099d575b50508160011b915f199060031b1c19161760028501555b6060810151600385015561096760808201511515600486019060ff801983541691151516179055565b0151910155335f52600787526001860160405f20556040519182913396600189019684610d39565b0390a3600160405191018152f35b015190508d80610927565b90600285015f52895f20915f5b601f1985168110610a1357509360018460059460a0945f80516020610dd68339815191529a9861098f9a98601f198116106109fb575b505050811b01600285015561093e565b01515f1960f88460031b161c191690558d80806109eb565b91928b6001819286850151815501940192016109b5565b600284015f5260205f20601f830160051c81019960208410610a68575b601f0160051c01985b898110610a5d57506108f3565b5f8155600101610a50565b9099508990610a47565b634e487b7160e01b5f52604160045260245ffd5b634e487b7160e01b5f52601160045260245ffd5b6040516388b26f6b60e01b8152600490fd5b604051631a5a71af60e11b8152600490fd5b3461010257604036600319011261010257610ad7610c6e565b6024359081151590818303610102575f546001600160a01b03919082163303610390571691821561037e577f296722f60a131c96b55c8251d5e83f4f4a3f56fc4cb77cd3d1393bd2bdc714cd91610b46602092855f526005845260405f209060ff801983541691151516179055565b604051908152a2005b34610102576020366003190112610102575f54600435906001600160a01b03908116330361039057815f52600660205260405f208181541680156107845760048201805460ff81166107725760019060ff19161790554260058301555f5260076020525f60408120555416905f80516020610d9683398151915260206040515f8152a3005b34610102575f366003190112610102576020600354604051908152f35b346101025760203660031901126101025760043590335f52600560205260ff60405f20541615610c5f5750801561021b57610c2e81600254610d2c565b6002556040519081527fc1e584568572369c86d2afd3d2939eecfbed7659c1f4ee857360ed0c7b7d087260203392a2005b63ea8e4eb560e01b8152600490fd5b600435906001600160a01b038216820361010257565b604060031982011261010257600435916001600160401b03916024359083821161010257806023830112156101025781600401359384116101025760248483010111610102576024019190565b90600182811c92168015610cff575b6020831014610ceb57565b634e487b7160e01b5f52602260045260245ffd5b91607f1691610ce0565b601f909101601f19168101906001600160401b03821190821017610a7257604052565b91908201809211610a8657565b91926060938192845260406020850152816040850152848401375f828201840152601f01601f1916010190565b5f80516020610db68339815191526002815414610d835760029055565b604051633ee5aeb560e01b8152600490fdfeaf3c8fdd75d667f71d36d7840b8ef9086c516c9b047ad6a83a5a66151342123a9b779b17422d0df92223018b32b4d1fa46e071723d6817e2486d003becc55f0095081ad7e72ba2e9a9457b1b8f0b632d020ea774fd5da576c1202d5990418294a2646970667358221220e3a898543c6cd0a7878184727e41aca9c5488ba38c5168af708770a1fafc6ceb64736f6c63430008180033",
  "linkReferences": {},
  "deployedLinkReferences": {}
}