{
  "_format": "hh-sol-artifact-1",
  "contractName": "KhalaniVenueAdapter",
  "sourceName": "contracts/KhalaniVenueAdapter.sol",
  "abi": [
    {
      "inputs": [
        {
          "internalType": "uint16",
          "name": "_defaultMaxFeeBps",
          "type": "uint16"
        }
      ],
      "stateMutability": "nonpayable",
      "type": "constructor"
    },
    {
      "inputs": [],
      "name": "FeeBpsTooHigh",
      "type": "error"
    },
    {
      "inputs": [],
      "name": "LengthMismatch",
      "type": "error"
    },
    {
      "inputs": [],
      "name": "OnlyOwner",
      "type": "error"
    },
    {
      "inputs": [],
      "name": "ZeroAddress",
      "type": "error"
    },
    {
      "anonymous": false,
      "inputs": [
        {
          "indexed": true,
          "internalType": "uint64",
          "name": "chainId",
          "type": "uint64"
        },
        {
          "indexed": false,
          "internalType": "bool",
          "name": "allowed",
          "type": "bool"
        }
      ],
      "name": "ChainAllowed",
      "type": "event"
    },
    {
      "anonymous": false,
      "inputs": [
        {
          "indexed": false,
          "internalType": "uint16",
          "name": "oldBps",
          "type": "uint16"
        },
        {
          "indexed": false,
          "internalType": "uint16",
          "name": "newBps",
          "type": "uint16"
        }
      ],
      "name": "MaxFeeBpsUpdated",
      "type": "event"
    },
    {
      "anonymous": false,
      "inputs": [
        {
          "indexed": true,
          "internalType": "address",
          "name": "previousOwner",
          "type": "address"
        },
        {
          "indexed": true,
          "internalType": "address",
          "name": "newOwner",
          "type": "address"
        }
      ],
      "name": "OwnershipTransferred",
      "type": "event"
    },
    {
      "anonymous": false,
      "inputs": [
        {
          "indexed": true,
          "internalType": "address",
          "name": "token",
          "type": "address"
        },
        {
          "indexed": false,
          "internalType": "bool",
          "name": "allowed",
          "type": "bool"
        }
      ],
      "name": "TokenAllowed",
      "type": "event"
    },
    {
      "inputs": [],
      "name": "ABSOLUTE_FEE_CAP_BPS",
      "outputs": [
        {
          "internalType": "uint16",
          "name": "",
          "type": "uint16"
        }
      ],
      "stateMutability": "view",
      "type": "function"
    },
    {
      "inputs": [
        {
          "internalType": "uint64",
          "name": "",
          "type": "uint64"
        }
      ],
      "name": "allowedChains",
      "outputs": [
        {
          "internalType": "bool",
          "name": "",
          "type": "bool"
        }
      ],
      "stateMutability": "view",
      "type": "function"
    },
    {
      "inputs": [
        {
          "internalType": "address",
          "name": "",
          "type": "address"
        }
      ],
      "name": "allowedTokens",
      "outputs": [
        {
          "internalType": "bool",
          "name": "",
          "type": "bool"
        }
      ],
      "stateMutability": "view",
      "type": "function"
    },
    {
      "inputs": [],
      "name": "defaultMaxFeeBps",
      "outputs": [
        {
          "internalType": "uint16",
          "name": "",
          "type": "uint16"
        }
      ],
      "stateMutability": "view",
      "type": "function"
    },
    {
      "inputs": [
        {
          "internalType": "uint64",
          "name": "chainId",
          "type": "uint64"
        },
        {
          "internalType": "address",
          "name": "tokenIn",
          "type": "address"
        },
        {
          "internalType": "address",
          "name": "tokenOut",
          "type": "address"
        }
      ],
      "name": "isRouteAllowed",
      "outputs": [
        {
          "internalType": "bool",
          "name": "",
          "type": "bool"
        }
      ],
      "stateMutability": "view",
      "type": "function"
    },
    {
      "inputs": [],
      "name": "khalaniApiBase",
      "outputs": [
        {
          "internalType": "string",
          "name": "",
          "type": "string"
        }
      ],
      "stateMutability": "pure",
      "type": "function"
    },
    {
      "inputs": [],
      "name": "owner",
      "outputs": [
        {
          "internalType": "address",
          "name": "",
          "type": "address"
        }
      ],
      "stateMutability": "view",
      "type": "function"
    },
    {
      "inputs": [
        {
          "internalType": "uint64",
          "name": "chainId",
          "type": "uint64"
        },
        {
          "internalType": "bool",
          "name": "allowed",
          "type": "bool"
        }
      ],
      "name": "setChainAllowed",
      "outputs": [],
      "stateMutability": "nonpayable",
      "type": "function"
    },
    {
      "inputs": [
        {
          "internalType": "uint64[]",
          "name": "chainIds",
          "type": "uint64[]"
        },
        {
          "internalType": "bool[]",
          "name": "allowed",
          "type": "bool[]"
        }
      ],
      "name": "setChainsAllowed",
      "outputs": [],
      "stateMutability": "nonpayable",
      "type": "function"
    },
    {
      "inputs": [
        {
          "internalType": "uint16",
          "name": "newBps",
          "type": "uint16"
        }
      ],
      "name": "setDefaultMaxFeeBps",
      "outputs": [],
      "stateMutability": "nonpayable",
      "type": "function"
    },
    {
      "inputs": [
        {
          "internalType": "address",
          "name": "token",
          "type": "address"
        },
        {
          "internalType": "bool",
          "name": "allowed",
          "type": "bool"
        }
      ],
      "name": "setTokenAllowed",
      "outputs": [],
      "stateMutability": "nonpayable",
      "type": "function"
    },
    {
      "inputs": [
        {
          "internalType": "address[]",
          "name": "tokens",
          "type": "address[]"
        },
        {
          "internalType": "bool[]",
          "name": "allowed",
          "type": "bool[]"
        }
      ],
      "name": "setTokensAllowed",
      "outputs": [],
      "stateMutability": "nonpayable",
      "type": "function"
    },
    {
      "inputs": [
        {
          "internalType": "address",
          "name": "newOwner",
          "type": "address"
        }
      ],
      "name": "transferOwnership",
      "outputs": [],
      "stateMutability": "nonpayable",
      "type": "function"
    }
  ],
  "bytecode": "0x6080346100e657601f6109ab38819003918201601f19168301916001600160401b038311848410176100ea578084926020946040528339810103126100e6575161ffff81168091036100e65760c881116100d45760407ffa40f555a3ae3cfd5d45bcda8c1106a13f4a5093bfa7cb1cc1040e617251be81913360018060a01b03195f5416175f558061ffff196003541617600355815190335f7f8be0079c531659141344cd1fd0a4f28419497f9722a3daafe3b4186f6b6457e08180a35f82526020820152a16040516108ac90816100ff8239f35b60405163663885fb60e01b8152600490fd5b5f80fd5b634e487b7160e01b5f52604160045260245ffdfe6080604090808252600480361015610015575f80fd5b5f3560e01c91826315f6901214610620575081631c60299b146105cf57816357a464ec146105365781638da5cb5b1461050f578163a982a67c146104ed578163bd1d69a8146103f3578163c0a3c42014610373578163c289e85c146102c0578163e0d4d1cf146101d5578163e744092e14610199578163ed0b48141461015d578163f2fde38b146100cd575063f864e343146100af575f80fd5b346100c9575f3660031901126100c9576020905160c88152f35b5f80fd5b9050346100c95760203660031901126100c9576100e86106a4565b5f546001600160a01b038082169391923385900361014d57169384156101405750506001600160a01b03191682175f9081557f8be0079c531659141344cd1fd0a4f28419497f9722a3daafe3b4186f6b6457e09080a3005b5163d92e233d60e01b8152fd5b8551635fc483c560e01b81528390fd5b82346100c95760203660031901126100c9576020906001600160401b036101826106c9565b165f526001825260ff815f20541690519015158152f35b82346100c95760203660031901126100c9576020906001600160a01b036101be6106a4565b165f526002825260ff815f20541690519015158152f35b82346100c9576101e43661070f565b919392909460018060a01b035f541633036102b2578285036102a157505f5b84811061020c57005b80867e939ffb3caf6ae645a932b4a2a9b4f376b672be380098569edef746e206c2c6600187610290610256868a61028a6102718f9b889c8e61028561025b6102568f8987916107fd565b610835565b8c8060401b039b8c6102766102718888886107fd565b610842565b165f5260209d8e525f20610759565b6107fd565b976107fd565b93895194151585521692a201610203565b83516001621398b960e31b03198152fd5b8351635fc483c560e01b8152fd5b82346100c9575f3660031901126100c957805191828201906001600160401b0382118483101761036057508152601b825260207a343a3a38399d1797b0b83497343cb832b939ba3932b0b6973232bb60291b60208401528151928391602083528151918260208501525f5b83811061034a5750505f83830185015250601f01601f19168101030190f35b818101830151878201870152869450820161032b565b604190634e487b7160e01b5f525260245ffd5b9050346100c957816003193601126100c95761038d6106c9565b6103956106ba565b5f549092906001600160a01b031633036102b257507e939ffb3caf6ae645a932b4a2a9b4f376b672be380098569edef746e206c2c69160209160018060401b031693845f52600183526103ea82825f20610759565b519015158152a2005b9050346100c9576104033661070f565b5f546001600160a01b0396949293919290871633036104dd578282036104ca575f5b82811061042e57005b8761044261043d8386866107fd565b610821565b16156104ba578061045961025660019387896107fd565b8961046861043d8488886107fd565b165f5261047d60209160028352895f20610759565b5f8051602061085783398151915261049961043d8488886107fd565b918b6104a9610256868b8d6107fd565b938b5194151585521692a201610425565b855163d92e233d60e01b81528790fd5b84516001621398b960e31b031981528690fd5b8451635fc483c560e01b81528690fd5b82346100c9575f3660031901126100c95760209061ffff600354169051908152f35b82346100c9575f3660031901126100c9575f5490516001600160a01b039091168152602090f35b9050346100c95760203660031901126100c95780359161ffff918284168094036100c9575f546001600160a01b031633036105c15760c884116105b357507ffa40f555a3ae3cfd5d45bcda8c1106a13f4a5093bfa7cb1cc1040e617251be81906003549281519084168152846020820152a161ffff191617600355005b905163663885fb60e01b8152fd5b9051635fc483c560e01b8152fd5b82346100c95760603660031901126100c9576105e96106c9565b60243591906001600160a01b0380841684036100c95760443590811681036100c9576020936106179261076a565b90519015158152f35b83346100c957806003193601126100c9576106396106a4565b916106426106ba565b5f5490936001600160a01b039290918316330361069657501692831561068857505f8051602061085783398151915291602091845f52600283526103ea82825f20610759565b905163d92e233d60e01b8152fd5b635fc483c560e01b81528590fd5b600435906001600160a01b03821682036100c957565b6024359081151582036100c957565b600435906001600160401b03821682036100c957565b9181601f840112156100c9578235916001600160401b0383116100c9576020808501948460051b0101116100c957565b60406003198201126100c9576001600160401b03916004358381116100c9578261073b916004016106df565b939093926024359182116100c957610755916004016106df565b9091565b9060ff801983541691151516179055565b916001600160a01b039182169190821580156107f3575b6107eb5716918282146107e4576001600160401b03165f9081526001602052604090205460ff16156107de575f52600260205260ff60405f205416156107d9575f5260ff60405f205416156107d557600190565b5f90565b505f90565b50505f90565b5050505f90565b505050505f90565b5081811615610781565b919081101561080d5760051b0190565b634e487b7160e01b5f52603260045260245ffd5b356001600160a01b03811681036100c95790565b3580151581036100c95790565b356001600160401b03811681036100c9579056fe9a8e30a8658b96ab3f034ce4bac6806278b4aee5880ccdd1ac35e4ed5bb31d23a26469706673582212204a9182e519d41ec2234ecbee76fc74cd20672b77334e34b22db517fa6329646164736f6c63430008180033",
  "linkReferences": {},
  "deployedLinkReferences": {}
}