{
  "_format": "hh-sol-artifact-1",
  "contractName": "UniswapV3VenueAdapter",
  "sourceName": "contracts/UniswapV3VenueAdapter.sol",
  "abi": [
    {
      "inputs": [
        {
          "internalType": "address",
          "name": "_router",
          "type": "address"
        },
        {
          "internalType": "address",
          "name": "_factory",
          "type": "address"
        }
      ],
      "stateMutability": "nonpayable",
      "type": "constructor"
    },
    {
      "inputs": [
        {
          "internalType": "uint8",
          "name": "decimals",
          "type": "uint8"
        }
      ],
      "name": "AssetDecimalsOutOfRange",
      "type": "error"
    },
    {
      "inputs": [
        {
          "internalType": "uint256",
          "name": "actual",
          "type": "uint256"
        },
        {
          "internalType": "uint256",
          "name": "minRequired",
          "type": "uint256"
        }
      ],
      "name": "BalanceDeltaBelowMin",
      "type": "error"
    },
    {
      "inputs": [
        {
          "internalType": "uint24",
          "name": "fee",
          "type": "uint24"
        }
      ],
      "name": "InvalidFeeTier",
      "type": "error"
    },
    {
      "inputs": [
        {
          "internalType": "address",
          "name": "tokenIn",
          "type": "address"
        },
        {
          "internalType": "address",
          "name": "tokenOut",
          "type": "address"
        }
      ],
      "name": "NoPoolFound",
      "type": "error"
    },
    {
      "inputs": [],
      "name": "OnlyOwner",
      "type": "error"
    },
    {
      "inputs": [
        {
          "internalType": "uint256",
          "name": "fairMin",
          "type": "uint256"
        },
        {
          "internalType": "uint256",
          "name": "claimed",
          "type": "uint256"
        }
      ],
      "name": "OracleDeviationExceeded",
      "type": "error"
    },
    {
      "inputs": [
        {
          "internalType": "int32",
          "name": "expoIn",
          "type": "int32"
        },
        {
          "internalType": "int32",
          "name": "expoOut",
          "type": "int32"
        }
      ],
      "name": "OracleExpoMismatch",
      "type": "error"
    },
    {
      "inputs": [
        {
          "internalType": "bytes32",
          "name": "feedId",
          "type": "bytes32"
        },
        {
          "internalType": "uint64",
          "name": "conf",
          "type": "uint64"
        },
        {
          "internalType": "uint256",
          "name": "price",
          "type": "uint256"
        }
      ],
      "name": "OracleLowConfidence",
      "type": "error"
    },
    {
      "inputs": [],
      "name": "OraclePriceNonPositive",
      "type": "error"
    },
    {
      "inputs": [],
      "name": "PythNotAContract",
      "type": "error"
    },
    {
      "inputs": [],
      "name": "ReentrancyGuardReentrantCall",
      "type": "error"
    },
    {
      "inputs": [
        {
          "internalType": "address",
          "name": "token",
          "type": "address"
        }
      ],
      "name": "SafeERC20FailedOperation",
      "type": "error"
    },
    {
      "inputs": [],
      "name": "SameToken",
      "type": "error"
    },
    {
      "inputs": [],
      "name": "SlippageBpsTooHigh",
      "type": "error"
    },
    {
      "inputs": [],
      "name": "SwapFailed",
      "type": "error"
    },
    {
      "inputs": [],
      "name": "TooManyFeeTiers",
      "type": "error"
    },
    {
      "inputs": [],
      "name": "ZeroAddress",
      "type": "error"
    },
    {
      "inputs": [],
      "name": "ZeroAmount",
      "type": "error"
    },
    {
      "anonymous": false,
      "inputs": [
        {
          "indexed": true,
          "internalType": "address",
          "name": "token",
          "type": "address"
        },
        {
          "indexed": false,
          "internalType": "bytes32",
          "name": "priceFeedId",
          "type": "bytes32"
        },
        {
          "indexed": false,
          "internalType": "uint8",
          "name": "decimals",
          "type": "uint8"
        }
      ],
      "name": "AssetRegistered",
      "type": "event"
    },
    {
      "anonymous": false,
      "inputs": [
        {
          "indexed": false,
          "internalType": "uint24",
          "name": "fee",
          "type": "uint24"
        }
      ],
      "name": "FeeTierAdded",
      "type": "event"
    },
    {
      "anonymous": false,
      "inputs": [
        {
          "indexed": false,
          "internalType": "uint16",
          "name": "oldBps",
          "type": "uint16"
        },
        {
          "indexed": false,
          "internalType": "uint16",
          "name": "newBps",
          "type": "uint16"
        }
      ],
      "name": "MaxSlippageUpdated",
      "type": "event"
    },
    {
      "anonymous": false,
      "inputs": [
        {
          "indexed": true,
          "internalType": "address",
          "name": "oldPyth",
          "type": "address"
        },
        {
          "indexed": true,
          "internalType": "address",
          "name": "newPyth",
          "type": "address"
        }
      ],
      "name": "PythUpdated",
      "type": "event"
    },
    {
      "anonymous": false,
      "inputs": [
        {
          "indexed": true,
          "internalType": "address",
          "name": "sender",
          "type": "address"
        },
        {
          "indexed": true,
          "internalType": "address",
          "name": "tokenIn",
          "type": "address"
        },
        {
          "indexed": true,
          "internalType": "address",
          "name": "tokenOut",
          "type": "address"
        },
        {
          "indexed": false,
          "internalType": "uint256",
          "name": "amountIn",
          "type": "uint256"
        },
        {
          "indexed": false,
          "internalType": "uint256",
          "name": "amountOut",
          "type": "uint256"
        },
        {
          "indexed": false,
          "internalType": "uint24",
          "name": "fee",
          "type": "uint24"
        }
      ],
      "name": "Swapped",
      "type": "event"
    },
    {
      "anonymous": false,
      "inputs": [
        {
          "indexed": true,
          "internalType": "address",
          "name": "token",
          "type": "address"
        },
        {
          "indexed": true,
          "internalType": "address",
          "name": "to",
          "type": "address"
        },
        {
          "indexed": false,
          "internalType": "uint256",
          "name": "amount",
          "type": "uint256"
        }
      ],
      "name": "TokensRescued",
      "type": "event"
    },
    {
      "inputs": [],
      "name": "MAX_FEE_TIERS",
      "outputs": [
        {
          "internalType": "uint256",
          "name": "",
          "type": "uint256"
        }
      ],
      "stateMutability": "view",
      "type": "function"
    },
    {
      "inputs": [],
      "name": "MAX_SLIPPAGE_BPS_CAP",
      "outputs": [
        {
          "internalType": "uint16",
          "name": "",
          "type": "uint16"
        }
      ],
      "stateMutability": "view",
      "type": "function"
    },
    {
      "inputs": [
        {
          "internalType": "uint24",
          "name": "_fee",
          "type": "uint24"
        }
      ],
      "name": "addFeeTier",
      "outputs": [],
      "stateMutability": "nonpayable",
      "type": "function"
    },
    {
      "inputs": [],
      "name": "factory",
      "outputs": [
        {
          "internalType": "contract IUniV3Factory",
          "name": "",
          "type": "address"
        }
      ],
      "stateMutability": "view",
      "type": "function"
    },
    {
      "inputs": [
        {
          "internalType": "uint256",
          "name": "",
          "type": "uint256"
        }
      ],
      "name": "feeTiers",
      "outputs": [
        {
          "internalType": "uint24",
          "name": "",
          "type": "uint24"
        }
      ],
      "stateMutability": "view",
      "type": "function"
    },
    {
      "inputs": [
        {
          "internalType": "address",
          "name": "tokenA",
          "type": "address"
        },
        {
          "internalType": "address",
          "name": "tokenB",
          "type": "address"
        }
      ],
      "name": "hasPool",
      "outputs": [
        {
          "internalType": "bool",
          "name": "exists",
          "type": "bool"
        },
        {
          "internalType": "uint24",
          "name": "fee",
          "type": "uint24"
        },
        {
          "internalType": "uint128",
          "name": "liquidity",
          "type": "uint128"
        }
      ],
      "stateMutability": "view",
      "type": "function"
    },
    {
      "inputs": [],
      "name": "maxSlippageBps",
      "outputs": [
        {
          "internalType": "uint16",
          "name": "",
          "type": "uint16"
        }
      ],
      "stateMutability": "view",
      "type": "function"
    },
    {
      "inputs": [],
      "name": "owner",
      "outputs": [
        {
          "internalType": "address",
          "name": "",
          "type": "address"
        }
      ],
      "stateMutability": "view",
      "type": "function"
    },
    {
      "inputs": [
        {
          "internalType": "address",
          "name": "",
          "type": "address"
        }
      ],
      "name": "priceFeeds",
      "outputs": [
        {
          "internalType": "bytes32",
          "name": "",
          "type": "bytes32"
        }
      ],
      "stateMutability": "view",
      "type": "function"
    },
    {
      "inputs": [],
      "name": "pyth",
      "outputs": [
        {
          "internalType": "contract IPyth",
          "name": "",
          "type": "address"
        }
      ],
      "stateMutability": "view",
      "type": "function"
    },
    {
      "inputs": [
        {
          "internalType": "address",
          "name": "token",
          "type": "address"
        },
        {
          "internalType": "bytes32",
          "name": "feedId",
          "type": "bytes32"
        },
        {
          "internalType": "uint8",
          "name": "decimals",
          "type": "uint8"
        }
      ],
      "name": "registerAsset",
      "outputs": [],
      "stateMutability": "nonpayable",
      "type": "function"
    },
    {
      "inputs": [
        {
          "internalType": "address",
          "name": "token",
          "type": "address"
        },
        {
          "internalType": "address",
          "name": "to",
          "type": "address"
        },
        {
          "internalType": "uint256",
          "name": "amount",
          "type": "uint256"
        }
      ],
      "name": "rescueTokens",
      "outputs": [],
      "stateMutability": "nonpayable",
      "type": "function"
    },
    {
      "inputs": [],
      "name": "router",
      "outputs": [
        {
          "internalType": "contract ISwapRouter02",
          "name": "",
          "type": "address"
        }
      ],
      "stateMutability": "view",
      "type": "function"
    },
    {
      "inputs": [
        {
          "internalType": "uint16",
          "name": "_bps",
          "type": "uint16"
        }
      ],
      "name": "setMaxSlippageBps",
      "outputs": [],
      "stateMutability": "nonpayable",
      "type": "function"
    },
    {
      "inputs": [
        {
          "internalType": "address",
          "name": "_pyth",
          "type": "address"
        }
      ],
      "name": "setPyth",
      "outputs": [],
      "stateMutability": "nonpayable",
      "type": "function"
    },
    {
      "inputs": [
        {
          "internalType": "address",
          "name": "tokenIn",
          "type": "address"
        },
        {
          "internalType": "address",
          "name": "tokenOut",
          "type": "address"
        },
        {
          "internalType": "uint256",
          "name": "amountIn",
          "type": "uint256"
        },
        {
          "internalType": "uint256",
          "name": "minAmountOut",
          "type": "uint256"
        }
      ],
      "name": "swap",
      "outputs": [
        {
          "internalType": "uint256",
          "name": "amountOut",
          "type": "uint256"
        }
      ],
      "stateMutability": "nonpayable",
      "type": "function"
    },
    {
      "inputs": [
        {
          "internalType": "address",
          "name": "",
          "type": "address"
        }
      ],
      "name": "tokenDecimals",
      "outputs": [
        {
          "internalType": "uint8",
          "name": "",
          "type": "uint8"
        }
      ],
      "stateMutability": "view",
      "type": "function"
    },
    {
      "inputs": [
        {
          "internalType": "address",
          "name": "newOwner",
          "type": "address"
        }
      ],
      "name": "transferOwnership",
      "outputs": [],
      "stateMutability": "nonpayable",
      "type": "function"
    }
  ],
  "bytecode": "0x60c0346200026f57601f6200196738819003918201601f19168301916001600160401b038311848410176200023e5780849260409485528339810103126200026f576200005a6020620000528362000273565b920162000273565b60017f9b779b17422d0df92223018b32b4d1fa46e071723d6817e2486d003becc55f008190556002805461ffff60a01b1916604b60a21b179055916001600160a01b03919082168015801562000264575b62000252576080521660a0525f80546001600160a01b03191633179055805468010000000000000000808210156200023e578282018084558210156200022a57825f5260205f2092600a93848404019060039182868254960602831b62ffffff95866064831b921b19161790558054838110156200023e578181018083558110156200022a57815f5260205f20868204019083878354920602841b90866101f4831b921b19161790558054838110156200023e578181018083558110156200022a57815f5260205f20868204019083878354920602841b9086610bb8831b921b19161790558054928310156200023e578083018082558310156200022a575f528060205f2085840401948554930602901b91612710831b921b19161790556040516116de90816200028982396080518181816101da0152818161031f01528181610366015281816105060152818161054101528181610629015281816106700152610955015260a0518181816107c901528181610bde01526110b10152f35b634e487b7160e01b5f52603260045260245ffd5b634e487b7160e01b5f52604160045260245ffd5b60405163d92e233d60e01b8152600490fd5b5082821615620000ab565b5f80fd5b51906001600160a01b03821682036200026f5756fe6080806040526004361015610012575f80fd5b5f3560e01c908163065420ae14610e7657508063230ed44a14610e3957806362470fe314610d8157806377c674ca14610d65578063823cf67014610cc25780638da5cb5b14610c9b5780638ee573ac14610c605780639dcb511a14610c285780639f69808314610c0d578063c45a015514610bc9578063c4aa739514610ba5578063cea9d26f14610ad3578063d6432fab14610a83578063ee22fd6f146109ed578063f2fde38b14610984578063f887ea4014610940578063f98d06f0146109185763fe029156146100e2575f80fd5b346104e25760803660031901126104e2576100fb610fec565b610103611002565b9060025f8051602061168983398151915254146109065760025f8051602061168983398151915255604435156108f4576001600160a01b03818116908316146108e25761015660643560443584846111f9565b5f905f80600154905b81811061078e5750506001600160801b031615610764576040516323b872dd60e01b5f9081523360045230602452604480359052602090606481806001600160a01b0387165af160015f5114811615610745575b816040525f606052156106c3575060405163095ea7b360e01b5f9081526001600160a01b037f0000000000000000000000000000000000000000000000000000000000000000811660045260448035602452602092918290819087165af19060015f511482161561072c575b6040521561061c575b6040516370a0823160e01b8152336004820152916020836024816001600160a01b0388165afa9283156104ee575f936105e8575b506040516001600160401b0360e08201908111908211176105d45760e0810160409081526001600160a01b038481168352868116602080850191825262ffffff86811685870190815233606088019081526044803560808a019081526064803560a08c019081525f60c08d018181529b516304e45aaf60e01b81529c518b1660048e015298518a1660248d01529451909516918a01919091529051861692880192909252905160848701525160a48601529251821660c4850152839160e49183917f0000000000000000000000000000000000000000000000000000000000000000165af180156104ee576105a9575b5060405163095ea7b360e01b5f9081526001600160a01b037f000000000000000000000000000000000000000000000000000000000000000081166004526024829052602091906044908290819088165af19060015f5114821615610590575b604052156104f9575b6040516370a0823160e01b8152336004820152926020846024816001600160a01b0389165afa9384156104ee575f946104b6575b50808403938085116104a2576064358510610481571461046f5760209362ffffff604051926044358452858785015216604083015260018060a01b03169160018060a01b0316907f62a422cc36234492f287aeb712657b805d79c0ae49f3c5f2d23570342854656a60603392a460015f8051602061168983398151915255604051908152f35b60405163081ceff360e41b8152600490fd5b604051631a22072d60e31b8152600481018690526064356024820152604490fd5b634e487b7160e01b5f52601160045260245ffd5b9093506020813d6020116104e6575b816104d260209383611018565b810103126104e25751925f6103e9565b5f80fd5b3d91506104c5565b6040513d5f823e3d90fd5b61052f6001600160a01b037f00000000000000000000000000000000000000000000000000000000000000008116908416611623565b1561056f5761056a6001600160a01b037f00000000000000000000000000000000000000000000000000000000000000008116908416611623565b6103b5575b604051635274afe760e01b81526001600160a01b0383166004820152602490fd5b3d156001600160a01b0385163b151516909116906103ac565b602090813d83116105cd575b6105bf8183611018565b810103126104e2575f61034c565b503d6105b5565b634e487b7160e01b5f52604160045260245ffd5b9092506020813d602011610614575b8161060460209383611018565b810103126104e25751915f61025c565b3d91506105f7565b6106526001600160a01b037f00000000000000000000000000000000000000000000000000000000000000008116908316611623565b1561070a5760405163095ea7b360e01b5f9081526001600160a01b037f0000000000000000000000000000000000000000000000000000000000000000811660045260448035602452602092918290819087165af160015f51148116156106e2575b81604052156106c35750610228565b635274afe760e01b81526001600160a01b039091166004820152602490fd5b6001811516610701573d156001600160a01b0384163b151516166106b4565b503d5f823e3d90fd5b604051635274afe760e01b81526001600160a01b039091166004820152602490fd5b3d156001600160a01b0384163b1515169091169061021f565b6001811516610701573d156001600160a01b0384163b151516166101b3565b60405163c4b4593d60e01b81526001600160a01b0391821660048201529083166024820152604490fd5b62ffffff602061079d83610f9a565b9054906107c56040519485938493630b4c774160e11b855260031b1c168b8a6004850161105a565b03817f00000000000000000000000000000000000000000000000000000000000000006001600160a01b03165afa9081156104ee575f916108b3575b506001600160a01b031680156108aa57602060049160405192838092630d34328160e11b82525afa5f9181610879575b50610842575b506001905b0161015f565b6001600160801b038481169082161115610837579094509150600162ffffff61086a86610f9a565b90549060031b1c169490610837565b61089c91925060203d6020116108a3575b6108948183611018565b810190611080565b905f610831565b503d61088a565b5060019061083c565b6108d5915060203d6020116108db575b6108cd8183611018565b81019061103b565b5f610801565b503d6108c3565b60405163100dac0560e11b8152600490fd5b604051631f2a200560e01b8152600490fd5b604051633ee5aeb560e01b8152600490fd5b346104e2575f3660031901126104e2576002546040516001600160a01b039091168152602090f35b346104e2575f3660031901126104e2576040517f00000000000000000000000000000000000000000000000000000000000000006001600160a01b03168152602090f35b346104e25760203660031901126104e25761099d610fec565b5f54906001600160a01b039081831633036109db57169081156109c9576001600160a01b031916175f55005b60405163d92e233d60e01b8152600490fd5b604051635fc483c560e01b8152600490fd5b346104e25760203660031901126104e257610a06610fec565b5f546001600160a01b0390811633036109db57808216918215159081610a79575b50610a6757816002549182167f4de753730bc14f8af4de0441d3ba572c5feb1dc4013d32c5072eedd55fb058b15f80a36001600160a01b03191617600255005b604051639032f53560e01b8152600490fd5b90503b1583610a27565b346104e25760403660031901126104e257606062ffffff610ab3610aa5610fec565b610aad611002565b9061109f565b919290604051931515845216602083015260018060801b03166040820152f35b346104e25760603660031901126104e257610aec610fec565b610af4611002565b5f54604435916001600160a01b0391821633036109db5781169283156109c957169060405163a9059cbb60e01b5f52836004528160245260205f60448180875af160015f5114811615610b8f575b8160405215610b79575060207f77023e19c7343ad491fd706c36335ca0e738340a91f29b1fd81e2673d44896c491604051908152a3005b635274afe760e01b815260048101839052602490fd5b600181151661070157833b15153d151616610b42565b346104e2575f3660031901126104e257602061ffff60025460a01c16604051908152f35b346104e2575f3660031901126104e2576040517f00000000000000000000000000000000000000000000000000000000000000006001600160a01b03168152602090f35b346104e2575f3660031901126104e2576020604051600a8152f35b346104e25760203660031901126104e2576001600160a01b03610c49610fec565b165f526003602052602060405f2054604051908152f35b346104e25760203660031901126104e2576001600160a01b03610c81610fec565b165f526004602052602060ff60405f205416604051908152f35b346104e2575f3660031901126104e2575f546040516001600160a01b039091168152602090f35b346104e25760203660031901126104e25761ffff600435818116918282036104e2575f546001600160a01b031633036109db576101f48311610d535760407f30a50e8516635c5f0d342a4ee02dc02ea8f4307b5dbad059c55dd8bd8d035e4191600254948251918660a01c1682526020820152a161ffff60a01b1990911660a09190911b61ffff60a01b1617600255005b604051634c164b6360e11b8152600490fd5b346104e2575f3660031901126104e25760206040516101f48152f35b346104e25760603660031901126104e257610d9a610fec565b6024356044359160ff83168093036104e2575f546001600160a01b039190821633036109db57169182156109c95760128111610e21577f80ccfd1d2001f65074481f964a57f4881a37e3259bfacf87f4baa71f7890d2e191604091845f52600360205281835f20556004602052825f208160ff1982541617905582519182526020820152a2005b6024906040519063f53c1b2b60e01b82526004820152fd5b346104e25760203660031901126104e2576004356001548110156104e25762ffffff610e66602092610f9a565b9190546040519260031b1c168152f35b346104e25760203660031901126104e25760043562ffffff918282168092036104e2575f546001600160a01b03163303610f8b575060019060015491600a831015610f79578115610f60575f5b838110610f28575050600160401b8210156105d4577fba9a14a9532a9b247474da722020ebfe8971cbac67e7d464296f6f677ae0c2fc92610f0c83600160209501600155610f9a565b819291549060031b9184831b921b1916179055604051908152a1005b8285610f3383610f9a565b90549060031b1c1614610f47578101610ec3565b6040516301653ad560e01b815260048101849052602490fd5b6040516301653ad560e01b815260048101839052602490fd5b6040516308498ba160e01b8152600490fd5b635fc483c560e01b8152600490fd5b90600154821015610fd85760015f52600a8083047fb10e2d527612073b26eecdfd717e6a320cf44b4afac2b0732d9fcbe2b7fa0cf601920660030290565b634e487b7160e01b5f52603260045260245ffd5b600435906001600160a01b03821682036104e257565b602435906001600160a01b03821682036104e257565b601f909101601f19168101906001600160401b038211908210176105d457604052565b908160209103126104e257516001600160a01b03811681036104e25790565b6001600160a01b0391821681529116602082015262ffffff909116604082015260600190565b908160209103126104e257516001600160801b03811681036104e25790565b600180549092916001600160a01b03907f000000000000000000000000000000000000000000000000000000000000000082165f5b8481106110ea57505050505050505f905f905f90565b6110f381610f9a565b9062ffffff90548160039161112c604091898d84519384928392630b4c774160e11b8452602098899660049d8c1b1c16918c850161105a565b03818b5afa9081156111ef57908a915f916111d2575b501690816111575750505050505086016110d4565b939950939a9b995094509550839294505197888092630d34328160e11b82525afa9586915f976111b3575b50506111a0576111959192939450610f9a565b9054911b1c16905f90565b6111a990610f9a565b9054911b1c169190565b6111ca929750803d106108a3576108948183611018565b945f80611182565b6111e99150843d86116108db576108cd8183611018565b5f611142565b82513d5f823e3d90fd5b6002549193926001600160a01b03808416939092841561153757831695865f526003602052604093845f2054911696875f52845f2054908215801561152f575b611524575f526004978860205260ff865f205416905f5260ff865f2054169286519563052571af60e51b93848852828c89015261012c9460249a868c8b0152608096878b604481855afa9a8b1561151a57908f9392918d8f915f9e6114ea575b50926044928b959288979551978896879586528501528301525afa9586156114e0575f966114b1575b50505f885160070b138015906114a3575b611493578888015160030b8986015160030b90818103611478575050875185516001600160401b0390811696918116946101f49290838702871588820486141715611464576127109c858b02958b8704148b15171561144f578460208f920151169104811161142c575050602001511690899004811161140c575061ffff959493929190508285106113e15761137d6113889361137761138d9794611382946115ac565b936115fe565b611612565b906115ac565b6115bf565b915b60a01c168203908282116113cf57906113a7916115ac565b04908184106113b7575050505050565b51634d64bbfd60e11b81529384015282015260449150fd5b84601188634e487b7160e01b5f52525ffd5b61137d611406956113fa611400959694611382946115ac565b956115fe565b906115bf565b9161138f565b611428868e928c51948594635852a09160e11b865285016115dd565b0390fd5b8d51635852a09160e11b8152978897506114289650945092509050848f016115dd565b50508f60118f91634e487b7160e01b5f52525ffd5b508f60118f91634e487b7160e01b5f52525ffd5b6044918c8f928d51936350b211a360e01b8552840152820152fd5b8851634e8e0b7560e11b81528c90fd5b505f855160070b13156112d3565b6114d1929650803d106114d9575b6114c98183611018565b810190611540565b935f806112c2565b503d6114bf565b8a513d5f823e3d90fd5b879694919e50928b959261150c604495883d8a116114d9576114c98183611018565b9f9295975092955092611299565b8c513d5f823e3d90fd5b505050505050505050565b508115611239565b50505050505050565b908160809103126104e257604051906001600160401b0360808301818111848210176105d45760405281518060070b81036104e2578352602082015190811681036104e25760208301526040810151908160030b82036104e25760609160408401520151606082015290565b818102929181159184041417156104a257565b81156115c9570490565b634e487b7160e01b5f52601260045260245ffd5b9081526001600160401b039091166020820152604081019190915260600190565b9060ff8091169116039060ff82116104a257565b60ff16604d81116104a257600a0a90565b60405163095ea7b360e01b5f9081526001600160a01b03909316600452602483905290929160209060448180875af19260015f5114841615611666575b50604052565b6001849294151661167f573b15153d151616915f611660565b833d5f823e3d90fdfe9b779b17422d0df92223018b32b4d1fa46e071723d6817e2486d003becc55f00a264697066735822122039a257f9cc74855d23b3739e698961cddc28a58a1b931bdf94c1d8b636ad6f0664736f6c63430008180033",
  "linkReferences": {},
  "deployedLinkReferences": {}
}