{
  "_format": "hh-sol-artifact-1",
  "contractName": "AegisVaultFactoryV4",
  "sourceName": "contracts/v4/AegisVaultFactoryV4.sol",
  "abi": [
    {
      "inputs": [
        {
          "internalType": "address",
          "name": "_vaultImplementation",
          "type": "address"
        },
        {
          "internalType": "address",
          "name": "_executionRegistry",
          "type": "address"
        },
        {
          "internalType": "address",
          "name": "_protocolTreasury",
          "type": "address"
        }
      ],
      "stateMutability": "nonpayable",
      "type": "constructor"
    },
    {
      "inputs": [],
      "name": "CrossChainFeeCapTooHigh",
      "type": "error"
    },
    {
      "inputs": [],
      "name": "FactoryNotRegistryAdmin",
      "type": "error"
    },
    {
      "inputs": [],
      "name": "FailedDeployment",
      "type": "error"
    },
    {
      "inputs": [
        {
          "internalType": "uint256",
          "name": "balance",
          "type": "uint256"
        },
        {
          "internalType": "uint256",
          "name": "needed",
          "type": "uint256"
        }
      ],
      "name": "InsufficientBalance",
      "type": "error"
    },
    {
      "inputs": [],
      "name": "OnlyAdmin",
      "type": "error"
    },
    {
      "inputs": [],
      "name": "ZeroAddress",
      "type": "error"
    },
    {
      "anonymous": false,
      "inputs": [
        {
          "indexed": true,
          "internalType": "address",
          "name": "oldAdmin",
          "type": "address"
        },
        {
          "indexed": true,
          "internalType": "address",
          "name": "newAdmin",
          "type": "address"
        }
      ],
      "name": "AdminTransferred",
      "type": "event"
    },
    {
      "anonymous": false,
      "inputs": [
        {
          "indexed": true,
          "internalType": "address",
          "name": "oldTreasury",
          "type": "address"
        },
        {
          "indexed": true,
          "internalType": "address",
          "name": "newTreasury",
          "type": "address"
        }
      ],
      "name": "ProtocolTreasuryUpdated",
      "type": "event"
    },
    {
      "anonymous": false,
      "inputs": [
        {
          "indexed": true,
          "internalType": "address",
          "name": "vault",
          "type": "address"
        },
        {
          "indexed": true,
          "internalType": "address",
          "name": "owner",
          "type": "address"
        },
        {
          "indexed": true,
          "internalType": "address",
          "name": "operator",
          "type": "address"
        },
        {
          "indexed": false,
          "internalType": "address",
          "name": "baseAsset",
          "type": "address"
        },
        {
          "indexed": false,
          "internalType": "address",
          "name": "venue",
          "type": "address"
        },
        {
          "indexed": false,
          "internalType": "uint16",
          "name": "requestedMaxCrossChainFeeBps",
          "type": "uint16"
        },
        {
          "indexed": false,
          "internalType": "uint256",
          "name": "timestamp",
          "type": "uint256"
        },
        {
          "indexed": false,
          "internalType": "bytes32",
          "name": "acceptedManifestHash",
          "type": "bytes32"
        }
      ],
      "name": "VaultDeployed",
      "type": "event"
    },
    {
      "inputs": [],
      "name": "MAX_CROSS_CHAIN_FEE_BPS_CAP",
      "outputs": [
        {
          "internalType": "uint16",
          "name": "",
          "type": "uint16"
        }
      ],
      "stateMutability": "view",
      "type": "function"
    },
    {
      "inputs": [],
      "name": "admin",
      "outputs": [
        {
          "internalType": "address",
          "name": "",
          "type": "address"
        }
      ],
      "stateMutability": "view",
      "type": "function"
    },
    {
      "inputs": [
        {
          "internalType": "uint256",
          "name": "",
          "type": "uint256"
        }
      ],
      "name": "allVaults",
      "outputs": [
        {
          "internalType": "address",
          "name": "",
          "type": "address"
        }
      ],
      "stateMutability": "view",
      "type": "function"
    },
    {
      "inputs": [
        {
          "internalType": "address",
          "name": "_operator",
          "type": "address"
        },
        {
          "internalType": "address",
          "name": "_baseAsset",
          "type": "address"
        },
        {
          "internalType": "address",
          "name": "_venue",
          "type": "address"
        },
        {
          "components": [
            {
              "internalType": "uint256",
              "name": "maxPositionBps",
              "type": "uint256"
            },
            {
              "internalType": "uint256",
              "name": "maxDailyLossBps",
              "type": "uint256"
            },
            {
              "internalType": "uint256",
              "name": "stopLossBps",
              "type": "uint256"
            },
            {
              "internalType": "uint256",
              "name": "cooldownSeconds",
              "type": "uint256"
            },
            {
              "internalType": "uint256",
              "name": "confidenceThresholdBps",
              "type": "uint256"
            },
            {
              "internalType": "uint256",
              "name": "maxActionsPerDay",
              "type": "uint256"
            },
            {
              "internalType": "bool",
              "name": "autoExecution",
              "type": "bool"
            },
            {
              "internalType": "bool",
              "name": "paused",
              "type": "bool"
            },
            {
              "internalType": "uint256",
              "name": "performanceFeeBps",
              "type": "uint256"
            },
            {
              "internalType": "uint256",
              "name": "managementFeeBps",
              "type": "uint256"
            },
            {
              "internalType": "uint256",
              "name": "entryFeeBps",
              "type": "uint256"
            },
            {
              "internalType": "uint256",
              "name": "exitFeeBps",
              "type": "uint256"
            },
            {
              "internalType": "address",
              "name": "feeRecipient",
              "type": "address"
            },
            {
              "internalType": "bool",
              "name": "sealedMode",
              "type": "bool"
            },
            {
              "internalType": "address",
              "name": "attestedSigner",
              "type": "address"
            }
          ],
          "internalType": "struct VaultPolicy",
          "name": "_policy",
          "type": "tuple"
        },
        {
          "internalType": "address[]",
          "name": "_allowedAssets",
          "type": "address[]"
        },
        {
          "internalType": "uint16",
          "name": "_maxCrossChainFeeBps",
          "type": "uint16"
        },
        {
          "internalType": "bytes32",
          "name": "_acceptedManifestHash",
          "type": "bytes32"
        }
      ],
      "name": "createVault",
      "outputs": [
        {
          "internalType": "address",
          "name": "vault",
          "type": "address"
        }
      ],
      "stateMutability": "nonpayable",
      "type": "function"
    },
    {
      "inputs": [],
      "name": "executionRegistry",
      "outputs": [
        {
          "internalType": "address",
          "name": "",
          "type": "address"
        }
      ],
      "stateMutability": "view",
      "type": "function"
    },
    {
      "inputs": [
        {
          "internalType": "address",
          "name": "_owner",
          "type": "address"
        }
      ],
      "name": "getOwnerVaults",
      "outputs": [
        {
          "internalType": "address[]",
          "name": "",
          "type": "address[]"
        }
      ],
      "stateMutability": "view",
      "type": "function"
    },
    {
      "inputs": [
        {
          "internalType": "uint256",
          "name": "index",
          "type": "uint256"
        }
      ],
      "name": "getVaultAt",
      "outputs": [
        {
          "internalType": "address",
          "name": "",
          "type": "address"
        }
      ],
      "stateMutability": "view",
      "type": "function"
    },
    {
      "inputs": [
        {
          "internalType": "address",
          "name": "",
          "type": "address"
        }
      ],
      "name": "isVault",
      "outputs": [
        {
          "internalType": "bool",
          "name": "",
          "type": "bool"
        }
      ],
      "stateMutability": "view",
      "type": "function"
    },
    {
      "inputs": [
        {
          "internalType": "address",
          "name": "",
          "type": "address"
        },
        {
          "internalType": "uint256",
          "name": "",
          "type": "uint256"
        }
      ],
      "name": "ownerVaults",
      "outputs": [
        {
          "internalType": "address",
          "name": "",
          "type": "address"
        }
      ],
      "stateMutability": "view",
      "type": "function"
    },
    {
      "inputs": [],
      "name": "protocolTreasury",
      "outputs": [
        {
          "internalType": "address",
          "name": "",
          "type": "address"
        }
      ],
      "stateMutability": "view",
      "type": "function"
    },
    {
      "inputs": [
        {
          "internalType": "address",
          "name": "",
          "type": "address"
        }
      ],
      "name": "requestedMaxCrossChainFeeBps",
      "outputs": [
        {
          "internalType": "uint16",
          "name": "",
          "type": "uint16"
        }
      ],
      "stateMutability": "view",
      "type": "function"
    },
    {
      "inputs": [
        {
          "internalType": "address",
          "name": "newTreasury",
          "type": "address"
        }
      ],
      "name": "setProtocolTreasury",
      "outputs": [],
      "stateMutability": "nonpayable",
      "type": "function"
    },
    {
      "inputs": [],
      "name": "totalVaults",
      "outputs": [
        {
          "internalType": "uint256",
          "name": "",
          "type": "uint256"
        }
      ],
      "stateMutability": "view",
      "type": "function"
    },
    {
      "inputs": [
        {
          "internalType": "address",
          "name": "newAdmin",
          "type": "address"
        }
      ],
      "name": "transferAdmin",
      "outputs": [],
      "stateMutability": "nonpayable",
      "type": "function"
    },
    {
      "inputs": [],
      "name": "vaultImplementation",
      "outputs": [
        {
          "internalType": "address",
          "name": "",
          "type": "address"
        }
      ],
      "stateMutability": "view",
      "type": "function"
    },
    {
      "inputs": [
        {
          "internalType": "address",
          "name": "",
          "type": "address"
        }
      ],
      "name": "vaultManifestHash",
      "outputs": [
        {
          "internalType": "bytes32",
          "name": "",
          "type": "bytes32"
        }
      ],
      "stateMutability": "view",
      "type": "function"
    },
    {
      "inputs": [],
      "name": "version",
      "outputs": [
        {
          "internalType": "string",
          "name": "",
          "type": "string"
        }
      ],
      "stateMutability": "pure",
      "type": "function"
    }
  ],
  "bytecode": "0x60a0346100d257601f610d3738819003918201601f19168301916001600160401b038311848410176100d6578084926060946040528339810103126100d257610047816100ea565b906100606040610059602084016100ea565b92016100ea565b6001600160a01b0391838316156100c05782169283156100c05760805260018060a01b031992835f5416175f551681600154161760015533906002541617600255604051610c3890816100ff823960805181818161011a01526104d50152f35b60405163d92e233d60e01b8152600490fd5b5f80fd5b634e487b7160e01b5f52604160045260245ffd5b51906001600160a01b03821682036100d25756fe6080806040526004361015610012575f80fd5b5f905f3560e01c9081630c5a61f814610af7575080630c90d7b514610aa0578063202a864b14610a685780632e074ef014610a2c5780633a0f555d1461097f5780635224b72a146103a957806354fd4d50146103095780635d4a7823146102ed578063652b9b41146102ae57806375829def1461021a5780637a98742d146101fb578063803db96d146101d25780638d654023146101b45780638ee23d1f1461018d5780639094a91e14610149578063bba48a90146101045763f851a440146100d9575f80fd5b346101015780600319360112610101576002546040516001600160a01b039091168152602090f35b80fd5b50346101015780600319360112610101576040517f00000000000000000000000000000000000000000000000000000000000000006001600160a01b03168152602090f35b5034610101576020366003190112610101576004359060035482101561010157602061017483610b8b565b905460405160039290921b1c6001600160a01b03168152f35b5034610101578060031936011261010157546040516001600160a01b039091168152602090f35b50346101015780600319360112610101576020600354604051908152f35b50346101015780600319360112610101576001546040516001600160a01b039091168152602090f35b5034610101576020366003190112610101576020610174600435610b8b565b503461010157602036600319011261010157610234610b75565b600254906001600160a01b03808316913383900361029c571691821561028a576001600160a01b03191682176002557ff8ccb027dfcd135e000e9d45e6cc2d662578a8825d4c45b5e32e0adf67e79ec68380a380f35b60405163d92e233d60e01b8152600490fd5b604051634755657960e01b8152600490fd5b50346101015760203660031901126101015760209060ff906040906001600160a01b036102d9610b75565b168152600584522054166040519015158152f35b5034610101578060031936011261010157602060405160c88152f35b5034610101578060031936011261010157604080519081016001600160401b038111828210176103955760405260028152602091611d8d60f21b602083015260405192839160208352835191826020850152815b83811061037e57505060408094508284010152601f80199101168101030190f35b80860182015187820160400152869450810161035d565b634e487b7160e01b5f52604160045260245ffd5b5034610891576102a0366003190112610891576103c4610b75565b6024356001600160a01b038116810361089157604435916001600160a01b0383168303610891576101e0366063190112610891576001600160401b0361024435811061089157366023610244350112156108915761024435600401351161089157366024610244356004013560051b6102443501011161089157610264359261ffff84168403610891576001600160a01b0383161561028a576001600160a01b0382161561028a5760c861ffff85161161096d575f546040516303e1469160e61b81526001600160a01b0390911690602081600481855afa908115610858575f9161092b575b506001600160a01b031630141590816108b9575b506108a7576e5af43d82803e903d91602b57fd5bf37f0000000000000000000000000000000000000000000000000000000000000000763d602d80600a3d3981f3363d3d373d3d3d363d7300000062ffffff8260881c16175f5260781b1760205260018060a01b03603760095ff016938415610895575f546001546001600160a01b039182169116863b156108915760405191637589090d60e11b835233600484015260018060a01b038716602484015260018060a01b0386166044840152606483015260018060a01b038416608483015260643560a483015260843560c483015260a43560e483015261010460c4358184015261012460e43581850152610144913582850152359081151580920361089157610164918285015235908115158092036108915761018491828501526101a49035818501526101c49135828501526101e4903581850152610204913582850152359060018060a01b0382168092036108915761022491828501523580151580910361089157610244840152356001600160a01b0381168103610891576001600160a01b031661026483015261030061028483015261024435600481013561030484015261032483019183916024015f5b610244356004013581106108635750505f9282916102a483015261ffff86166102c4830152610284356102e48301520381838a5af1801561085857610845575b50855486906001600160a01b0316803b15610841578180916024604051809481936312e4d14360e31b83528c60048401525af180156108365761081e575b5050600354600160401b929083811015610395578060016107239201600355610b8b565b81549060031b9088821b9160018060a01b03901b1916179055338752600460205260408720968754938410156103955761076884602099600161ffff97018155610bb7565b81549060031b9089821b9160018060a01b03901b19161790558681526005885260408120600160ff1982541617905560068852604081208484168519825416179055600788526040610284359120556040519460018060a01b0316855260018060a01b03168685015216604083015242606083015261028435608083015260018060a01b031690827fe1fc126137e226e5c8e2d921eb5861a1ab4b73d6b0b666ebf70ce610a633e85f60a03393a4604051908152f35b61082790610bcc565b61083257855f6106ff565b8580fd5b6040513d84823e3d90fd5b5080fd5b610850919650610bcc565b5f945f6106c1565b6040513d5f823e3d90fd5b9192509283359060018060a01b03821680920361089157602081600193829352019401910190849291610681565b5f80fd5b60405163b06ebf3d60e01b8152600490fd5b604051635435e54d60e11b8152600490fd5b604051637669254160e11b81523060048201529150602090829060249082905afa908115610858575f916108f0575b50155f6104be565b90506020813d602011610923575b8161090b60209383610bdf565b8101031261089157518015158103610891575f6108e8565b3d91506108fe565b90506020813d602011610965575b8161094660209383610bdf565b8101031261089157516001600160a01b0381168103610891575f6104aa565b3d9150610939565b6040516301eb6ebd60e01b8152600490fd5b3461089157602080600319360112610891576001600160a01b0390816109a3610b75565b165f526004815260405f20604051918281835491828152019081935f52825f20905f5b818110610a1657505050836109dc910384610bdf565b6040519281840190828552518091526040840192915f5b828110610a005785850386f35b83518716855293810193928101926001016109f3565b82548816845292840192600192830192016109c6565b34610891576020366003190112610891576001600160a01b03610a4d610b75565b165f526006602052602061ffff60405f205416604051908152f35b34610891576020366003190112610891576001600160a01b03610a89610b75565b165f526007602052602060405f2054604051908152f35b3461089157604036600319011261089157610ab9610b75565b6024359060018060a01b038091165f52600460205260405f20805483101561089157602092610ae791610bb7565b9190546040519260031b1c168152f35b3461089157602036600319011261089157610b10610b75565b60025490916001600160a01b039182163303610b665750600180546001600160a01b03198116938316938417909155167f0c5d18caa145415182f8ad3d2563da586609cec04ac8505274d87bc43f00b4a45f80a3005b634755657960e01b8152600490fd5b600435906001600160a01b038216820361089157565b600354811015610ba35760035f5260205f2001905f90565b634e487b7160e01b5f52603260045260245ffd5b8054821015610ba3575f5260205f2001905f90565b6001600160401b03811161039557604052565b601f909101601f19168101906001600160401b038211908210176103955760405256fea2646970667358221220d3342cfcdc6cb5cdc27c3d9e39e21cff4c1f2ae87a6df38eed9688520805eda564736f6c63430008180033",
  "linkReferences": {},
  "deployedLinkReferences": {}
}