{
  "_format": "hh-sol-artifact-1",
  "contractName": "AegisVaultFactoryV3",
  "sourceName": "contracts/AegisVaultFactoryV3.sol",
  "abi": [
    {
      "inputs": [
        {
          "internalType": "address",
          "name": "_vaultImplementation",
          "type": "address"
        },
        {
          "internalType": "address",
          "name": "_executionRegistry",
          "type": "address"
        },
        {
          "internalType": "address",
          "name": "_protocolTreasury",
          "type": "address"
        }
      ],
      "stateMutability": "nonpayable",
      "type": "constructor"
    },
    {
      "inputs": [],
      "name": "CrossChainFeeCapTooHigh",
      "type": "error"
    },
    {
      "inputs": [],
      "name": "FactoryNotRegistryAdmin",
      "type": "error"
    },
    {
      "inputs": [],
      "name": "FailedDeployment",
      "type": "error"
    },
    {
      "inputs": [
        {
          "internalType": "uint256",
          "name": "balance",
          "type": "uint256"
        },
        {
          "internalType": "uint256",
          "name": "needed",
          "type": "uint256"
        }
      ],
      "name": "InsufficientBalance",
      "type": "error"
    },
    {
      "inputs": [],
      "name": "OnlyAdmin",
      "type": "error"
    },
    {
      "inputs": [],
      "name": "OnlyPendingAdmin",
      "type": "error"
    },
    {
      "inputs": [],
      "name": "ZeroAddress",
      "type": "error"
    },
    {
      "anonymous": false,
      "inputs": [
        {
          "indexed": true,
          "internalType": "address",
          "name": "currentAdmin",
          "type": "address"
        },
        {
          "indexed": true,
          "internalType": "address",
          "name": "pendingAdmin",
          "type": "address"
        }
      ],
      "name": "AdminTransferStarted",
      "type": "event"
    },
    {
      "anonymous": false,
      "inputs": [
        {
          "indexed": true,
          "internalType": "address",
          "name": "oldAdmin",
          "type": "address"
        },
        {
          "indexed": true,
          "internalType": "address",
          "name": "newAdmin",
          "type": "address"
        }
      ],
      "name": "AdminTransferred",
      "type": "event"
    },
    {
      "anonymous": false,
      "inputs": [
        {
          "indexed": true,
          "internalType": "address",
          "name": "oldTreasury",
          "type": "address"
        },
        {
          "indexed": true,
          "internalType": "address",
          "name": "newTreasury",
          "type": "address"
        }
      ],
      "name": "ProtocolTreasuryUpdated",
      "type": "event"
    },
    {
      "anonymous": false,
      "inputs": [
        {
          "indexed": true,
          "internalType": "address",
          "name": "vault",
          "type": "address"
        },
        {
          "indexed": true,
          "internalType": "address",
          "name": "owner",
          "type": "address"
        },
        {
          "indexed": true,
          "internalType": "address",
          "name": "operator",
          "type": "address"
        },
        {
          "indexed": false,
          "internalType": "address",
          "name": "baseAsset",
          "type": "address"
        },
        {
          "indexed": false,
          "internalType": "address",
          "name": "venue",
          "type": "address"
        },
        {
          "indexed": false,
          "internalType": "uint16",
          "name": "requestedMaxCrossChainFeeBps",
          "type": "uint16"
        },
        {
          "indexed": false,
          "internalType": "uint256",
          "name": "timestamp",
          "type": "uint256"
        }
      ],
      "name": "VaultDeployed",
      "type": "event"
    },
    {
      "inputs": [],
      "name": "MAX_CROSS_CHAIN_FEE_BPS_CAP",
      "outputs": [
        {
          "internalType": "uint16",
          "name": "",
          "type": "uint16"
        }
      ],
      "stateMutability": "view",
      "type": "function"
    },
    {
      "inputs": [],
      "name": "acceptAdmin",
      "outputs": [],
      "stateMutability": "nonpayable",
      "type": "function"
    },
    {
      "inputs": [],
      "name": "admin",
      "outputs": [
        {
          "internalType": "address",
          "name": "",
          "type": "address"
        }
      ],
      "stateMutability": "view",
      "type": "function"
    },
    {
      "inputs": [
        {
          "internalType": "uint256",
          "name": "",
          "type": "uint256"
        }
      ],
      "name": "allVaults",
      "outputs": [
        {
          "internalType": "address",
          "name": "",
          "type": "address"
        }
      ],
      "stateMutability": "view",
      "type": "function"
    },
    {
      "inputs": [],
      "name": "cancelAdminTransfer",
      "outputs": [],
      "stateMutability": "nonpayable",
      "type": "function"
    },
    {
      "inputs": [
        {
          "internalType": "address",
          "name": "_operator",
          "type": "address"
        },
        {
          "internalType": "address",
          "name": "_baseAsset",
          "type": "address"
        },
        {
          "internalType": "address",
          "name": "_venue",
          "type": "address"
        },
        {
          "components": [
            {
              "internalType": "uint256",
              "name": "maxPositionBps",
              "type": "uint256"
            },
            {
              "internalType": "uint256",
              "name": "maxDailyLossBps",
              "type": "uint256"
            },
            {
              "internalType": "uint256",
              "name": "stopLossBps",
              "type": "uint256"
            },
            {
              "internalType": "uint256",
              "name": "cooldownSeconds",
              "type": "uint256"
            },
            {
              "internalType": "uint256",
              "name": "confidenceThresholdBps",
              "type": "uint256"
            },
            {
              "internalType": "uint256",
              "name": "maxActionsPerDay",
              "type": "uint256"
            },
            {
              "internalType": "bool",
              "name": "autoExecution",
              "type": "bool"
            },
            {
              "internalType": "bool",
              "name": "paused",
              "type": "bool"
            },
            {
              "internalType": "uint256",
              "name": "performanceFeeBps",
              "type": "uint256"
            },
            {
              "internalType": "uint256",
              "name": "managementFeeBps",
              "type": "uint256"
            },
            {
              "internalType": "uint256",
              "name": "entryFeeBps",
              "type": "uint256"
            },
            {
              "internalType": "uint256",
              "name": "exitFeeBps",
              "type": "uint256"
            },
            {
              "internalType": "address",
              "name": "feeRecipient",
              "type": "address"
            },
            {
              "internalType": "bool",
              "name": "sealedMode",
              "type": "bool"
            },
            {
              "internalType": "address",
              "name": "attestedSigner",
              "type": "address"
            }
          ],
          "internalType": "struct VaultPolicy",
          "name": "_policy",
          "type": "tuple"
        },
        {
          "internalType": "address[]",
          "name": "_allowedAssets",
          "type": "address[]"
        },
        {
          "internalType": "uint16",
          "name": "_maxCrossChainFeeBps",
          "type": "uint16"
        }
      ],
      "name": "createVault",
      "outputs": [
        {
          "internalType": "address",
          "name": "vault",
          "type": "address"
        }
      ],
      "stateMutability": "nonpayable",
      "type": "function"
    },
    {
      "inputs": [],
      "name": "executionRegistry",
      "outputs": [
        {
          "internalType": "address",
          "name": "",
          "type": "address"
        }
      ],
      "stateMutability": "view",
      "type": "function"
    },
    {
      "inputs": [
        {
          "internalType": "address",
          "name": "_owner",
          "type": "address"
        }
      ],
      "name": "getOwnerVaults",
      "outputs": [
        {
          "internalType": "address[]",
          "name": "",
          "type": "address[]"
        }
      ],
      "stateMutability": "view",
      "type": "function"
    },
    {
      "inputs": [
        {
          "internalType": "uint256",
          "name": "index",
          "type": "uint256"
        }
      ],
      "name": "getVaultAt",
      "outputs": [
        {
          "internalType": "address",
          "name": "",
          "type": "address"
        }
      ],
      "stateMutability": "view",
      "type": "function"
    },
    {
      "inputs": [
        {
          "internalType": "address",
          "name": "",
          "type": "address"
        }
      ],
      "name": "isVault",
      "outputs": [
        {
          "internalType": "bool",
          "name": "",
          "type": "bool"
        }
      ],
      "stateMutability": "view",
      "type": "function"
    },
    {
      "inputs": [
        {
          "internalType": "address",
          "name": "",
          "type": "address"
        },
        {
          "internalType": "uint256",
          "name": "",
          "type": "uint256"
        }
      ],
      "name": "ownerVaults",
      "outputs": [
        {
          "internalType": "address",
          "name": "",
          "type": "address"
        }
      ],
      "stateMutability": "view",
      "type": "function"
    },
    {
      "inputs": [],
      "name": "pendingAdmin",
      "outputs": [
        {
          "internalType": "address",
          "name": "",
          "type": "address"
        }
      ],
      "stateMutability": "view",
      "type": "function"
    },
    {
      "inputs": [],
      "name": "protocolTreasury",
      "outputs": [
        {
          "internalType": "address",
          "name": "",
          "type": "address"
        }
      ],
      "stateMutability": "view",
      "type": "function"
    },
    {
      "inputs": [
        {
          "internalType": "address",
          "name": "",
          "type": "address"
        }
      ],
      "name": "requestedMaxCrossChainFeeBps",
      "outputs": [
        {
          "internalType": "uint16",
          "name": "",
          "type": "uint16"
        }
      ],
      "stateMutability": "view",
      "type": "function"
    },
    {
      "inputs": [
        {
          "internalType": "address",
          "name": "newTreasury",
          "type": "address"
        }
      ],
      "name": "setProtocolTreasury",
      "outputs": [],
      "stateMutability": "nonpayable",
      "type": "function"
    },
    {
      "inputs": [],
      "name": "totalVaults",
      "outputs": [
        {
          "internalType": "uint256",
          "name": "",
          "type": "uint256"
        }
      ],
      "stateMutability": "view",
      "type": "function"
    },
    {
      "inputs": [
        {
          "internalType": "address",
          "name": "newAdmin",
          "type": "address"
        }
      ],
      "name": "transferAdmin",
      "outputs": [],
      "stateMutability": "nonpayable",
      "type": "function"
    },
    {
      "inputs": [],
      "name": "vaultImplementation",
      "outputs": [
        {
          "internalType": "address",
          "name": "",
          "type": "address"
        }
      ],
      "stateMutability": "view",
      "type": "function"
    }
  ],
  "bytecode": "0x60a0346100d257601f610d2938819003918201601f19168301916001600160401b038311848410176100d6578084926060946040528339810103126100d257610047816100ea565b906100606040610059602084016100ea565b92016100ea565b6001600160a01b0391838316156100c05782169283156100c05760805260018060a01b031992835f5416175f551681600154161760015533906002541617600255604051610c2a90816100ff823960805181818161012501526102800152f35b60405163d92e233d60e01b8152600490fd5b5f80fd5b634e487b7160e01b5f52604160045260245ffd5b51906001600160a01b03821682036100d25756fe6080806040526004361015610012575f80fd5b5f905f3560e01c9081630c5a61f814610ae9575080630c90d7b514610a925780630e18b68114610a1857806326782247146109f05780632e074ef0146109b45780633a0f555d146109075780635d4a7823146108ec578063652b9b41146108af57806375829def1461083f5780637a98742d14610821578063803db96d146107f95780638d654023146107dc5780638ee23d1f146107b55780639094a91e146107735780639a387e701461072d578063a43ef52414610154578063bba48a901461010f5763f851a440146100e4575f80fd5b3461010c578060031936011261010c576002546040516001600160a01b039091168152602090f35b80fd5b503461010c578060031936011261010c576040517f00000000000000000000000000000000000000000000000000000000000000006001600160a01b03168152602090f35b503461062d5761028036600319011261062d5761016f610b67565b6024356001600160a01b038116810361062d57604435916001600160a01b038316830361062d576101e036606319011261062d576001600160401b0361024435811061062d573660236102443501121561062d5761024435600401351161062d57366024610244356004013560051b6102443501011161062d57610264359261ffff8416840361062d576001600160a01b0383161561071b576001600160a01b0382161561071b5760c861ffff851611610709575f546040516303e1469160e61b81526001600160a01b0390911690602081600481855afa9081156105f4575f916106c7575b506001600160a01b03163014159081610655575b50610643576e5af43d82803e903d91602b57fd5bf37f0000000000000000000000000000000000000000000000000000000000000000763d602d80600a3d3981f3363d3d373d3d3d363d7300000062ffffff8260881c16175f5260781b1760205260018060a01b03603760095ff016938415610631575f546001546001600160a01b039182169116863b1561062d576040519163d7fdd6ff60e01b835233600484015260018060a01b038716602484015260018060a01b0386166044840152606483015260018060a01b038416608483015260643560a483015260843560c483015260a43560e483015261010460c4358184015261012460e43581850152610144913582850152359081151580920361062d576101649182850152359081151580920361062d5761018491828501526101a49035818501526101c49135828501526101e4903581850152610204913582850152359060018060a01b03821680920361062d5761022491828501523580151580910361062d57610244840152356001600160a01b038116810361062d576001600160a01b03166102648301526102e06102848301526102443560048101356102e484015261030483019183916024015f5b610244356004013581106105ff5750505f9282916102a483015261ffff86166102c48301520381838a5af180156105f4576105e1575b50855486906001600160a01b0316803b156105dd578180916024604051809481936312e4d14360e31b83528c60048401525af180156105d2576105ba575b5050600454600160401b9290838110156105a6578060016104c49201600455610b7d565b81546001600160a01b0360039290921b91821b19169088901b179055338752600560205260408720805490938110156105a65760209761050f8261ffff966001604095018155610ba9565b81546001600160a01b0360039290921b82811b19909116908b901b1790915588825260068a52828220805460ff1916600117905560078a52919020805485191693909416928317909355604080519584168652908316858801528401524260608401521690339083907f6aade5d3eb0fc7b0edf72051d31d34bd56b6104bf80ea366c1ab97bc1c7d289590608090a4604051908152f35b634e487b7160e01b5f52604160045260245ffd5b6105c390610bbe565b6105ce57855f6104a0565b8580fd5b6040513d84823e3d90fd5b5080fd5b6105ec919650610bbe565b5f945f610462565b6040513d5f823e3d90fd5b9192509283359060018060a01b03821680920361062d5760208160019382935201940191019084929161042c565b5f80fd5b60405163b06ebf3d60e01b8152600490fd5b604051635435e54d60e11b8152600490fd5b604051637669254160e11b81523060048201529150602090829060249082905afa9081156105f4575f9161068c575b50155f610269565b90506020813d6020116106bf575b816106a760209383610bd1565b8101031261062d5751801515810361062d575f610684565b3d915061069a565b90506020813d602011610701575b816106e260209383610bd1565b8101031261062d57516001600160a01b038116810361062d575f610255565b3d91506106d5565b6040516301eb6ebd60e01b8152600490fd5b60405163d92e233d60e01b8152600490fd5b3461062d575f36600319011261062d576002546001600160a01b0316330361076157600380546001600160a01b0319169055005b604051634755657960e01b8152600490fd5b3461062d57602036600319011261062d5760043560045481101561062d5761079c602091610b7d565b905460405160039290921b1c6001600160a01b03168152f35b3461062d575f36600319011261062d575f546040516001600160a01b039091168152602090f35b3461062d575f36600319011261062d576020600454604051908152f35b3461062d575f36600319011261062d576001546040516001600160a01b039091168152602090f35b3461062d57602036600319011261062d57602061079c600435610b7d565b3461062d57602036600319011261062d57610858610b67565b6002546001600160a01b039081169133839003610761571690811561071b57600380546001600160a01b031916831790557fe5cd1c804f1c9cc6d7009e4c0fb532f0e2d8863524c3323a6b3790c3f80bf25c5f80a3005b3461062d57602036600319011261062d576001600160a01b036108d0610b67565b165f526006602052602060ff60405f2054166040519015158152f35b3461062d575f36600319011261062d57602060405160c88152f35b3461062d5760208060031936011261062d576001600160a01b03908161092b610b67565b165f526005815260405f20604051918281835491828152019081935f52825f20905f5b81811061099e5750505083610964910384610bd1565b6040519281840190828552518091526040840192915f5b8281106109885785850386f35b835187168552938101939281019260010161097b565b825488168452928401926001928301920161094e565b3461062d57602036600319011261062d576001600160a01b036109d5610b67565b165f526007602052602061ffff60405f205416604051908152f35b3461062d575f36600319011261062d576003546040516001600160a01b039091168152602090f35b3461062d575f36600319011261062d576003546001600160a01b038082169133839003610a8057600280546001600160a01b031980821686179092559116600355167ff8ccb027dfcd135e000e9d45e6cc2d662578a8825d4c45b5e32e0adf67e79ec65f80a3005b60405163d1ec4b2360e01b8152600490fd5b3461062d57604036600319011261062d57610aab610b67565b6024359060018060a01b038091165f52600560205260405f20805483101561062d57602092610ad991610ba9565b9190546040519260031b1c168152f35b3461062d57602036600319011261062d57610b02610b67565b60025490916001600160a01b039182163303610b585750600180546001600160a01b03198116938316938417909155167f0c5d18caa145415182f8ad3d2563da586609cec04ac8505274d87bc43f00b4a45f80a3005b634755657960e01b8152600490fd5b600435906001600160a01b038216820361062d57565b600454811015610b955760045f5260205f2001905f90565b634e487b7160e01b5f52603260045260245ffd5b8054821015610b95575f5260205f2001905f90565b6001600160401b0381116105a657604052565b601f909101601f19168101906001600160401b038211908210176105a65760405256fea26469706673582212207453fc36a358f6fa1bb662e13cdf88d0267bb87a8f6ac85b36420f9337d03f7764736f6c63430008180033",
  "linkReferences": {},
  "deployedLinkReferences": {}
}