{
  "_format": "hh-sol-artifact-1",
  "contractName": "AegisVault",
  "sourceName": "contracts/AegisVault.sol",
  "abi": [
    {
      "anonymous": false,
      "inputs": [
        {
          "indexed": true,
          "internalType": "address",
          "name": "vault",
          "type": "address"
        },
        {
          "indexed": true,
          "internalType": "bytes32",
          "name": "commitHash",
          "type": "bytes32"
        },
        {
          "indexed": false,
          "internalType": "uint256",
          "name": "commitBlock",
          "type": "uint256"
        }
      ],
      "name": "IntentCommitted",
      "type": "event"
    },
    {
      "anonymous": false,
      "inputs": [
        {
          "indexed": true,
          "internalType": "address",
          "name": "vault",
          "type": "address"
        },
        {
          "indexed": true,
          "internalType": "bytes32",
          "name": "intentHash",
          "type": "bytes32"
        },
        {
          "indexed": true,
          "internalType": "address",
          "name": "attestedSigner",
          "type": "address"
        },
        {
          "indexed": false,
          "internalType": "bytes32",
          "name": "attestationReportHash",
          "type": "bytes32"
        }
      ],
      "name": "SealedIntentExecuted",
      "type": "event"
    },
    {
      "anonymous": false,
      "inputs": [
        {
          "indexed": true,
          "internalType": "address",
          "name": "vault",
          "type": "address"
        },
        {
          "indexed": true,
          "internalType": "address",
          "name": "owner",
          "type": "address"
        },
        {
          "indexed": false,
          "internalType": "address",
          "name": "baseAsset",
          "type": "address"
        }
      ],
      "name": "VaultCreated",
      "type": "event"
    },
    {
      "inputs": [],
      "name": "baseAsset",
      "outputs": [
        {
          "internalType": "contract IERC20",
          "name": "",
          "type": "address"
        }
      ],
      "stateMutability": "view",
      "type": "function"
    },
    {
      "inputs": [
        {
          "internalType": "bytes32",
          "name": "commitHash",
          "type": "bytes32"
        }
      ],
      "name": "commitIntent",
      "outputs": [],
      "stateMutability": "nonpayable",
      "type": "function"
    },
    {
      "inputs": [
        {
          "internalType": "uint256",
          "name": "amount",
          "type": "uint256"
        }
      ],
      "name": "deposit",
      "outputs": [],
      "stateMutability": "nonpayable",
      "type": "function"
    },
    {
      "inputs": [
        {
          "components": [
            {
              "internalType": "bytes32",
              "name": "intentHash",
              "type": "bytes32"
            },
            {
              "internalType": "address",
              "name": "vault",
              "type": "address"
            },
            {
              "internalType": "address",
              "name": "assetIn",
              "type": "address"
            },
            {
              "internalType": "address",
              "name": "assetOut",
              "type": "address"
            },
            {
              "internalType": "uint256",
              "name": "amountIn",
              "type": "uint256"
            },
            {
              "internalType": "uint256",
              "name": "minAmountOut",
              "type": "uint256"
            },
            {
              "internalType": "uint256",
              "name": "createdAt",
              "type": "uint256"
            },
            {
              "internalType": "uint256",
              "name": "expiresAt",
              "type": "uint256"
            },
            {
              "internalType": "uint256",
              "name": "confidenceBps",
              "type": "uint256"
            },
            {
              "internalType": "uint256",
              "name": "riskScoreBps",
              "type": "uint256"
            },
            {
              "internalType": "bytes32",
              "name": "attestationReportHash",
              "type": "bytes32"
            },
            {
              "internalType": "string",
              "name": "reasonSummary",
              "type": "string"
            }
          ],
          "internalType": "struct ExecutionIntent",
          "name": "intent",
          "type": "tuple"
        },
        {
          "internalType": "bytes",
          "name": "sig",
          "type": "bytes"
        }
      ],
      "name": "executeIntent",
      "outputs": [],
      "stateMutability": "nonpayable",
      "type": "function"
    },
    {
      "inputs": [],
      "name": "executor",
      "outputs": [
        {
          "internalType": "address",
          "name": "",
          "type": "address"
        }
      ],
      "stateMutability": "view",
      "type": "function"
    },
    {
      "inputs": [],
      "name": "getAllowedAssets",
      "outputs": [
        {
          "internalType": "address[]",
          "name": "",
          "type": "address[]"
        }
      ],
      "stateMutability": "view",
      "type": "function"
    },
    {
      "inputs": [],
      "name": "getPolicy",
      "outputs": [
        {
          "components": [
            {
              "internalType": "uint256",
              "name": "maxPositionBps",
              "type": "uint256"
            },
            {
              "internalType": "uint256",
              "name": "maxDailyLossBps",
              "type": "uint256"
            },
            {
              "internalType": "uint256",
              "name": "stopLossBps",
              "type": "uint256"
            },
            {
              "internalType": "uint256",
              "name": "cooldownSeconds",
              "type": "uint256"
            },
            {
              "internalType": "uint256",
              "name": "confidenceThresholdBps",
              "type": "uint256"
            },
            {
              "internalType": "uint256",
              "name": "maxActionsPerDay",
              "type": "uint256"
            },
            {
              "internalType": "bool",
              "name": "autoExecution",
              "type": "bool"
            },
            {
              "internalType": "bool",
              "name": "paused",
              "type": "bool"
            },
            {
              "internalType": "uint256",
              "name": "performanceFeeBps",
              "type": "uint256"
            },
            {
              "internalType": "uint256",
              "name": "managementFeeBps",
              "type": "uint256"
            },
            {
              "internalType": "uint256",
              "name": "entryFeeBps",
              "type": "uint256"
            },
            {
              "internalType": "uint256",
              "name": "exitFeeBps",
              "type": "uint256"
            },
            {
              "internalType": "address",
              "name": "feeRecipient",
              "type": "address"
            },
            {
              "internalType": "bool",
              "name": "sealedMode",
              "type": "bool"
            },
            {
              "internalType": "address",
              "name": "attestedSigner",
              "type": "address"
            }
          ],
          "internalType": "struct VaultPolicy",
          "name": "",
          "type": "tuple"
        }
      ],
      "stateMutability": "view",
      "type": "function"
    },
    {
      "inputs": [],
      "name": "getVaultSummary",
      "outputs": [
        {
          "internalType": "address",
          "name": "",
          "type": "address"
        },
        {
          "internalType": "address",
          "name": "",
          "type": "address"
        },
        {
          "internalType": "address",
          "name": "",
          "type": "address"
        },
        {
          "internalType": "uint256",
          "name": "",
          "type": "uint256"
        },
        {
          "internalType": "uint256",
          "name": "",
          "type": "uint256"
        },
        {
          "internalType": "uint256",
          "name": "",
          "type": "uint256"
        },
        {
          "internalType": "uint256",
          "name": "",
          "type": "uint256"
        },
        {
          "internalType": "bool",
          "name": "",
          "type": "bool"
        },
        {
          "internalType": "bool",
          "name": "",
          "type": "bool"
        }
      ],
      "stateMutability": "view",
      "type": "function"
    },
    {
      "inputs": [
        {
          "internalType": "address",
          "name": "_owner",
          "type": "address"
        },
        {
          "internalType": "address",
          "name": "_baseAsset",
          "type": "address"
        },
        {
          "internalType": "address",
          "name": "_executor",
          "type": "address"
        },
        {
          "internalType": "address",
          "name": "_registry",
          "type": "address"
        },
        {
          "internalType": "address",
          "name": "_venue",
          "type": "address"
        },
        {
          "components": [
            {
              "internalType": "uint256",
              "name": "maxPositionBps",
              "type": "uint256"
            },
            {
              "internalType": "uint256",
              "name": "maxDailyLossBps",
              "type": "uint256"
            },
            {
              "internalType": "uint256",
              "name": "stopLossBps",
              "type": "uint256"
            },
            {
              "internalType": "uint256",
              "name": "cooldownSeconds",
              "type": "uint256"
            },
            {
              "internalType": "uint256",
              "name": "confidenceThresholdBps",
              "type": "uint256"
            },
            {
              "internalType": "uint256",
              "name": "maxActionsPerDay",
              "type": "uint256"
            },
            {
              "internalType": "bool",
              "name": "autoExecution",
              "type": "bool"
            },
            {
              "internalType": "bool",
              "name": "paused",
              "type": "bool"
            },
            {
              "internalType": "uint256",
              "name": "performanceFeeBps",
              "type": "uint256"
            },
            {
              "internalType": "uint256",
              "name": "managementFeeBps",
              "type": "uint256"
            },
            {
              "internalType": "uint256",
              "name": "entryFeeBps",
              "type": "uint256"
            },
            {
              "internalType": "uint256",
              "name": "exitFeeBps",
              "type": "uint256"
            },
            {
              "internalType": "address",
              "name": "feeRecipient",
              "type": "address"
            },
            {
              "internalType": "bool",
              "name": "sealedMode",
              "type": "bool"
            },
            {
              "internalType": "address",
              "name": "attestedSigner",
              "type": "address"
            }
          ],
          "internalType": "struct VaultPolicy",
          "name": "_policy",
          "type": "tuple"
        },
        {
          "internalType": "address[]",
          "name": "assets_",
          "type": "address[]"
        },
        {
          "internalType": "address",
          "name": "",
          "type": "address"
        }
      ],
      "name": "initialize",
      "outputs": [],
      "stateMutability": "nonpayable",
      "type": "function"
    },
    {
      "inputs": [],
      "name": "lastExecutionTime",
      "outputs": [
        {
          "internalType": "uint256",
          "name": "",
          "type": "uint256"
        }
      ],
      "stateMutability": "view",
      "type": "function"
    },
    {
      "inputs": [],
      "name": "owner",
      "outputs": [
        {
          "internalType": "address",
          "name": "",
          "type": "address"
        }
      ],
      "stateMutability": "view",
      "type": "function"
    },
    {
      "inputs": [],
      "name": "totalDeposited",
      "outputs": [
        {
          "internalType": "uint256",
          "name": "",
          "type": "uint256"
        }
      ],
      "stateMutability": "view",
      "type": "function"
    },
    {
      "inputs": [],
      "name": "venue",
      "outputs": [
        {
          "internalType": "address",
          "name": "",
          "type": "address"
        }
      ],
      "stateMutability": "view",
      "type": "function"
    },
    {
      "inputs": [
        {
          "internalType": "uint256",
          "name": "amount",
          "type": "uint256"
        }
      ],
      "name": "withdraw",
      "outputs": [],
      "stateMutability": "nonpayable",
      "type": "function"
    }
  ],
  "bytecode": "0x60808060405234610016576112aa908161001b8239f35b5f80fdfe6080806040526004361015610012575f80fd5b5f905f3560e01c9081632e1a7d4d146110bd575080635f1939091461100c57806373b379bd14610fee5780638da5cb5b14610fc7578063a270a73714610f9e578063b6b55f2514610e7c578063b7296a8114610ae4578063c34c08e514610abb578063c55e4a0e146109d0578063cc186f7c14610387578063cdf456e11461035e578063ce1e462614610180578063f066eea0146100d85763ff50abdc146100b8575f80fd5b346100d557806003193601126100d5576020601354604051908152f35b80fd5b50346100d557806003193601126100d557604051809160125490818352602080930180926012835284832090835b818110610163575050508461011c9103856111eb565b60405193838594850191818652518092526040850193925b82811061014357505050500390f35b83516001600160a01b031685528695509381019392810192600101610134565b82546001600160a01b031684529286019260019283019201610106565b50346100d557806003193601126100d5576101c06040516101a0816111cf565b8281528260208201528260408201528260608201528260808201528260a08201528260c08201528260e08201528261010082015282610120820152826101408201528261016082015282610180820152826101a082015201526101e0604051610208816111cf565b600554908181526006546020820152600754604082015260085460608201526009546080820152600a5460a082015260ff600b54818116151560c084015260081c16151560e0820152600c54610100820152600d54610120820152600e54610140820152600f5461016082015260ff60105460018060a01b03811661018084015260a01c1615156101a082015260018060a01b03601154166101c08201526040519182526020810151602083015260408101516040830152606081015160608301526080810151608083015260a081015160a083015260c0810151151560c083015260e0810151151560e083015261010081015161010083015261012081015161012083015261014081015161014083015261016081015161016083015260018060a01b03610180820151166101808301526101a081015115156101a08301526101c060018060a01b03910151166101c0820152f35b50346100d557806003193601126100d5576002546040516001600160a01b039091168152602090f35b50346100d55760403660031901126100d5576001600160401b03600435116100d557610180600435360360031901126100d5576001600160401b03602435116100d5573660236024350112156100d5576001600160401b0360046024350135116100d55736602480356004013581350101116100d5576001546001600160a01b03163314806109c0575b806109b4575b1561098b5761042a602460043501611240565b306001600160a01b0390911603610962576011546001600160a01b031680156109185760405190637a6478eb60e11b8252600435600401356004830152610144600435013560248301526044820152608060648201526020818061049c60848201602435600401356024803501611254565b038173__$a4a7e8d2af9db14b36ef6d5b96bc1b0d4a$__5af49081156107d25782916108e6575b5060ff60105460a01c1661081c575b505b601654421015610803575b60035460025460048054601454601554601354604051635109f1ef60e01b81526102e0818701528535958601356102e4820152966001600160a01b03908116969195929481169291811691610536906024016111bb565b166103048801526001600160a01b036105536004356044016111bb565b166103248801526001600160a01b036105706004356064016111bb565b16610344880152600435608481013561036489015260a481013561038489015260c48101356103a489015260e48101356103c48901526101048101356103e4890152610124810135610404890152610144810135610424890152610164810135903603602219018112156107ff576004350160018060401b036004820135116107ff576004810135360360248201136107ff579061062b88969795949392610180610444890152610464880190602460048201359101611254565b60055460248801526006546044880152600754606488015260088054608489015260095460a4890152600a5460c4890152600b5460ff818116151560e48b0152911c81161515610104890152600c54610124890152600d54610144890152600e54610164890152600f546101848901526010546001600160a01b038082166101a48b015260a09190911c90911615156101c4890152601154166101e48801528681036003190161020488015260128054808352908b52602090910195907fbb8a6a4669ba250d26cd7a459eca9d215f8307e33aebe50379bc5a3617ec3444908b5b8181106107dd575050506102248701526102448601526102648501526102848401526102a48301526102c48201929092526040918190038173__$728c7de47dfc5f98523f70dd303df54e76$__5af480156107d257610793575b50426014556015546001810180911161077f5760155580f35b634e487b7160e01b82526011600452602482fd5b6040813d6040116107ca575b816107ac604093836111eb565b810103126107c65760200151801515036100d5575f610766565b5080fd5b3d915061079f565b6040513d84823e3d90fd5b82546001600160a01b031689528b99506020909801976001928301920161070c565b8880fd5b8060155562015180420180421161077f576016556104df565b8082526017602052604082205480151590816108bc575b5015610892578152601760205280604081205560018060a01b03601154166040516101446004350135815260043560040135907f1a6434e9b6653fb533348ebac4eb90b194369ca56f59817e8bf3dc9a7fa6026b60203092a45f6104d2565b60405162461bcd60e51b815260206004820152600260248201526131b960f11b6044820152606490fd5b9050600181018091116108d2574310155f610833565b634e487b7160e01b83526011600452602483fd5b90506020813d602011610910575b81610901602093836111eb565b810103126107c657515f6104c3565b3d91506108f4565b5060ff60105460a01c16156104d45760405162461bcd60e51b815260206004820152601360248201527239b2b0b632b2103732b2b2399039b4b3b732b960691b6044820152606490fd5b60405162461bcd60e51b81526020600482015260016024820152603b60f91b6044820152606490fd5b60405162461bcd60e51b81526020600482015260016024820152600f60fb1b6044820152606490fd5b5060ff600b5416610417565b5060ff600b5460081c1615610411565b50346100d557806003193601126100d55760018060a01b03808254169080600154169060025416926040516370a0823160e01b8152306004820152602081602481885afa918215610aaf5791610a75575b50906101209360ff926013546014549160155493600b5495604051988952602089015260408801526060870152608086015260a085015260c0840152818160081c16151560e0840152161515610100820152f35b9190506020823d602011610aa7575b81610a91602093836111eb565b81010312610aa3579051610120610a21565b5f80fd5b3d9150610a84565b604051903d90823e3d90fd5b50346100d557806003193601126100d5576001546040516001600160a01b039091168152602090f35b50346100d5576102c03660031901126100d5576004356001600160a01b0381811691829003610aa3576024803591808316809303610aa35760443590808216809203610aa357606435818116809103610aa35760843591808316809303610aa3576101e03660a3190112610e78576001600160401b03926102843590848211610e745736602383011215610e74578160040135948511610e745760059036888760051b85010111610e70576102a43584811603610aa3578a5494848616610e46578a151580610e3d575b80610e34575b80610e2b575b15610e03576101a43591610bb883111580610df4575b80610de6575b80610dd8575b15610db0578b60018060a01b0319809816178d558660035416176003558986600254161760025560019786600154161760015585600454161760045560a43560055560c43560065560e435600755610104356008556101243560095561014435600a5561016435801515809103610aa357600b5461018435801515809103610aa35761ff0060ff9160081b1692169061ffff19161717600b55600c556101c435600d556101e435600e5561020435600f5561022435838116809103610aa3576010549061024435801515809103610aa3576001600160a81b03199092161760a09190911b60ff60a01b16176010556102643583811690819003610aa357846011541617601155895b858110610d42578a8a8a8a62015180420190814211610d3057506016556040519081527f897c133dfbfe1f6239e98b4ffd7e4f6c86a62350a131a7a37790419f58af02f960203092a380f35b634e487b7160e01b8552601160045284fd5b610d518882841b850101611240565b6012805490600160401b821015610d9d57898201808255821015610d8a578d5260208d2001805487169186169190911790558601610ce4565b634e487b7160e01b8e5260326004528a8efd5b634e487b7160e01b8e5260416004528a8efd5b60405162461bcd60e51b8152602060048201526001818c0152603360f91b6044820152606490fd5b5060c8610204351115610bdc565b5060c86101e4351115610bd6565b506101f46101c4351115610bd0565b60405162461bcd60e51b8152602060048201526001818b0152600360fc1b6044820152606490fd5b50801515610bba565b50871515610bb4565b50891515610bae565b60648960046040519162461bcd60e51b8352602082840152820152631a5b9a5d60e21b6044820152fd5b8a80fd5b8980fd5b8780fd5b50346100d5576020806003193601126107c65781546001600160a01b03908116331480610f8e575b15610f65578181600254169160105416600e5492610edc604051948593849363924acbdf60e01b85526004359033906004870161120e565b038173__$b09c1b424bda5a32420411b5d4d25ea3ad$__5af4918215610f5a578392610f2c575b5050601354908101809111610f185760135580f35b634e487b7160e01b5f52601160045260245ffd5b90809250813d8311610f53575b610f4381836111eb565b81010312610aa357515f80610f03565b503d610f39565b6040513d85823e3d90fd5b60405162461bcd60e51b81526004810183905260016024820152601960fa1b6044820152606490fd5b5060ff600b5460081c1615610ea4565b50346100d557806003193601126100d5576003546040516001600160a01b039091168152602090f35b50346100d557806003193601126100d557546040516001600160a01b039091168152602090f35b50346100d557806003193601126100d5576020601454604051908152f35b50346100d55760203660031901126100d55760043560018060a01b03600154163314806110ae575b806110a5575b1561107c5780825260176020524360408320556040514381527f79f65209505bfa18bbdbbc24ec90b61c11f058d54917d6d50c1be3735b807cc460203092a380f35b60405162461bcd60e51b81526020600482015260016024820152606360f81b6044820152606490fd5b5080151561103a565b5060ff60105460a01c16611034565b905034610aa3576020366003190112610aa3575f546001600160a01b039190821690338214806111ab575b15611185575073__$b09c1b424bda5a32420411b5d4d25ea3ad$__8260025416926010541690600f5493813b15610aa3575f9361113f6040519687958694859463c3d7bb5f60e01b8652600435916004870161120e565b03915af4801561117a57611151575080f35b90506001600160401b03811161116657604052005b634e487b7160e01b5f52604160045260245ffd5b6040513d5f823e3d90fd5b62461bcd60e51b81526020600482015260016024820152607760f81b6044820152606490fd5b5060ff600b5460081c16156110e8565b35906001600160a01b0382168203610aa357565b6101e081019081106001600160401b0382111761116657604052565b601f909101601f19168101906001600160401b0382119082101761116657604052565b6001600160a01b0391821681529181166020830152604082019290925291166060820152608081019190915260a00190565b356001600160a01b0381168103610aa35790565b908060209392818452848401375f828201840152601f01601f191601019056fea2646970667358221220d99bde0b9af434abacbaba131945d6cb1a3ef5d8429e4a04e1dd38a9668d218a64736f6c63430008180033",
  "linkReferences": {
    "contracts/libraries/ExecLib.sol": {
      "ExecLib": [
        {
          "length": 20,
          "start": 1889
        }
      ]
    },
    "contracts/libraries/IOLib.sol": {
      "IOLib": [
        {
          "length": 20,
          "start": 3835
        },
        {
          "length": 20,
          "start": 4363
        }
      ]
    },
    "contracts/libraries/SealedLib.sol": {
      "SealedLib": [
        {
          "length": 20,
          "start": 1211
        }
      ]
    }
  },
  "deployedLinkReferences": {
    "contracts/libraries/ExecLib.sol": {
      "ExecLib": [
        {
          "length": 20,
          "start": 1862
        }
      ]
    },
    "contracts/libraries/IOLib.sol": {
      "IOLib": [
        {
          "length": 20,
          "start": 3808
        },
        {
          "length": 20,
          "start": 4336
        }
      ]
    },
    "contracts/libraries/SealedLib.sol": {
      "SealedLib": [
        {
          "length": 20,
          "start": 1184
        }
      ]
    }
  }
}