{
  "_format": "hh-sol-artifact-1",
  "contractName": "ExecutionRegistry",
  "sourceName": "contracts/ExecutionRegistry.sol",
  "abi": [
    {
      "inputs": [],
      "stateMutability": "nonpayable",
      "type": "constructor"
    },
    {
      "inputs": [],
      "name": "FactoryNotAContract",
      "type": "error"
    },
    {
      "inputs": [
        {
          "internalType": "bytes32",
          "name": "intentHash",
          "type": "bytes32"
        }
      ],
      "name": "IntentAlreadyFinalized",
      "type": "error"
    },
    {
      "inputs": [
        {
          "internalType": "bytes32",
          "name": "intentHash",
          "type": "bytes32"
        }
      ],
      "name": "IntentAlreadySubmitted",
      "type": "error"
    },
    {
      "inputs": [
        {
          "internalType": "bytes32",
          "name": "intentHash",
          "type": "bytes32"
        }
      ],
      "name": "IntentNotSubmitted",
      "type": "error"
    },
    {
      "inputs": [],
      "name": "IntentOwnerMismatch",
      "type": "error"
    },
    {
      "inputs": [],
      "name": "NotAuthorizedFactoryOrAdmin",
      "type": "error"
    },
    {
      "inputs": [],
      "name": "NotAuthorizedVault",
      "type": "error"
    },
    {
      "inputs": [],
      "name": "OnlyAdmin",
      "type": "error"
    },
    {
      "inputs": [],
      "name": "OnlyPendingAdmin",
      "type": "error"
    },
    {
      "inputs": [],
      "name": "ZeroAddress",
      "type": "error"
    },
    {
      "anonymous": false,
      "inputs": [
        {
          "indexed": true,
          "internalType": "address",
          "name": "previousAdmin",
          "type": "address"
        },
        {
          "indexed": true,
          "internalType": "address",
          "name": "newAdmin",
          "type": "address"
        }
      ],
      "name": "AdminTransferStarted",
      "type": "event"
    },
    {
      "anonymous": false,
      "inputs": [
        {
          "indexed": true,
          "internalType": "address",
          "name": "previousAdmin",
          "type": "address"
        },
        {
          "indexed": true,
          "internalType": "address",
          "name": "newAdmin",
          "type": "address"
        }
      ],
      "name": "AdminTransferred",
      "type": "event"
    },
    {
      "anonymous": false,
      "inputs": [
        {
          "indexed": true,
          "internalType": "address",
          "name": "factory",
          "type": "address"
        }
      ],
      "name": "FactoryAuthorized",
      "type": "event"
    },
    {
      "anonymous": false,
      "inputs": [
        {
          "indexed": true,
          "internalType": "address",
          "name": "factory",
          "type": "address"
        }
      ],
      "name": "FactoryRevoked",
      "type": "event"
    },
    {
      "anonymous": false,
      "inputs": [
        {
          "indexed": true,
          "internalType": "address",
          "name": "vault",
          "type": "address"
        },
        {
          "indexed": true,
          "internalType": "address",
          "name": "grantedBy",
          "type": "address"
        }
      ],
      "name": "VaultAuthorized",
      "type": "event"
    },
    {
      "anonymous": false,
      "inputs": [
        {
          "indexed": true,
          "internalType": "address",
          "name": "vault",
          "type": "address"
        },
        {
          "indexed": true,
          "internalType": "address",
          "name": "revokedBy",
          "type": "address"
        }
      ],
      "name": "VaultRevoked",
      "type": "event"
    },
    {
      "inputs": [],
      "name": "acceptAdmin",
      "outputs": [],
      "stateMutability": "nonpayable",
      "type": "function"
    },
    {
      "inputs": [],
      "name": "admin",
      "outputs": [
        {
          "internalType": "address",
          "name": "",
          "type": "address"
        }
      ],
      "stateMutability": "view",
      "type": "function"
    },
    {
      "inputs": [
        {
          "internalType": "address",
          "name": "factory",
          "type": "address"
        }
      ],
      "name": "authorizeFactory",
      "outputs": [],
      "stateMutability": "nonpayable",
      "type": "function"
    },
    {
      "inputs": [
        {
          "internalType": "address",
          "name": "vault",
          "type": "address"
        }
      ],
      "name": "authorizeVault",
      "outputs": [],
      "stateMutability": "nonpayable",
      "type": "function"
    },
    {
      "inputs": [
        {
          "internalType": "address",
          "name": "",
          "type": "address"
        }
      ],
      "name": "authorizedFactories",
      "outputs": [
        {
          "internalType": "bool",
          "name": "",
          "type": "bool"
        }
      ],
      "stateMutability": "view",
      "type": "function"
    },
    {
      "inputs": [
        {
          "internalType": "address",
          "name": "",
          "type": "address"
        }
      ],
      "name": "authorizedVaults",
      "outputs": [
        {
          "internalType": "bool",
          "name": "",
          "type": "bool"
        }
      ],
      "stateMutability": "view",
      "type": "function"
    },
    {
      "inputs": [],
      "name": "cancelAdminTransfer",
      "outputs": [],
      "stateMutability": "nonpayable",
      "type": "function"
    },
    {
      "inputs": [
        {
          "internalType": "address",
          "name": "vault",
          "type": "address"
        },
        {
          "internalType": "address",
          "name": "assetIn",
          "type": "address"
        },
        {
          "internalType": "address",
          "name": "assetOut",
          "type": "address"
        },
        {
          "internalType": "uint256",
          "name": "amountIn",
          "type": "uint256"
        },
        {
          "internalType": "uint256",
          "name": "minAmountOut",
          "type": "uint256"
        },
        {
          "internalType": "uint256",
          "name": "createdAt",
          "type": "uint256"
        },
        {
          "internalType": "uint256",
          "name": "expiresAt",
          "type": "uint256"
        },
        {
          "internalType": "uint256",
          "name": "confidenceBps",
          "type": "uint256"
        },
        {
          "internalType": "uint256",
          "name": "riskScoreBps",
          "type": "uint256"
        }
      ],
      "name": "computeIntentHash",
      "outputs": [
        {
          "internalType": "bytes32",
          "name": "",
          "type": "bytes32"
        }
      ],
      "stateMutability": "pure",
      "type": "function"
    },
    {
      "inputs": [
        {
          "components": [
            {
              "internalType": "bytes32",
              "name": "intentHash",
              "type": "bytes32"
            },
            {
              "internalType": "bytes32",
              "name": "venueTxRef",
              "type": "bytes32"
            },
            {
              "internalType": "uint256",
              "name": "amountIn",
              "type": "uint256"
            },
            {
              "internalType": "uint256",
              "name": "amountOut",
              "type": "uint256"
            },
            {
              "internalType": "uint256",
              "name": "executedAt",
              "type": "uint256"
            },
            {
              "internalType": "bool",
              "name": "success",
              "type": "bool"
            }
          ],
          "internalType": "struct ExecutionResult",
          "name": "result",
          "type": "tuple"
        }
      ],
      "name": "finalizeIntent",
      "outputs": [],
      "stateMutability": "nonpayable",
      "type": "function"
    },
    {
      "inputs": [
        {
          "internalType": "bytes32",
          "name": "intentHash",
          "type": "bytes32"
        }
      ],
      "name": "getResult",
      "outputs": [
        {
          "components": [
            {
              "internalType": "bytes32",
              "name": "intentHash",
              "type": "bytes32"
            },
            {
              "internalType": "bytes32",
              "name": "venueTxRef",
              "type": "bytes32"
            },
            {
              "internalType": "uint256",
              "name": "amountIn",
              "type": "uint256"
            },
            {
              "internalType": "uint256",
              "name": "amountOut",
              "type": "uint256"
            },
            {
              "internalType": "uint256",
              "name": "executedAt",
              "type": "uint256"
            },
            {
              "internalType": "bool",
              "name": "success",
              "type": "bool"
            }
          ],
          "internalType": "struct ExecutionResult",
          "name": "",
          "type": "tuple"
        }
      ],
      "stateMutability": "view",
      "type": "function"
    },
    {
      "inputs": [
        {
          "internalType": "address",
          "name": "vault",
          "type": "address"
        },
        {
          "internalType": "uint256",
          "name": "index",
          "type": "uint256"
        }
      ],
      "name": "getVaultIntentAt",
      "outputs": [
        {
          "internalType": "bytes32",
          "name": "",
          "type": "bytes32"
        }
      ],
      "stateMutability": "view",
      "type": "function"
    },
    {
      "inputs": [
        {
          "internalType": "address",
          "name": "vault",
          "type": "address"
        }
      ],
      "name": "getVaultIntentCount",
      "outputs": [
        {
          "internalType": "uint256",
          "name": "",
          "type": "uint256"
        }
      ],
      "stateMutability": "view",
      "type": "function"
    },
    {
      "inputs": [
        {
          "internalType": "bytes32",
          "name": "",
          "type": "bytes32"
        }
      ],
      "name": "intentFinalized",
      "outputs": [
        {
          "internalType": "bool",
          "name": "",
          "type": "bool"
        }
      ],
      "stateMutability": "view",
      "type": "function"
    },
    {
      "inputs": [
        {
          "internalType": "bytes32",
          "name": "",
          "type": "bytes32"
        }
      ],
      "name": "intentOwner",
      "outputs": [
        {
          "internalType": "address",
          "name": "",
          "type": "address"
        }
      ],
      "stateMutability": "view",
      "type": "function"
    },
    {
      "inputs": [
        {
          "internalType": "bytes32",
          "name": "",
          "type": "bytes32"
        }
      ],
      "name": "intentSubmitted",
      "outputs": [
        {
          "internalType": "bool",
          "name": "",
          "type": "bool"
        }
      ],
      "stateMutability": "view",
      "type": "function"
    },
    {
      "inputs": [
        {
          "internalType": "bytes32",
          "name": "intentHash",
          "type": "bytes32"
        }
      ],
      "name": "isFinalized",
      "outputs": [
        {
          "internalType": "bool",
          "name": "",
          "type": "bool"
        }
      ],
      "stateMutability": "view",
      "type": "function"
    },
    {
      "inputs": [
        {
          "internalType": "bytes32",
          "name": "intentHash",
          "type": "bytes32"
        }
      ],
      "name": "isSubmitted",
      "outputs": [
        {
          "internalType": "bool",
          "name": "",
          "type": "bool"
        }
      ],
      "stateMutability": "view",
      "type": "function"
    },
    {
      "inputs": [],
      "name": "pendingAdmin",
      "outputs": [
        {
          "internalType": "address",
          "name": "",
          "type": "address"
        }
      ],
      "stateMutability": "view",
      "type": "function"
    },
    {
      "inputs": [
        {
          "internalType": "bytes32",
          "name": "intentHash",
          "type": "bytes32"
        },
        {
          "internalType": "address",
          "name": "",
          "type": "address"
        }
      ],
      "name": "registerIntent",
      "outputs": [],
      "stateMutability": "nonpayable",
      "type": "function"
    },
    {
      "inputs": [
        {
          "internalType": "bytes32",
          "name": "",
          "type": "bytes32"
        }
      ],
      "name": "results",
      "outputs": [
        {
          "internalType": "bytes32",
          "name": "intentHash",
          "type": "bytes32"
        },
        {
          "internalType": "bytes32",
          "name": "venueTxRef",
          "type": "bytes32"
        },
        {
          "internalType": "uint256",
          "name": "amountIn",
          "type": "uint256"
        },
        {
          "internalType": "uint256",
          "name": "amountOut",
          "type": "uint256"
        },
        {
          "internalType": "uint256",
          "name": "executedAt",
          "type": "uint256"
        },
        {
          "internalType": "bool",
          "name": "success",
          "type": "bool"
        }
      ],
      "stateMutability": "view",
      "type": "function"
    },
    {
      "inputs": [
        {
          "internalType": "address",
          "name": "factory",
          "type": "address"
        }
      ],
      "name": "revokeFactory",
      "outputs": [],
      "stateMutability": "nonpayable",
      "type": "function"
    },
    {
      "inputs": [
        {
          "internalType": "address",
          "name": "vault",
          "type": "address"
        }
      ],
      "name": "revokeVault",
      "outputs": [],
      "stateMutability": "nonpayable",
      "type": "function"
    },
    {
      "inputs": [
        {
          "internalType": "address",
          "name": "newAdmin",
          "type": "address"
        }
      ],
      "name": "transferAdmin",
      "outputs": [],
      "stateMutability": "nonpayable",
      "type": "function"
    },
    {
      "inputs": [
        {
          "internalType": "address",
          "name": "",
          "type": "address"
        },
        {
          "internalType": "uint256",
          "name": "",
          "type": "uint256"
        }
      ],
      "name": "vaultIntents",
      "outputs": [
        {
          "internalType": "bytes32",
          "name": "",
          "type": "bytes32"
        }
      ],
      "stateMutability": "view",
      "type": "function"
    }
  ],
  "bytecode": "0x60808060405234610027575f80546001600160a01b03191633179055610b5f908161002c8239f35b5f80fdfe6080604090808252600480361015610015575f80fd5b5f3560e01c9182621189dd14610a2b575081630e18b681146109ae5781630f9b6cf41461054b5781631474be95146108ab578163181fd012146108045781631dcbdf0314610747578163267822471461071f578163393b8516146106e35781634c6b25b11461068057816357b6f99c1461065157816375829def146105c057816377739910146105775781637f8d429e1461054b5781638056616f1461046257816388c663981461015157816397268a18146103b45781639a387e7014610373578163add4c784146102b0578163be6274b814610279578163c3fb16ca146101ff578163ecd24a82146101c3578163f3a0f4541461017c578163f6a3433714610151575063f851a44014610127575f80fd5b3461014d575f36600319011261014d575f5490516001600160a01b039091168152602090f35b5f80fd5b823461014d57602036600319011261014d5781602092355f52825260ff815f20541690519015158152f35b823461014d578060031936011261014d576020906001600160a01b036101a0610aa5565b165f52600782526101b5602435825f20610ad1565b91905490519160031b1c8152f35b823461014d57602036600319011261014d576020906001600160a01b036101e8610aa5565b165f526002825260ff815f20541690519015158152f35b90503461014d57602036600319011261014d5761021a610aa5565b5f546001600160a01b0392908316330361026b57501690815f5260036020525f2060ff19815416905533907f80a3d4de282e76b6911cf4ad67bbd6f919e933d38d63f6abcbc53ddce4ace7de5f80a3005b8351634755657960e01b8152fd5b823461014d57602036600319011261014d576020906001600160a01b0361029e610aa5565b165f5260078252805f20549051908152f35b823461014d57602036600319011261014d5760c0915f60a083516102d381610afa565b8281528260208201528285820152826060820152826080820152015280355f526006602052815f2082519161030783610afa565b81549384845260018301546020850190815260028401549082860191825260a060ff600560038801549660608a019788528801549760808a01988952015416960195151586528251968752516020870152519085015251606084015251608083015251151560a0820152f35b823461014d575f36600319011261014d575f546001600160a01b031633036103a757600180546001600160a01b0319169055005b51634755657960e01b8152fd5b823461014d57602036600319011261014d576103ce610aa5565b5f546001600160a01b03919082163314158061044c575b61043d571691821561042f5750815f5260036020525f20600160ff1982541617905533907fe6fe0c5c51ed436c7edeb43948fdc5dae08526b38ae2101c4b6906dfaa18a82d5f80a3005b905163d92e233d60e01b8152fd5b505051631ff9b16f60e11b8152fd5b50335f52600260205260ff835f205416156103e5565b823461014d578060031936011261014d5781359061047e610abb565b50335f52600360205260ff815f2054161561053c57815f528260205260ff815f205416610528575f8281526020848152828220805460ff191660011790556008815282822080546001600160a01b0319163390811790915582526007905220805490600160401b82101561051557906104fc91600182018155610ad1565b819291549060031b91821b915f19901b19161790555f80f35b604184634e487b7160e01b5f525260245ffd5b5163be71bf7760e01b815291820152602490fd5b516315a331c160e31b81529050fd5b823461014d57602036600319011261014d57602091355f526005825260ff815f20541690519015158152f35b823461014d578060031936011261014d57610590610aa5565b6001600160a01b03165f9081526007602052819020805460243592919083101561014d576020926101b591610ad1565b90503461014d57602036600319011261014d576105db610aa5565b5f546001600160a01b039081169291338490036106415716928315610634575050600180546001600160a01b031916831790557fe5cd1c804f1c9cc6d7009e4c0fb532f0e2d8863524c3323a6b3790c3f80bf25c5f80a3005b5163d92e233d60e01b8152fd5b8451634755657960e01b81528390fd5b823461014d57602036600319011261014d57602091355f526008825260018060a01b03815f2054169051908152f35b90503461014d57602036600319011261014d5760c09181355f526006602052805f2080549260018201549260028301549060ff600560038601549486015495015416948151968752602087015285015260608401526080830152151560a0820152f35b823461014d57602036600319011261014d576020906001600160a01b03610708610aa5565b165f526003825260ff815f20541690519015158152f35b823461014d575f36600319011261014d5760015490516001600160a01b039091168152602090f35b90503461014d576101208060031936011261014d57610764610aa5565b9061076d610abb565b906044356001600160a01b038181169182900361014d5786519381602086019616865216868401526060830152606435608083015260843560a083015260a43560c083015260c43560e083015260e4356101008301526101043581830152815261014081019281841060018060401b038511176107f1575082602094525190208152f35b604190634e487b7160e01b5f525260245ffd5b823461014d57602036600319011261014d5761081e610aa5565b5f549092906001600160a01b03908116330361089c57831692831561088d573b1561087f5750815f5260026020525f20600160ff198254161790557f2fa23115f2b369fc34eda97ccf6bc2fab82882719f0547f3e45a9a400086aeae5f80a2005b9051637cf56cf760e11b8152fd5b50905163d92e233d60e01b8152fd5b509051634755657960e01b8152fd5b823461014d5760c036600319011261014d57335f526020906003825260ff815f2054161561053c57823590815f5283835260ff815f2054161561099957815f526005835260ff815f20541661098457815f52600883523360018060a01b03825f20541603610975579260059293825f528385526006815f209560ff1996600188825416179055525f2091825560243560018301556044356002830155606435600383015560843590820155019060a4359081151580920361014d5760ff9083541691161790555f80f35b5163504cd0b960e01b81528390fd5b5163cbfe466560e01b81529283015250602490fd5b5163f6fc553160e01b81529283015250602490fd5b90503461014d575f36600319011261014d576001546001600160a01b038082169390929033859003610a1e5750505f80546001600160a01b0319808216861783559092166001559116907ff8ccb027dfcd135e000e9d45e6cc2d662578a8825d4c45b5e32e0adf67e79ec69080a3005b5163d1ec4b2360e01b8152fd5b91503461014d57602036600319011261014d57610a46610aa5565b5f546001600160a01b03939192919084163303610a995750501690815f5260026020525f2060ff1981541690557fd25dd45a1811dc9170ab90c454ef2024f3086a79da5279a8d42f39bdda8f36d15f80a2005b634755657960e01b8152fd5b600435906001600160a01b038216820361014d57565b602435906001600160a01b038216820361014d57565b8054821015610ae6575f5260205f2001905f90565b634e487b7160e01b5f52603260045260245ffd5b60c081019081106001600160401b03821117610b1557604052565b634e487b7160e01b5f52604160045260245ffdfea2646970667358221220372e2f939be8655158c1dd85ede0ef61d026f63fe53b5e3561bdbc278ed794b664736f6c63430008180033",
  "linkReferences": {},
  "deployedLinkReferences": {}
}