{
  "_format": "hh-sol-artifact-1",
  "contractName": "OperatorReputation",
  "sourceName": "contracts/OperatorReputation.sol",
  "abi": [
    {
      "inputs": [
        {
          "internalType": "address",
          "name": "_admin",
          "type": "address"
        }
      ],
      "stateMutability": "nonpayable",
      "type": "constructor"
    },
    {
      "inputs": [],
      "name": "AlreadyRated",
      "type": "error"
    },
    {
      "inputs": [],
      "name": "CommentTooLong",
      "type": "error"
    },
    {
      "inputs": [],
      "name": "InvalidRating",
      "type": "error"
    },
    {
      "inputs": [],
      "name": "NotAdmin",
      "type": "error"
    },
    {
      "inputs": [],
      "name": "NotAuthorized",
      "type": "error"
    },
    {
      "inputs": [],
      "name": "NotEligibleToRate",
      "type": "error"
    },
    {
      "inputs": [],
      "name": "ZeroAddress",
      "type": "error"
    },
    {
      "anonymous": false,
      "inputs": [
        {
          "indexed": true,
          "internalType": "address",
          "name": "previous",
          "type": "address"
        },
        {
          "indexed": true,
          "internalType": "address",
          "name": "next",
          "type": "address"
        }
      ],
      "name": "AdminTransferred",
      "type": "event"
    },
    {
      "anonymous": false,
      "inputs": [
        {
          "indexed": true,
          "internalType": "address",
          "name": "operator",
          "type": "address"
        },
        {
          "indexed": true,
          "internalType": "address",
          "name": "vault",
          "type": "address"
        },
        {
          "indexed": false,
          "internalType": "uint256",
          "name": "volumeUsd6",
          "type": "uint256"
        },
        {
          "indexed": false,
          "internalType": "int256",
          "name": "pnlUsd6",
          "type": "int256"
        },
        {
          "indexed": false,
          "internalType": "bool",
          "name": "success",
          "type": "bool"
        },
        {
          "indexed": false,
          "internalType": "uint256",
          "name": "timestamp",
          "type": "uint256"
        }
      ],
      "name": "ExecutionRecorded",
      "type": "event"
    },
    {
      "anonymous": false,
      "inputs": [
        {
          "indexed": true,
          "internalType": "address",
          "name": "operator",
          "type": "address"
        },
        {
          "indexed": true,
          "internalType": "address",
          "name": "rater",
          "type": "address"
        },
        {
          "indexed": false,
          "internalType": "uint8",
          "name": "stars",
          "type": "uint8"
        },
        {
          "indexed": false,
          "internalType": "string",
          "name": "comment",
          "type": "string"
        }
      ],
      "name": "RatingSubmitted",
      "type": "event"
    },
    {
      "anonymous": false,
      "inputs": [
        {
          "indexed": true,
          "internalType": "address",
          "name": "recorder",
          "type": "address"
        },
        {
          "indexed": false,
          "internalType": "bool",
          "name": "allowed",
          "type": "bool"
        }
      ],
      "name": "RecorderAuthorized",
      "type": "event"
    },
    {
      "anonymous": false,
      "inputs": [
        {
          "indexed": true,
          "internalType": "address",
          "name": "operator",
          "type": "address"
        },
        {
          "indexed": false,
          "internalType": "bool",
          "name": "verified",
          "type": "bool"
        }
      ],
      "name": "VerifiedBadgeChanged",
      "type": "event"
    },
    {
      "inputs": [],
      "name": "admin",
      "outputs": [
        {
          "internalType": "address",
          "name": "",
          "type": "address"
        }
      ],
      "stateMutability": "view",
      "type": "function"
    },
    {
      "inputs": [
        {
          "internalType": "address",
          "name": "",
          "type": "address"
        }
      ],
      "name": "authorizedRecorders",
      "outputs": [
        {
          "internalType": "bool",
          "name": "",
          "type": "bool"
        }
      ],
      "stateMutability": "view",
      "type": "function"
    },
    {
      "inputs": [
        {
          "internalType": "address",
          "name": "operator",
          "type": "address"
        }
      ],
      "name": "averageRatingScaled",
      "outputs": [
        {
          "internalType": "uint256",
          "name": "",
          "type": "uint256"
        }
      ],
      "stateMutability": "view",
      "type": "function"
    },
    {
      "inputs": [
        {
          "internalType": "address",
          "name": "",
          "type": "address"
        },
        {
          "internalType": "address",
          "name": "",
          "type": "address"
        }
      ],
      "name": "eligibleRater",
      "outputs": [
        {
          "internalType": "bool",
          "name": "",
          "type": "bool"
        }
      ],
      "stateMutability": "view",
      "type": "function"
    },
    {
      "inputs": [
        {
          "internalType": "address",
          "name": "operator",
          "type": "address"
        }
      ],
      "name": "getStats",
      "outputs": [
        {
          "components": [
            {
              "internalType": "uint256",
              "name": "totalExecutions",
              "type": "uint256"
            },
            {
              "internalType": "uint256",
              "name": "successfulExecutions",
              "type": "uint256"
            },
            {
              "internalType": "uint256",
              "name": "totalVolumeUsd6",
              "type": "uint256"
            },
            {
              "internalType": "int256",
              "name": "cumulativePnlUsd6",
              "type": "int256"
            },
            {
              "internalType": "uint256",
              "name": "lastExecutionAt",
              "type": "uint256"
            },
            {
              "internalType": "uint256",
              "name": "firstExecutionAt",
              "type": "uint256"
            },
            {
              "internalType": "uint256",
              "name": "ratingCount",
              "type": "uint256"
            },
            {
              "internalType": "uint256",
              "name": "ratingSumScaled",
              "type": "uint256"
            },
            {
              "internalType": "bool",
              "name": "verified",
              "type": "bool"
            }
          ],
          "internalType": "struct OperatorReputation.Stats",
          "name": "",
          "type": "tuple"
        }
      ],
      "stateMutability": "view",
      "type": "function"
    },
    {
      "inputs": [
        {
          "internalType": "address",
          "name": "",
          "type": "address"
        },
        {
          "internalType": "address",
          "name": "",
          "type": "address"
        }
      ],
      "name": "hasRated",
      "outputs": [
        {
          "internalType": "bool",
          "name": "",
          "type": "bool"
        }
      ],
      "stateMutability": "view",
      "type": "function"
    },
    {
      "inputs": [
        {
          "internalType": "address",
          "name": "operator",
          "type": "address"
        },
        {
          "internalType": "address",
          "name": "rater",
          "type": "address"
        }
      ],
      "name": "markEligibleRater",
      "outputs": [],
      "stateMutability": "nonpayable",
      "type": "function"
    },
    {
      "inputs": [
        {
          "internalType": "address",
          "name": "operator",
          "type": "address"
        },
        {
          "internalType": "uint256",
          "name": "volumeUsd6",
          "type": "uint256"
        },
        {
          "internalType": "int256",
          "name": "pnlUsd6",
          "type": "int256"
        },
        {
          "internalType": "bool",
          "name": "success",
          "type": "bool"
        }
      ],
      "name": "recordExecution",
      "outputs": [],
      "stateMutability": "nonpayable",
      "type": "function"
    },
    {
      "inputs": [
        {
          "internalType": "address",
          "name": "recorder",
          "type": "address"
        },
        {
          "internalType": "bool",
          "name": "allowed",
          "type": "bool"
        }
      ],
      "name": "setRecorder",
      "outputs": [],
      "stateMutability": "nonpayable",
      "type": "function"
    },
    {
      "inputs": [
        {
          "internalType": "address",
          "name": "operator",
          "type": "address"
        },
        {
          "internalType": "bool",
          "name": "verified",
          "type": "bool"
        }
      ],
      "name": "setVerified",
      "outputs": [],
      "stateMutability": "nonpayable",
      "type": "function"
    },
    {
      "inputs": [
        {
          "internalType": "address",
          "name": "",
          "type": "address"
        }
      ],
      "name": "stats",
      "outputs": [
        {
          "internalType": "uint256",
          "name": "totalExecutions",
          "type": "uint256"
        },
        {
          "internalType": "uint256",
          "name": "successfulExecutions",
          "type": "uint256"
        },
        {
          "internalType": "uint256",
          "name": "totalVolumeUsd6",
          "type": "uint256"
        },
        {
          "internalType": "int256",
          "name": "cumulativePnlUsd6",
          "type": "int256"
        },
        {
          "internalType": "uint256",
          "name": "lastExecutionAt",
          "type": "uint256"
        },
        {
          "internalType": "uint256",
          "name": "firstExecutionAt",
          "type": "uint256"
        },
        {
          "internalType": "uint256",
          "name": "ratingCount",
          "type": "uint256"
        },
        {
          "internalType": "uint256",
          "name": "ratingSumScaled",
          "type": "uint256"
        },
        {
          "internalType": "bool",
          "name": "verified",
          "type": "bool"
        }
      ],
      "stateMutability": "view",
      "type": "function"
    },
    {
      "inputs": [
        {
          "internalType": "address",
          "name": "operator",
          "type": "address"
        },
        {
          "internalType": "uint8",
          "name": "stars",
          "type": "uint8"
        },
        {
          "internalType": "string",
          "name": "comment",
          "type": "string"
        }
      ],
      "name": "submitRating",
      "outputs": [],
      "stateMutability": "nonpayable",
      "type": "function"
    },
    {
      "inputs": [
        {
          "internalType": "address",
          "name": "operator",
          "type": "address"
        }
      ],
      "name": "successRateBps",
      "outputs": [
        {
          "internalType": "uint256",
          "name": "",
          "type": "uint256"
        }
      ],
      "stateMutability": "view",
      "type": "function"
    },
    {
      "inputs": [
        {
          "internalType": "address",
          "name": "newAdmin",
          "type": "address"
        }
      ],
      "name": "transferAdmin",
      "outputs": [],
      "stateMutability": "nonpayable",
      "type": "function"
    }
  ],
  "bytecode": "0x60803461008b57601f610afb38819003918201601f19168301916001600160401b0383118484101761008f5780849260209460405283398101031261008b57516001600160a01b0381169081900361008b578015610079575f80546001600160a01b031916919091179055604051610a5790816100a48239f35b60405163d92e233d60e01b8152600490fd5b5f80fd5b634e487b7160e01b5f52604160045260245ffdfe6080604090808252600480361015610015575f80fd5b5f3560e01c9182631c35418b14610850575081632c365df6146108025781632dca3089146107b6578163637afbd3146107915781636b39349f1461070f57816375829def1461067f5781638bcdcbf3146105eb5781639bcaf5d8146104315781639cf5c61314610395578163ac9a5e9a14610359578163c23f85d61461023d578163dbe5e5c614610211578163ea865f10146100e4575063f851a440146100ba575f80fd5b346100e0575f3660031901126100e0575f5490516001600160a01b039091168152602090f35b5f80fd5b9050346100e05760803660031901126100e0576100ff6108e6565b60243592604435606435801515938482036100e057335f52600160205260ff845f205416156102015760018060a01b031694855f526002602052835f20918254600181018091116101d65783556101e9575b6002820161016088825461099d565b905560038201805490848201915f86841291129080158216911516176101d6575542908201556005018054156101cd575b50815194855260208501528301524260608301527f13652b605a16cda61e657c55c8679f4e5526012595df7b76b9b71e3a5a1e36af60803393a3005b4290555f610191565b601183634e487b7160e01b5f525260245ffd5b60018201805490600182018092116101d65755610151565b835163ea8e4eb560e01b81528690fd5b82346100e05760203660031901126100e0576020906102366102316108e6565b6109de565b9051908152f35b9050346100e05760203660031901126100e0576101209161025c6108e6565b906102656109aa565b915f83525f60208401525f828401525f60608401525f60808401525f60a08401525f60c08401525f60e08401525f6101008094015260018060a01b03165f526002602052805f206102b46109aa565b918154948584526001830154916020850192835260028401549181860192835260038501549060608701918252850154916080870192835260058601549360a0880194855260068701549560c089019687528960ff600860078b01549a60e08d019b8c520154169901981515895282519a8b525160208b015251908901525160608801525160808701525160a08601525160c08501525160e084015251151590820152f35b82346100e05760203660031901126100e0576020906001600160a01b0361037e6108e6565b165f526001825260ff815f20541690519015158152f35b9050346100e057816003193601126100e0576103af6108e6565b906103b8610912565b5f5490926001600160a01b03929091831633036104235750916020917f906e43327518e5f7b4b1f045a0c8274e9fa0c85defa2042ad0bb88f41a4443d2931693845f526002835261041a826008835f20019060ff801983541691151516179055565b519015158152a2005b8451637bfa4b9f60e01b8152fd5b9050346100e05760603660031901126100e05761044c6108e6565b916024359060ff82168092036100e0576001600160401b039360443591908583116100e057366023840112156100e057828501359586116100e05736602487850101116100e0576001841080156105e1575b6105d15761010086116105c15760018060a01b031693845f52602090808252825f20335f52825260ff835f205416156105b357855f5260038252825f20335f52825260ff835f2054166105a557855f5260038252825f20335f528252825f20600160ff19825416179055855f5260028252825f209060068201805491600183018093116105925750938060249460077f0e3f87f0b7198277871062987aa8b26c5863a00b6f8e463d224b951be69a6ffb9998958c98958996550161056389825461099d565b905581519788528701528501520160608301375f606085830101526060813395601f80199101168101030190a3005b601190634e487b7160e01b5f525260245ffd5b8251630894b2e960e31b8152fd5b8251630858473560e21b8152fd5b8151632f5410ab60e21b81528590fd5b815163d29df2dd60e01b81528590fd5b506005841161049e565b82346100e05760203660031901126100e057610120916001600160a01b036106116108e6565b165f526002602052815f208054926001820154926002830154906003840154908401549060058501549260068601549460ff6008600789015498015416978151998a5260208a01528801526060870152608086015260a085015260c084015260e08301521515610100820152f35b9050346100e05760203660031901126100e05761069a6108e6565b5f546001600160a01b03808216939192338590036106ff57169384156106f25750506001600160a01b03191682175f9081557ff8ccb027dfcd135e000e9d45e6cc2d662578a8825d4c45b5e32e0adf67e79ec69080a3005b5163d92e233d60e01b8152fd5b8551637bfa4b9f60e01b81528390fd5b9050346100e057816003193601126100e0576107296108e6565b90610732610912565b5f5490926001600160a01b03929091831633036104235750916020917fe46649751383abb617a7be78ce356e4e1b084f1660bee6916205e4b4f462de78931693845f526001835261041a82825f209060ff801983541691151516179055565b82346100e05760203660031901126100e0576020906102366107b16108e6565b61093f565b82346100e057806003193601126100e0576020916107d26108e6565b6107da6108fc565b9160018060a01b038092165f528452825f2091165f52825260ff815f20541690519015158152f35b82346100e057806003193601126100e05760209061081e6108e6565b6108266108fc565b9060018060a01b038091165f5260038452825f2091165f52825260ff815f20541690519015158152f35b9150346100e057826003193601126100e05761086a6108e6565b906108736108fc565b92335f52600160205260ff855f205416156108da57506001600160a01b03918216801580156108d0575b6108c1575f52602052825f2091165f526020525f20600160ff198254161790555f80f35b50835163d92e233d60e01b8152fd5b508284161561089d565b63ea8e4eb560e01b8152fd5b600435906001600160a01b03821682036100e057565b602435906001600160a01b03821682036100e057565b6024359081151582036100e057565b811561092b570490565b634e487b7160e01b5f52601260045260245ffd5b6001600160a01b03165f9081526002602052604090208054908115610997576001015490612710918281029281840414901517156109835761098091610921565b90565b634e487b7160e01b5f52601160045260245ffd5b50505f90565b9190820180921161098357565b6040519061012082016001600160401b038111838210176109ca57604052565b634e487b7160e01b5f52604160045260245ffd5b6001600160a01b03165f9081526002602052604090206006810154908115610997576007015490606482029180830460641490151715610983576109809161092156fea2646970667358221220bb1cab31bb2118c6732bc01e9a337c4fc28492b62debc78fee10c321008165a964736f6c63430008180033",
  "linkReferences": {},
  "deployedLinkReferences": {}
}