{
  "_format": "hh-sol-artifact-1",
  "contractName": "ProtocolTreasury",
  "sourceName": "contracts/ProtocolTreasury.sol",
  "abi": [
    {
      "inputs": [
        {
          "internalType": "address",
          "name": "_admin",
          "type": "address"
        }
      ],
      "stateMutability": "nonpayable",
      "type": "constructor"
    },
    {
      "inputs": [],
      "name": "InsufficientBalance",
      "type": "error"
    },
    {
      "inputs": [],
      "name": "NativeTransferFailed",
      "type": "error"
    },
    {
      "inputs": [],
      "name": "OnlyAdmin",
      "type": "error"
    },
    {
      "inputs": [],
      "name": "OnlyApprovedSpender",
      "type": "error"
    },
    {
      "inputs": [],
      "name": "OnlyAuthorizedReporter",
      "type": "error"
    },
    {
      "inputs": [],
      "name": "OnlyPendingAdmin",
      "type": "error"
    },
    {
      "inputs": [],
      "name": "ReentrancyGuardReentrantCall",
      "type": "error"
    },
    {
      "inputs": [
        {
          "internalType": "address",
          "name": "token",
          "type": "address"
        }
      ],
      "name": "SafeERC20FailedOperation",
      "type": "error"
    },
    {
      "inputs": [],
      "name": "ZeroAddress",
      "type": "error"
    },
    {
      "anonymous": false,
      "inputs": [
        {
          "indexed": true,
          "internalType": "address",
          "name": "currentAdmin",
          "type": "address"
        },
        {
          "indexed": true,
          "internalType": "address",
          "name": "pendingAdmin",
          "type": "address"
        }
      ],
      "name": "AdminTransferStarted",
      "type": "event"
    },
    {
      "anonymous": false,
      "inputs": [
        {
          "indexed": true,
          "internalType": "address",
          "name": "oldAdmin",
          "type": "address"
        },
        {
          "indexed": true,
          "internalType": "address",
          "name": "newAdmin",
          "type": "address"
        }
      ],
      "name": "AdminTransferred",
      "type": "event"
    },
    {
      "anonymous": false,
      "inputs": [
        {
          "indexed": true,
          "internalType": "address",
          "name": "token",
          "type": "address"
        },
        {
          "indexed": true,
          "internalType": "address",
          "name": "from",
          "type": "address"
        },
        {
          "indexed": false,
          "internalType": "uint256",
          "name": "amount",
          "type": "uint256"
        }
      ],
      "name": "Received",
      "type": "event"
    },
    {
      "anonymous": false,
      "inputs": [
        {
          "indexed": true,
          "internalType": "address",
          "name": "reporter",
          "type": "address"
        },
        {
          "indexed": false,
          "internalType": "bool",
          "name": "allowed",
          "type": "bool"
        }
      ],
      "name": "ReporterAuthorized",
      "type": "event"
    },
    {
      "anonymous": false,
      "inputs": [
        {
          "indexed": true,
          "internalType": "address",
          "name": "spender",
          "type": "address"
        },
        {
          "indexed": false,
          "internalType": "bool",
          "name": "approved",
          "type": "bool"
        }
      ],
      "name": "SpenderApproved",
      "type": "event"
    },
    {
      "anonymous": false,
      "inputs": [
        {
          "indexed": true,
          "internalType": "address",
          "name": "token",
          "type": "address"
        },
        {
          "indexed": true,
          "internalType": "address",
          "name": "to",
          "type": "address"
        },
        {
          "indexed": false,
          "internalType": "uint256",
          "name": "amount",
          "type": "uint256"
        },
        {
          "indexed": false,
          "internalType": "string",
          "name": "purpose",
          "type": "string"
        }
      ],
      "name": "Spent",
      "type": "event"
    },
    {
      "inputs": [],
      "name": "acceptAdmin",
      "outputs": [],
      "stateMutability": "nonpayable",
      "type": "function"
    },
    {
      "inputs": [],
      "name": "admin",
      "outputs": [
        {
          "internalType": "address",
          "name": "",
          "type": "address"
        }
      ],
      "stateMutability": "view",
      "type": "function"
    },
    {
      "inputs": [
        {
          "internalType": "address",
          "name": "",
          "type": "address"
        }
      ],
      "name": "approvedSpenders",
      "outputs": [
        {
          "internalType": "bool",
          "name": "",
          "type": "bool"
        }
      ],
      "stateMutability": "view",
      "type": "function"
    },
    {
      "inputs": [
        {
          "internalType": "address",
          "name": "",
          "type": "address"
        }
      ],
      "name": "authorizedReporters",
      "outputs": [
        {
          "internalType": "bool",
          "name": "",
          "type": "bool"
        }
      ],
      "stateMutability": "view",
      "type": "function"
    },
    {
      "inputs": [],
      "name": "cancelAdminTransfer",
      "outputs": [],
      "stateMutability": "nonpayable",
      "type": "function"
    },
    {
      "inputs": [
        {
          "internalType": "address",
          "name": "token",
          "type": "address"
        }
      ],
      "name": "getBalance",
      "outputs": [
        {
          "internalType": "uint256",
          "name": "",
          "type": "uint256"
        }
      ],
      "stateMutability": "view",
      "type": "function"
    },
    {
      "inputs": [
        {
          "internalType": "address",
          "name": "",
          "type": "address"
        }
      ],
      "name": "lifetimeRevenue",
      "outputs": [
        {
          "internalType": "uint256",
          "name": "",
          "type": "uint256"
        }
      ],
      "stateMutability": "view",
      "type": "function"
    },
    {
      "inputs": [
        {
          "internalType": "address",
          "name": "token",
          "type": "address"
        },
        {
          "internalType": "uint256",
          "name": "amount",
          "type": "uint256"
        }
      ],
      "name": "notifyReceived",
      "outputs": [],
      "stateMutability": "nonpayable",
      "type": "function"
    },
    {
      "inputs": [],
      "name": "pendingAdmin",
      "outputs": [
        {
          "internalType": "address",
          "name": "",
          "type": "address"
        }
      ],
      "stateMutability": "view",
      "type": "function"
    },
    {
      "inputs": [
        {
          "internalType": "address",
          "name": "reporter",
          "type": "address"
        },
        {
          "internalType": "bool",
          "name": "allowed",
          "type": "bool"
        }
      ],
      "name": "setReporter",
      "outputs": [],
      "stateMutability": "nonpayable",
      "type": "function"
    },
    {
      "inputs": [
        {
          "internalType": "address",
          "name": "spender",
          "type": "address"
        },
        {
          "internalType": "bool",
          "name": "approved",
          "type": "bool"
        }
      ],
      "name": "setSpender",
      "outputs": [],
      "stateMutability": "nonpayable",
      "type": "function"
    },
    {
      "inputs": [
        {
          "internalType": "address",
          "name": "token",
          "type": "address"
        },
        {
          "internalType": "address",
          "name": "to",
          "type": "address"
        },
        {
          "internalType": "uint256",
          "name": "amount",
          "type": "uint256"
        },
        {
          "internalType": "string",
          "name": "purpose",
          "type": "string"
        }
      ],
      "name": "spend",
      "outputs": [],
      "stateMutability": "nonpayable",
      "type": "function"
    },
    {
      "inputs": [
        {
          "internalType": "address payable",
          "name": "to",
          "type": "address"
        },
        {
          "internalType": "uint256",
          "name": "amount",
          "type": "uint256"
        },
        {
          "internalType": "string",
          "name": "purpose",
          "type": "string"
        }
      ],
      "name": "spendNative",
      "outputs": [],
      "stateMutability": "nonpayable",
      "type": "function"
    },
    {
      "inputs": [
        {
          "internalType": "address",
          "name": "newAdmin",
          "type": "address"
        }
      ],
      "name": "transferAdmin",
      "outputs": [],
      "stateMutability": "nonpayable",
      "type": "function"
    },
    {
      "stateMutability": "payable",
      "type": "receive"
    }
  ],
  "bytecode": "0x6080346100af57601f610aa238819003918201601f19168301916001600160401b038311848410176100b3578084926020946040528339810103126100af57516001600160a01b038116908190036100af5760017f9b779b17422d0df92223018b32b4d1fa46e071723d6817e2486d003becc55f0055801561009d575f80546001600160a01b0319169190911790556040516109da90816100c88239f35b60405163d92e233d60e01b8152600490fd5b5f80fd5b634e487b7160e01b5f52604160045260245ffdfe608060409080825260049081361015610039575b5050361561001f575f80fd5b513481525f5f8051602061094583398151915260203393a3005b5f3560e01c9081630e18b681146107c457508063267822471461079c578063382e7244146107605780633a41429a1461072457806345e67724146105745780636be3f3e01461050157806375829def14610471578063879cdd13146103e05780638f676e08146103aa5780639a387e7014610368578063e1bb5133146102ce578063e782330314610197578063f851a440146101705763f8b2cb4f146100df5780610013565b3461015b576020918260031936011261015b57826001600160a01b0361010361083f565b169260248351809581936370a0823160e01b835230908301525afa918215610166575f92610133575b5051908152f35b9091508281813d831161015f575b61014b81836108b1565b8101031261015b5751905f61012c565b5f80fd5b503d610141565b50513d5f823e3d90fd5b823461015b575f36600319011261015b575f5490516001600160a01b039091168152602090f35b503461015b57606036600319011261015b576001600160a01b0381358181169391929084900361015b57602435916001600160401b039160443583811161015b576101e59036908301610855565b9390955f541633036102bf576101f9610915565b86156102b0574785116102a1575f808080888b5af1903d1561029b573d90811161028857835190610234601f8201601f1916602001836108b1565b81525f60203d92013e5b1561027a5750916102645f94925f805160206109858339815191529451938493846108e8565b0390a360015f8051602061096583398151915255005b9051633d2cec6f60e21b8152fd5b604183634e487b7160e01b5f525260245ffd5b5061023e565b509051631e9acf1760e31b8152fd5b50905163d92e233d60e01b8152fd5b509051634755657960e01b8152fd5b50903461015b576102de36610882565b5f549092916001600160a01b039182163303610358571692831561034a57507fd47f4d9453e9791c794cf5aa87230761df19291606f7b48627c71d934e67271491602091845f526003835261034182825f209060ff801983541691151516179055565b519015158152a2005b905163d92e233d60e01b8152fd5b8251634755657960e01b81528590fd5b50903461015b575f36600319011261015b575f546001600160a01b0316330361039d57600180546001600160a01b0319169055005b51634755657960e01b8152fd5b50903461015b57602036600319011261015b576020916001600160a01b036103d061083f565b165f528252805f20549051908152f35b503461015b578160031936011261015b576103f961083f565b9160243592335f52600360205260ff825f20541615610463576001600160a01b03165f818152602084905282902080549193858301928310610450575055519182525f8051602061094583398151915260203393a3005b601190634e487b7160e01b5f525260245ffd5b50516392d6b90560e01b8152fd5b503461015b57602036600319011261015b5761048b61083f565b5f546001600160a01b039081169291338490036104f157169283156104e4575050600180546001600160a01b031916831790557fe5cd1c804f1c9cc6d7009e4c0fb532f0e2d8863524c3323a6b3790c3f80bf25c5f80a3005b5163d92e233d60e01b8152fd5b8451634755657960e01b81528390fd5b50903461015b5761051136610882565b5f549092916001600160a01b039182163303610358571692831561034a57507f57fb8a3ebd822798b2e950e9fcc5adb4e11626ccd19b81f42ba5e4908caee86491602091845f526002835261034182825f209060ff801983541691151516179055565b503461015b57608036600319011261015b5761058e61083f565b6001600160a01b03926024358481169392919084900361015b57604435906064356001600160401b03811161015b576105ca9036908601610855565b969093815f54163314158061070e575b6106fe576105e6610915565b86156106ee57169381516370a0823160e01b81523082820152602081602481895afa9081156106e4575f916106b2575b5083116106a45781519063a9059cbb60e01b5f528681528360245260205f604481808a5af160015f5114811615610685575b828452156106715750505f805160206109858339815191529394956102649151938493846108e8565b635274afe760e01b82528101859052602490fd5b600181151661069b57863b15153d151616610648565b823d5f823e3d90fd5b9051631e9acf1760e31b8152fd5b90506020813d6020116106dc575b816106cd602093836108b1565b8101031261015b57515f610616565b3d91506106c0565b83513d5f823e3d90fd5b825163d92e233d60e01b81528690fd5b82516338177f7760e11b81528690fd5b50335f52600260205260ff835f205416156105da565b823461015b57602036600319011261015b576020906001600160a01b0361074961083f565b165f526003825260ff815f20541690519015158152f35b823461015b57602036600319011261015b576020906001600160a01b0361078561083f565b165f526002825260ff815f20541690519015158152f35b823461015b575f36600319011261015b5760015490516001600160a01b039091168152602090f35b823461015b575f36600319011261015b576001546001600160a01b0380821693909290338590036108335750505f80546001600160a01b0319808216861783559092166001559116907ff8ccb027dfcd135e000e9d45e6cc2d662578a8825d4c45b5e32e0adf67e79ec69080a3005b63d1ec4b2360e01b8152fd5b600435906001600160a01b038216820361015b57565b9181601f8401121561015b578235916001600160401b03831161015b576020838186019501011161015b57565b604090600319011261015b576004356001600160a01b038116810361015b5790602435801515810361015b5790565b601f909101601f19168101906001600160401b038211908210176108d457604052565b634e487b7160e01b5f52604160045260245ffd5b91926060938192845260406020850152816040850152848401375f828201840152601f01601f1916010190565b5f8051602061096583398151915260028154146109325760029055565b604051633ee5aeb560e01b8152600490fdfe8cabf31d2b1b11ba52dbb302817a3c9c83e4b2a5194d35121ab1354d69f6a4cb9b779b17422d0df92223018b32b4d1fa46e071723d6817e2486d003becc55f008e4c822e918d19a0c45d5e4f767dacbe7be5fae70d86b74130c9a7a7669d387fa2646970667358221220b723fd71cb4d45e962064022261346f8a2fcb6beda82249bbef9377a84d8d7d764736f6c63430008180033",
  "linkReferences": {},
  "deployedLinkReferences": {}
}